S02600002E2E2F48414E636F6465725F453430375F43414E5F434F4D4D5F544553542E73726563F5
S31508004000DCCB00200D89010800000000000000003C
S315080040100000000000000000000000000000000092
S31508004020000000000000000000000000615A0108BE
S315080040300000000000000000FD5A01084D5B010861
S315080040400000000000000000000000000000000062
S315080040500000000000000000000000000000000052
S31508004060000000003D680108000000000000000094
S315080040700000000000000000000000000000000032
S31508004080000000000000000000000000894E010842
S31508004090414E0108654E0108AD4E010800000000BA
S315080040A0296801081568010801680108F16701080F
S315080040B0DD670108C9670108B56701080000000047
S315080040C000000000000000000000000000000000E2
S315080040D00000000041720108597201087172010856
S315080040E0000000000000000039730108000000000D
S315080040F0A16701088D6701087D67010800000000B7
S3150800410000000000A1720108000000000000000085
S315080041100000000000000000000000000000000091
S31508004120000000000000000000000000A572010861
S31508004130000000006D68010800000000194F010822
S31508004140D14E0108F54E01083D4F01086973010873
S31508004150000000000000000000000000897201084D
S315080041600000000000000000000000000000000041
S315080041700000000000000000000000000000000031
S311080041800000000000000000EE11AA5527
S3150800C0006464640048414E636F6465725F4534300A
S3150800C010375F43414E5F434F4D4D5F544553545F21
S3150800C020736F66747761726549445F76315F31353F
S3150800C030303232325F30383335343900417070432C
S3150800C04074726C5461736B0048414E636F64657219
S3150800C0505F453430375F43414E5F434F4D4D5F5424
S3150800C0604553542E630000002000000000140240CF
S3150800C07008000900200000000014024010000E000D
S3150800C080200000000014024020000F0020000000DD
S3150800C0900014024040000400200000000014024082
S3150800C0A08000050020000000001402400001060080
S3150800C0B020000000001402400002070020000000D3
S3150800C0C000140240000408000400000000080240B2
S3150800C0D001000A00040000000008024004000C00E9
S3150800C0E0414443636F6E76657273696F6E5461730C
S3150800C0F06B0000002E2E2F626C6F636B7365742FB6
S3150800C1007274772F53544D33322F7372632F6865C9
S3150800C11061705F342E630000546D724370754C6F06
S3150800C1206164000049444C45000000002E2E2F6231
S3150800C1306C6F636B7365742F7274772F53544D331A
S3150800C140322F7372632F7461736B732E6300000052
S3150800C1502E2E2F626C6F636B7365742F7274772F34
S3150800C16053544D33322F7372632F74696D6572732E
S3150800C1702E630000546D72205376630043616E454A
S3150800C18076656E745461736B0000000043616E54EB
S3150800C19072616E736D69745461736B002E2E2F6213
S3150800C1A06C6F636B7365742F7274772F53544D33AA
S3150800C1B0322F7372632F53544D33325F4534303701
S3150800C1C02F63616E2E6300000064004000000002C9
S3150800C1D008000000000C02400100000008000000F2
S3150800C1E0000C024002000100091314151600000095
S3150800C1F0006800400000000402000000000402403D
S3150800C200200005000200000000040240400006006D
S3150800C210093F4041420000000101020102020202F8
S3150800C22002030202040202030303040303050303D1
S3150800C23006030305040406040407040408040407A3
S3150800C2400505080505080605080705080706080878
S3150800C2500608080708080800457643686E6C31002A
S3150800C260457643686E6C3200457643686E6C3300DB
S3150800C2702E2E2F626C6F636B7365742F7274772F13
S3150800C28053544D33322F7372632F53544D33325FE9
S3150800C290453430372F6D61632E6300002E2E2F62D2
S3150800C2A06C6F636B7365742F7274772F53544D33A9
S3150800C2B0322F7372632F53544D33325F4534303700
S3150800C2C02F706F72742E6300000001400100000099
S3150800C2D002010000100000000010024000020900E0
S3150800C2E0100000000010024000080B000004004087
S3150800C2F002000000010200000100000000000240E8
S3150800C300400006000200000000040240200005006C
S3150800C31000080040040000000102000008000000B8
S3150800C320000C024000100C0008000000000C02403F
S3150800C33000200D0000040140020000000203000076
S3150800C3400400000000080240400006000400000047
S3150800C35000080240800007000000014001000000BC
S3150800C36002011900000000400100000001021C0043
S3150800C370000400400200000001021D000008004001
S3150800C3800400000001021E00000401400200000033
S3150800C39002012C00004001400000010002011800C3
S3150800C3A00044014000000200020119000048014053
S3150800C3B00000040002011A00001C00408000000072
S3150800C3C001022C00002000400001000001022D009F
S3150800C3D004000000000802400100000020000000E0
S3150800C3E00014024040000000200000000014024033
S3150800C3F08000000020000000001402400001000038
S3150800C4002000000000140240000200002000000086
S3150800C410001402400004000002000000000402406C
S3150800C42080000000020000000004024040000000F6
S3150800C4301000000000100240040000001000000078
S3150800C440001002401000000010000000001002401A
S3150800C450200000001000000000100240400000000C
S3150800C4604000000000180240800000004000000064
S3150800C47000180240000100004000000000180240B9
S3150800C4800010000040000000001802400080000074
S3150800C4900100000000000240100000000200000039
S3150800C4A000040240200000000100000000000240D5
S3150800C4B040000000010000000000024020000000CB
S3150800C4C008000000000C02400100000008000000FF
S3150800C4D0000C02400200000008000000000C0240A8
S3150800C4E00400000008000000000C024008000000DC
S3150800C4F008000000000C02401000000008000000C0
S3150800C500000C02402000000008000000000C024059
S3150800C5104000000008000000000C024080000000F7
S3150800C52008000000000C024000010000080000009E
S3150800C530000C02400002000008000000000C024047
S3150800C5400004000008000000000C0240000800007B
S3150800C55008000000000C024000100000080000005F
S3150800C560000C02400020000008000000000C0240F9
S3150800C5700040000008000000000C02400080000097
S3150800C580100000000010024001000000100000002A
S3150800C59000100240020000001000000000100240D7
S3150800C5A00800000010000000001002408000000093
S3150800C5B010000000001002400001000010000000FA
S3150800C5C000100240000200001000000000100240A7
S3150800C5D000040000100000000010024000080000DF
S3150800C5E010000000001002400010000010000000BB
S3150800C5F00010024000200000100000000010024059
S3150800C60000400000100000000010024000800000FA
S3150800C6102000000000140240010000002000000075
S3150800C620001402400200000020000000001402402E
S3150800C630040000002000000000140240080000006A
S3150800C6402000000000140240100000002000000036
S3150800C65000140240200000002000000000140240E0
S3150800C660000800002000000000140240001000002E
S3150800C67020000000001402400020000020000000F6
S3150800C6800014024000400000200000000014024090
S3150800C6900080000040000000001802400100000071
S3150800C6A040000000001802400200000040000000A0
S3150800C6B00018024004000000400000000018024074
S3150800C6C008000000400000000018024010000000AA
S3150800C6D04000000000180240200000004000000052
S3150800C6E00018024040000000400000000018024008
S3150800C6F0000200004000000000180240000400008C
S3150800C7004000000000180240000800004000000039
S3150800C71000180240002000004000000000180240F7
S3150800C7200040000001000000000002400100000077
S3150800C730040000000008024001000000200000007C
S3150800C74000140240400000002000000000140240CF
S3150800C75080000000200000000014024000010000D4
S3150800C7602000000000140240000200002000000023
S3150800C7700014024000040000020000000004024009
S3150800C7808000000002000000000402404000000093
S3150800C7901000000000100240040000001000000015
S3150800C7A000100240100000001000000000100240B7
S3150800C7B020000000100000000010024040000000A9
S3150800C7C04000000000180240800000004000000001
S3150800C7D00018024000010000400000000018024056
S3150800C7E00010000040000000001802400080000011
S3150800C7F001000000000002401000000002000000D6
S3150800C8000004024020000000010000000000024071
S3150800C8104000000001000000000002402000000067
S3150800C82008000000000C024001000000080000009B
S3150800C830000C02400200000008000000000C024044
S3150800C8400400000008000000000C02400800000078
S3150800C85008000000000C024010000000080000005C
S3150800C860000C02402000000008000000000C0240F6
S3150800C8704000000008000000000C02408000000094
S3150800C88008000000000C024000010000080000003B
S3150800C890000C02400002000008000000000C0240E4
S3150800C8A00004000008000000000C02400008000018
S3150800C8B008000000000C02400010000008000000FC
S3150800C8C0000C02400020000008000000000C024096
S3150800C8D00040000008000000000C02400080000034
S3150800C8E010000000001002400100000010000000C7
S3150800C8F00010024002000000100000000010024074
S3150800C900080000001000000000100240800000002F
S3150800C9101000000000100240000100001000000096
S3150800C9200010024000020000100000000010024043
S3150800C930000400001000000000100240000800007B
S3150800C9401000000000100240001000001000000057
S3150800C95000100240002000001000000000100240F5
S3150800C9600040000010000000001002400080000097
S3150800C9702000000000140240010000002000000012
S3150800C98000140240020000002000000000140240CB
S3150800C9900400000020000000001402400800000007
S3150800C9A020000000001402401000000020000000D3
S3150800C9B0001402402000000020000000001402407D
S3150800C9C000080000200000000014024000100000CB
S3150800C9D02000000000140240002000002000000093
S3150800C9E0001402400040000020000000001402402D
S3150800C9F0008000004000000000180240010000000E
S3150800CA00400000000018024002000000400000003C
S3150800CA100018024004000000400000000018024010
S3150800CA200800000040000000001802401000000046
S3150800CA3040000000001802402000000040000000EE
S3150800CA4000180240400000004000000000180240A4
S3150800CA500002000040000000001802400004000028
S3150800CA6040000000001802400008000040000000D6
S3150800CA700018024000200000400000000018024094
S3150800CA8000400000040000000008024000200000EA
S3150800CA90000001400100000002011B0000000040E8
S3150800CAA00100000001021C00000400400200000012
S3150800CAB001021D00000800400400000001021E00DB
S3150800CAC0000401400200000002012E00004001405F
S3150800CAD000000100020118000044014000000200A5
S3150800CAE002011900004801400000040002011A0072
S3150800CAF0001C00408000000001022C0000200040BD
S3150800CB000001000001022D00100000000010024084
S3150800CB1000020000020002000100090010000000E7
S3150800CB2000100240000800010400200001000B006C
S3150800CB301000000000100240002000020800000259
S3150800CB4001000D0010000000001002400040000324
S3150800CB501000002001000E00010000000000024045
S3150800CB60200001000200020001000500010000008B
S3150800CB700000024040000200020002000200060017
S3150800CB800200000000040240200002010400200008
S3150800CB900200050008000000000C02400010030017
S3150800CBA00200020002000C0008000000000C02400F
S3150800CBB0002003010400200002000D00040000000C
S3150800CBC000080240400004000200020003000600BC
S3150800CBD00400000000080240800004010400200050
S3150800CBE003000700100000000010024020000500A6
S3150800CBF002000200030005001000000000100240B9
S3150800CC004000050104002000030006002000000083
S3150800CC10001402404000060002000200030006005D
S3150800CC2020000000001402408000070002000200F5
S3150800CC30030007002000000000140240000108005D
S3150800CC40020002000900080020000000001402404B
S3150800CC500002090002000200090009000010014054
S3150800CC601000000002250000020000000004024037
S3150800CC704000060002000000000402408000070091
S3150800CC8007000000004400400000020001260000E2
S3150800CC9008000000000C0240200005000800000003
S3150800CCA0000C024040000600070000000048004053
S3150800CCB0000004000127000008000000000C0240E4
S3150800CCC00001080008000000000C024000020900EC
S3150800CCD00700000000140140200000000247000081
S3150800CCE0040000000008024040000600040000009E
S3150800CCF00008024080000700080000005643502044
S3150800CD00436F6E666967000056435020496E746526
S3150800CD10726661636500000053544D6963726F65FE
S3150800CD206C656374726F6E696373000053544D3398
S3150800CD3032205669727475616C20436F6D506F723C
S3150800CD407420696E204853206D6F646500000000EA
S3150800CD5053544D3332205669727475616C20436F93
S3150800CD606D506F727420696E204653204D6F64654E
S3150800CD70000000003030303030303030303530424E
S3150800CD80000000003030303030303030303530433D
S3150800CD9000000000000001400100000002011B0025
S3150800CDA0000000400100000001021C0000040040D1
S3150800CDB00200000001021D000008004004000000F7
S3150800CDC001021E00000401400200000002012E00BC
S3150800CDD00040014000000100020118000044014023
S3150800CDE0000002000201190000480140000004008A
S3150800CDF002011A00001C00408000000001022C00FD
S3150800CE00002000400001000001022D001000000073
S3150800CE1000100240000200000200020001000900A2
S3150800CE201000000000100240000800010400200065
S3150800CE3001000B0010000000001002400020000254
S3150800CE400800000201000D0010000000001002405A
S3150800CE50004000031000002001000E000100000041
S3150800CE600000024020000100020002000100050047
S3150800CE70010000000000024040000200020002001B
S3150800CE800200060002000000000402402000020121
S3150800CE90040020000200050008000000000C024003
S3150800CEA0001003000200020002000C000800000047
S3150800CEB0000C0240002003010400200002000D00BF
S3150800CEC004000000000802404000040002000200BE
S3150800CED00300060004000000000802408000040168
S3150800CEE004002000030007001000000000100240A4
S3150800CEF020000500020002000300050010000000E3
S3150800CF00001002404000050104002000030006004E
S3150800CF102000000000140240400006000200020043
S3150800CF2003000600200000000014024080000700ED
S3150800CF30020002000300070020000000001402405F
S3150800CF400001080002000200090008002000000095
S3150800CF50001402400002090002000200090009004C
S3150800CF602E2E2F626C6F636B7365742F7274772F16
S3150800CF7053544D33322F7372632F71756575652E51
S3150800CF80630000000404040098CF0008A0CF00083E
S3150800CF90A8CF000807070700457643686E6C31007E
S3150800CFA0457643686E6C3200457643686E6C33008E
S3150800CFB050505000706F77000000000000003043AA
S3110800CFC000000000000030C34300000021
S315080100000B78FF2B00D070474B78002BFBD103F000
S31508010010A7B800BF08B5012002F0CEFB034A40F29B
S3150801002067610020BDE8084005F0F0B80100010845
S31508010030002000F001B800BF2DE9F04FDFF8C8A095
S315080100409AF8013091B0002B62D09AF80230002B51
S315080100503BD003F087F8264B187003F089F8254B37
S315080100601860254803F086F8244A9AF8013010608A
S3150801007053B9234B1978002937D1472006F062FD79
S31508010080204A9AF8013014729AF802201E4901335F
S31508010090B2B9DBB21B489DF828404B70092B447254
S315080100A01ED900238AF801300132D2B2132A8ABF37
S315080100B000238AF802208AF8023011B0BDE8F08FD1
S315080100C0DBB2092B4B70ECD8EEE70E4B0F4A5B7A85
S315080100D013700133DBB2022B28BF00230A93B8E75A
S315080100E001238B7011B0BDE8F08F0121C5E700BF70
S315080100F04BBC00209CBB00203CC00008F8BB00207C
S31508010100A6BB002030BB002010BB002000BC00208D
S31508010110472006F0C9FCC44B1870092006F0C4FC38
S31508010120C14BC24A1B781070002B01F06787002863
S3150801013001F06487BE4B03931946DB7A002B02F064
S315080101401C81BC4BBC4C1968002223460092104600
S3150801015005F018F8B94B0028187042F35F82B84ABF
S31508010160B8490892B84AB948069262780A70B84DF1
S31508010170A2780270B74EE2780E90B148B64F0D914B
S315080101802A70A1792279DFF8E4E232700170627986
S31508010190AD4923783A70E2790F950B960C978EF84C
S315080101A000300A70DA09AD490291D001C0B281F86E
S315080101B02F0081F83020181A0BF0D2FDDFF8B0B203
S315080101C08046DBE90023894600204FF080410AF08A
S315080101D0B3FB02460B4604460D46404649460BF01C
S315080101E04FFF0022002306460F460CF091F800281F
S315080101F042F00C82304639460AF016FB06460F468F
S315080102009FED877B22462B46304639468DED047B8A
S315080102100BF00CFE02460B46404649460BF052FCD3
S31508010220DBF800300493DBF8043003F1004305934F
S31508010230DDE9042304460D4600204FF080410AF00B
S315080102407BFB0B46029991F830100246204600299D
S3150801025041F0F08629460BF0E9FD3B4632460BF0A4
S3150801026033FC7F4BC3E90001069B029C1878C2093F
S31508010270D301DBB284F8222084F82130C01A0BF0AE
S315080102806FFDDBE900238046894600204FF0804157
S315080102900AF052FB02460B4604460D4640464946BD
S315080102A00BF0EEFE0022002306460F460CF030F84E
S315080102B0002842F08B81304639460AF0B5FA0646DF
S315080102C00F4622462B46304639460BF0AFFD02460D
S315080102D00B46404649460BF0F5FBDDE90423044687
S315080102E00D4600204FF080410AF026FB0B46029985
S315080102F091F8221002462046002902F06680294616
S315080103000BF094FD32463B460BF0DEFB554B01F1F3
S31508010310004283E805000D9B029C1878C209D301A7
S31508010320DBB284F82020E377C01A0BF019FDDBE96C
S3150801033000238046894600204FF080410AF0FCFAE6
S3150801034002460B4604460D46404649460BF098FEC2
S315080103500022002306460F460BF0DAFF002842F07A
S315080103607781304639460AF05FFA06460F46224635
S315080103702B46304639460BF059FD02460B46404698
S3150801038049460BF09FFBDDE9042304460D46002090
S315080103904FF080410AF0D0FA0B46029991F82010E5
S315080103A002462046002902F0048029460BF03EFD4C
S315080103B032463B460BF088FB2B4B01F1004283E8A2
S315080103C005000E9B029C1878C209D301DBB2A277FD
S315080103D06377C01A0BF0C4FCDBE900238046894623
S315080103E000204FF080410AF0A7FA02460B46044660
S315080103F00D46404649460BF043FE002200230646B9
S315080104000F460BF085FF002842F0C080304639467A
S315080104100AF00AFA06460F462CE000BFAFF3008041
S31508010420000000000000000069BC0020F8BA0020A6
S3150801043030BB0020A8BB0020F0060020D9BB002055
S315080104406CBB002006BB0020A5BB00204ABC0020CF
S31508010450FDBA00200BBB002088BB002000BC002091
S3150801046028BB002090BB002070BB002089BB002060
S315080104708800002022462B46304639460BF0D6FC2A
S3150801048002460B46404649460BF01CFBDDE90423B0
S3150801049004460D4600204FF080410AF04DFA0B46FE
S315080104A00299897F02462046002901F0BE8729461E
S315080104B00BF0BCFC32463B460BF006FBD24B01F176
S315080104C0004283E805000F9B029C1878C209D301F4
S315080104D0DBB22277E376C01A0BF042FCDBE9002394
S315080104E08046894600204FF080410AF025FA0246E7
S315080104F00B4604460D46404649460BF0C1FD00220F
S31508010500002306460F460BF003FF002842F07680CB
S31508010510304639460AF088F906460F4622462B46E2
S31508010520304639460BF082FC02460B4640464946A0
S315080105300BF0C8FADDE9042304460D4600204FF006
S3150801054080410AF0F9F90B460299097F02462046CD
S31508010550002901F05E8729460BF068FC32463B46C6
S315080105600BF0B2FAA94B01F1004283E805000B9B97
S31508010570029C1878C209D301DBB2A2766376C01A47
S315080105800BF0EEFBDBE9002304460D4600204FF095
S3150801059080410AF0D1F902460B4606460F46204627
S315080105A029460BF06DFD00220023804689460BF093
S315080105B0AFFE002842F01A80404649460AF034F94F
S315080105C08046894632463B46404649460BF02EFC54
S315080105D002460B46204629460BF074FADDE9042348
S315080105E004460D4600204FF080410AF0A5F90B4656
S315080105F00299897E02462046002901F0FE8629468F
S315080106000BF014FC42464B460BF05EFA804B01F1A7
S31508010610004283E805000C9B029C1878C209D301A5
S31508010620DBB22276E375C01A0BF09AFBDBE90023ED
S3150801063004460D4600204FF080410AF07DF9024636
S315080106400B4606460F46204629460BF019FD0022A1
S315080106500023804689460BF05BFE002841F0BE87E1
S31508010660404649460AF0E0F88046894632463B4606
S31508010670404649460BF0DAFB02460B462046294618
S315080106800BF020FADDE9042304460D4600204FF05D
S3150801069080410AF051F90B460299097E0246204625
S315080106A0002901F09E8629460BF0C0FB42464B46BF
S315080106B00BF00AFA574B01F1004283E80500089B43
S315080106C0029C1878C209D301DBB2A2756375C01AF8
S315080106D00BF046FBDBE9002304460D4600204FF0EC
S315080106E080410AF029F902460B4606460F4620467E
S315080106F029460BF0C5FC00220023804689460BF0EB
S3150801070007FE002841F02087404649460AF08CF842
S315080107108046894632463B46404649460BF086FBAB
S3150801072002460B46204629460BF0CCF9DDE904239F
S3150801073004460D4600204FF080410AF0FDF80B46AD
S315080107400299897D02462046002901F0D986294663
S315080107500BF06CFB42464B460BF0B6F92E4B01F1FA
S31508010760004283E805002D4B2D4C196800222346CB
S315080107700092012004F006FD2A4B0028187041F367
S31508010780F386294B294A0893294B2A490693237844
S315080107901370294D63780B70284EA3780D91224961
S315080107A0274F0B922B70A279E378DFF898E0337024
S315080107B00A7063791E4A20793B70E3790E950F9684
S315080107C00C978EF800001370C209029CDFF878B006
S315080107D084F82E20D301DBB284F82D30C01A0BF031
S315080107E0BFFADBE900238046894600204FF08041A5
S315080107F00AF0A2F802460B4604460D46404649460B
S315080108000BF03EFC22E000BF18BB002060BC0020B4
S3150801081050BB002040BC0020C0BB002034BC0020D7
S31508010820E80600206CBC0020D8BB00206ABC00206A
S3150801083008BB002039BC002005BB002099BB00205D
S315080108400CBB00209ABB0020900000200022002348
S3150801085006460F460BF05CFD002841F07D863046C2
S31508010860394609F0E1FF06460F469FEDC97B224648
S315080108702B46304639468DED047B0BF0D7FA0246F6
S315080108800B46404649460BF01DF9DBF80030049348
S31508010890DBF8043003F100430593DDE9042304463C
S315080108A00D4600204FF080410AF046F80B460299A2
S315080108B091F82E1002462046002901F01586294690
S315080108C00BF0B4FA32463B460BF0FEF8B24B01F197
S315080108D0004283E805000F9B029C1878C209D301E0
S315080108E0DBB284F82C2084F82B30C01A0BF038FAC6
S315080108F0DBE900238046894600204FF080410AF053
S315080109001BF802460B4604460D46404649460BF07F
S31508010910B7FB0022002306460F460BF0F9FC002818
S3150801092041F00A863046394609F07EFF06460F46EB
S3150801093022462B46304639460BF078FA02460B46D4
S31508010940404649460BF0BEF8DDE9042304460D4648
S3150801095000204FF0804109F0EFFF0B46029991F80C
S315080109602C1002462046002901F0B28529460BF0D3
S315080109705DFA32463B460BF0A7F8884B01F1004277
S3150801098083E805000E9B029C1878C209D301DBB2E5
S3150801099084F82A2084F82930C01A0BF0E1F9DBE93A
S315080109A000238046894600204FF0804109F0C4FFA4
S315080109B002460B4604460D46404649460BF060FB87
S315080109C00022002306460F460BF0A2FC002841F040
S315080109D0AB853046394609F027FF06460F462246BB
S315080109E02B46304639460BF021FA02460B4640465D
S315080109F049460BF067F8DDE9042304460D46002055
S31508010A004FF0804109F098FF0B46029991F82A1098
S31508010A1002462046002901F04F8529460BF006FAC1
S31508010A2032463B460BF050F85D4B01F1004283E834
S31508010A3005000D9B029C1878C209D301DBB284F824
S31508010A40282084F82730C01A0BF08AF9DBE900233D
S31508010A508046894600204FF0804109F06DFF024625
S31508010A600B4604460D46404649460BF009FB002253
S31508010A70002306460F460BF04BFC002841F04C8537
S31508010A803046394609F0D0FE06460F4622462B4621
S31508010A90304639460BF0CAF902460B4640464946E6
S31508010AA00BF010F8DDE9042304460D4600204FF04B
S31508010AB0804109F041FF0B46029991F82810024638
S31508010AC02046002901F0EC8429460BF0AFF932469D
S31508010AD03B460AF0F9FF334B01F1004283E8050072
S31508010AE0089B029C1878C209D301DBB284F8262038
S31508010AF084F82530C01A0BF033F9DBE90023804668
S31508010B00894600204FF0804109F016FF02460B4640
S31508010B1004460D46404649460BF0B2FA0022002328
S31508010B2006460F460BF0F4FB002841F04785304690
S31508010B30394609F079FE06460F4622462B463046C7
S31508010B4039460BF073F902460B46404649460AF008
S31508010B50B9FFDDE9042304460D4600204FF0804124
S31508010B6009F0EAFE0B46029991F82610024620463C
S31508010B70002901F0898429460BF058F932463B468B
S31508010B800AF0A2FF084B01F1004283E805000DE0D7
S31508010B900000000000000000E0BB002058BB002058
S31508010BA080BB002050BC0020C8BB00200B9B029CC8
S31508010BB01878C209D301DBB284F8242084F82330DB
S31508010BC0C01A0BF0CDF8DBE9002304460D460020D8
S31508010BD04FF0804109F0B0FE02460B4606460F4625
S31508010BE0204629460BF04CFA002200238046894606
S31508010BF00BF08EFB002841F0D9844046494609F09E
S31508010C0013FE8046894632463B46404649460BF026
S31508010C100DF902460B46204629460AF053FFDDE93F
S31508010C20042304460D4600204FF0804109F084FE56
S31508010C300B46029991F8241002462046002901F034
S31508010C40008429460BF0F2F842464B460AF03CFF6F
S31508010C50B04B01F1004283E80500069B029C187817
S31508010C60C209D301DBB22275E374C01A0BF078F816
S31508010C70DBE9002304460D4600204FF0804109F0C8
S31508010C805BFE02460B4606460F46204629460BF0F2
S31508010C90F7F900220023804689460BF039FB002824
S31508010CA041F07C844046494609F0BEFD80468946A6
S31508010CB032463B46404649460BF0B8F802460B46D3
S31508010CC0204629460AF0FEFEDDE9042304460D46C0
S31508010CD000204FF0804109F02FFE0B460299097D4D
S31508010CE002462046002901F0588329460BF09EF852
S31508010CF042464B460AF0E8FE874B01F1004283E87B
S31508010D0005000C9B029C1878C209D301DBB2A274B8
S31508010D106374C01A0BF024F8DBE9002304460D4678
S31508010D2000204FF0804109F007FE02460B460646B1
S31508010D300F46204629460BF0A3F9002200238046D8
S31508010D4089460BF0E5FA002841F07A84404649467F
S31508010D5009F06AFD8046894632463B464046494681
S31508010D600BF064F802460B46204629460AF0AAFE0D
S31508010D70DDE9042304460D4600204FF0804109F0C1
S31508010D80DBFD0B460299897C02462046002901F0C3
S31508010D90F88229460BF04AF842464B460AF094FE79
S31508010DA05E4B01F1004283E805005D485D4A5E49F4
S31508010DB05E4B0068126808601A60082005F074FE28
S31508010DC05B4B5C4A1B781070002B01F022810028CE
S31508010DD001F01F81039B584A9B7A0BB90123937231
S31508010DE0564B574AD3E90067D2E900453B462046A8
S31508010DF0294632460BF08CFA002801F0AE8225F01E
S31508010E000047DFF854B13946204609F00DFDDBE904
S31508010E100089CDE9060142464B46002049490AF0B8
S31508010E2051FE4246CDE9040109F1004300204FF085
S31508010E30804109F081FDDDE90423804689460020C9
S31508010E404FF0804109F078FDDDE90623CDE9080177
S31508010E50394620460AF036FE42464B460BF010F953
S31508010E600022002306460F460BF052FA002841F0ED
S31508010E70F7833046394609F0D7FC06460F46204621
S31508010E800023294600220BF043FA2F4B02931C46F6
S31508010E904FF00103002801F05D82D9012174DBE9D5
S31508010EA0002300204FF0804109F046FD04460D4617
S31508010EB0304639460BF06AFA029B244E197CDDE965
S31508010EC0067822462B464418384641460AF0AEFFB4
S31508010ED00BF05CFA1E4D0444DDE908233846414609
S31508010EE02C700BF029FA4FF00103002801F02F822C
S31508010EF0184A3370124BD2E90045D3E900892246D4
S31508010F002B46404649460BF003FA002801F00F82AA
S31508010F1024E000BFB0BB0020F0BB002040BB00208E
S31508010F202C0000202800002000BB0020A0BB0020C8
S31508010F3069BC00206BBC002030BB002040000020AB
S31508010F401800002000001C4000BC00206DBB0020DA
S31508010F5049BC0020A00000208800002029F0004597
S31508010F602946404609F060FCCDE90601DBF8041084
S31508010F70DBF8002001F1004300204FF0804109F021
S31508010F80DBFCDDE9042306460F4600204FF08041CD
S31508010F9009F0D2FCDDE90623CDE9080129464046D8
S31508010FA00AF090FD32463B460BF06AF80022002310
S31508010FB004460D460BF0ACF9002841F0C9832046DA
S31508010FC0294609F031FC04460D46002340464946A8
S31508010FD000220BF09DF9CD4E4FF00103002801F0D8
S31508010FE0A381D9013172DBE9002300204FF080414A
S31508010FF009F0A2FC06460F46204629460BF0C6F91B
S31508011000029BC34C1D7A32463B46DDE90667054419
S31508011010394630460AF00AFF0BF0B8F9054430465E
S31508011020BC4EDDE90823394635700BF085F94FF0DA
S315080110300103002801F07581B74A2370B74BD2E93D
S315080110400045D3E9008922462B46404649460BF01E
S315080110505FF9002801F0558129F0004529464046E7
S3150801106009F0E2FBCDE90601DBF80410DBF8002004
S3150801107001F1004300204FF0804109F05DFCDDE9F4
S31508011080042306460F4600204FF0804109F054FC20
S31508011090DDE90623CDE90801294640460AF012FD95
S315080110A032463B460AF0ECFF0022002304460D4671
S315080110B00BF02EF9002841F043832046294609F012
S315080110C0B3FB04460D4600234046494600220BF071
S315080110D01FF98E4E4FF00103002801F00F81D90147
S315080110E0F171DBE9002300204FF0804109F024FC6F
S315080110F006460F46204629460BF048F9029B884CBE
S31508011100DD7932463B46DDE9066705443946304610
S315080111100AF08CFE0BF03AF905443046814EDDE9BA
S315080111200823394635700BF007F94FF001030028FB
S3150801113001F0E1807C4A2370784BD2E90045D3E976
S31508011140006722462B46304639460BF0E1F800285F
S3150801115001F0C18027F000493046494609F064FB91
S31508011160CDE90601DBF80410DBF8002001F10043A4
S3150801117000204FF0804109F0DFFBDDE90423044636
S315080111800D4600204FF0804109F0D6FBDDE9062324
S31508011190CDE90801304649460AF094FC22462B4619
S315080111A00AF06EFF0022002304460D460BF0B0F844
S315080111B0002841F0BD822046294609F035FB044640
S315080111C00D4630460023394600220BF0A1F84F4E52
S315080111D04FF00103002801F07B80D901B171DBE9E9
S315080111E0002300204FF0804109F0A6FB06460F4672
S315080111F0204629460BF0CAF8029B4C4C9D7932468B
S315080112003B46DDE906670544394630460AF00EFED7
S315080112100BF0BCF805443046454EDDE9082339464E
S3150801122035700BF089F84FF00103002801F04D8065
S31508011230404A2370394BD2E90045D3E90067224673
S315080112402B46304639460BF063F8002801F02D800D
S3150801125027F000493046494609F0E6FACDE9060184
S31508011260DBF80410DBF8002001F1004300204FF001
S31508011270804109F061FBDDE9042304460D4600209F
S315080112804FF0804109F058FBDDE90623CDE9080155
S31508011290304649460AF016FC22462B460AF0F0FE6D
S315080112A00022002304460D460BF032F8002841F0CF
S315080112B037822046294609F0B7FA04460D463046D4
S315080112C00023394600220BF023F8104E4FF0010394
S315080112D0002800F0E787D9017171DBE900230020B6
S315080112E04FF0804109F028FB06460F46204629465D
S315080112F00BF04CF8029B104C5D7932463B46DDE912
S31508011300066705443946304618E000BF00BC002090
S31508011310A4BB002038BC00201000002018000020C3
S31508011320E8BB002098BB002038000020F9BA00204D
S3150801133064BB0020A8000020FBBA00200AF076FD55
S315080113400BF024F805443046CB4EDDE9082339462F
S3150801135035700AF0F1FF4FF00103002800F09F876E
S31508011360C64A2370C64BD2E90045D3E9006722462F
S315080113702B46304639460AF0CBFF002800F07F8716
S3150801138027F000493046494609F04EFACDE90601EB
S31508011390DBF80410DBF8002001F1004300204FF0D0
S315080113A0804109F0C9FADDE9042304460D46002007
S315080113B04FF0804109F0C0FADDE90623CDE90801BD
S315080113C0304649460AF07EFB22462B460AF058FE6D
S315080113D00022002304460D460AF09AFF002841F030
S315080113E097812046294609F01FFA04460D463046DC
S315080113F00023394600220AF08BFFA24E4FF0010363
S31508011400002800F03987D9013171DBE90023002072
S315080114104FF0804109F090FA06460F4620462946C4
S315080114200AF0B4FF029B984C1D7932463B46DDE92A
S3150801143006670544394630460AF0F8FC0AF0A6FF65
S3150801144005443046914EDDE90823394635700AF0E0
S3150801145073FF4FF00103002800F00B878C4A2370B5
S31508011460874BD2E90045D3E9006722462B46304629
S3150801147039460AF04DFF002800F0EB8627F00049AF
S315080114803046494609F0D0F9CDE90601DBF80410E2
S31508011490DBF8002001F1004300204FF0804109F0FC
S315080114A04BFADDE9042304460D4600204FF080413E
S315080114B009F042FADDE90623CDE908013046494635
S315080114C00AF000FB22462B460AF0DAFD0022002329
S315080114D004460D460AF01CFF002841F011812046FA
S315080114E0294609F0A1F904460D4630460023394636
S315080114F000220AF00DFF634E4FF00103002800F0A9
S31508011500A586D901F170DBE9002300204FF080415F
S3150801151009F012FA06460F46204629460AF036FF12
S31508011520029B5C4CDD7832463B46DDE9066705449D
S31508011530394630460AF07AFC0AF028FF0544304657
S31508011540554EDDE90823394635700AF0F5FE4FF0A8
S315080115500103002800F07786504A2370484BD2E9E8
S315080115600045D3E9006722462B46304639460AF03C
S31508011570CFFE002800F0578627F000493046494635
S3150801158009F052F9CDE90601DBF80410DBF8002071
S3150801159001F1004300204FF0804109F0CDF9DDE962
S315080115A0042304460D4600204FF0804109F0C4F992
S315080115B0DDE90623CDE90401304649460AF082FAF7
S315080115C022462B460AF05CFD0022002304460D46FE
S315080115D00AF09EFE002841F08B802046294609F034
S315080115E023F904460D4630460023394600220AF0FF
S315080115F08FFE244E4FF00103002800F01186D90111
S31508011600B170DBE9002300204FF0804109F094F91D
S3150801161006460F46204629460AF0B8FE029B204C8C
S315080116209D7832463B46DDE906670544394630462C
S315080116300AF0FCFB0AF0AAFE05443046194EDDE91C
S315080116400423394635700AF077FE4FF00103002866
S3150801165000F0E385144A2370144BD2E90045D3E917
S3150801166000672246304639462B460AF051FE0028C5
S3150801167000F0C3851CE000BF04BB00206800002001
S315080116801800002000BC0020B8BB00200ABB0020BF
S31508011690B0000020D0BB002078BB0020C800002085
S315080116A007BB002058BC0020B800002020000020FD
S315080116B027F00049DFF830B33046494609F0B4F857
S315080116C0DBE90045CDE9060122462B460020BA4949
S315080116D00AF0F8F92246CDE9040105F10043002094
S315080116E04FF0804109F028F9DDE9042304460D4647
S315080116F000204FF0804109F01FF9DDE90623CDE905
S315080117000801304649460AF0DDF922462B460AF019
S31508011710B7FC0022002304460D460AF0F9FD00280D
S3150801172040F0DE872046294609F07EF804460D4634
S3150801173030460023394600220AF0EAFD9F4E4FF053
S315080117400103002800F05685D901F173DBE900236E
S3150801175000204FF0804109F0EFF806460F46204673
S3150801176029460AF013FE029B954CDD7B32463B4621
S31508011770DDE906670544394630460AF057FB0AF0A3
S3150801178005FE054430468F4EDDE908233946357096
S315080117900AF0D2FD4FF00103002800F028858A4A95
S315080117A023708A4BD2E90045D3E9006722462B46C6
S315080117B0304639460AF0ACFD002800F0088527F0C6
S315080117C000493046494609F02FF8CDE90601DBF80C
S315080117D00410DBF8002001F1004300204FF080419E
S315080117E009F0AAF8DDE9042304460D4600204FF066
S315080117F0804109F0A1F8DDE90623CDE90801304663
S3150801180049460AF05FF922462B460AF039FC0022BE
S31508011810002304460D460AF07BFD002840F0588750
S315080118202046294609F000F804460D4630460023AD
S31508011830394600220AF06CFD604E4FF0010300287C
S3150801184000F0C284D901B173DBE9002300204FF00F
S31508011850804109F071F806460F46204629460AF0E6
S3150801186095FD029B5A4C9D7B32463B46DDE9066750
S315080118700544394630460AF0D9FA0AF087FD054487
S315080118803046544EDDE90823394635700AF054FDD1
S315080118904FF00103002800F094844F4A23704B4B04
S315080118A0D2E90045D3E9006722462B463046394638
S315080118B00AF02EFD002800F0748427F0004930460E
S315080118C0494608F0B1FFCDE90601DBF80410DBF85B
S315080118D0002001F1004300204FF0804109F02CF867
S315080118E0DDE9042304460D4600204FF0804109F046
S315080118F023F8DDE90623CDE90801304649460AF011
S31508011900E1F822462B460AF0BBFB002200230446D7
S315080119100D460AF0FDFC002840F0D28620462946ED
S3150801192008F082FF04460D46304600233946002258
S315080119300AF0EEFC214E4FF00103002800F02E8438
S31508011940D9017173DBE9002300204FF0804108F0CB
S31508011950F3FF06460F46204629460AF017FD029B65
S315080119601E4C5D7B32463B46DDE906670544394632
S3150801197030460AF05BFA0AF009FD05443046184E6E
S31508011980DDE90823394635700AF0D6FC4FF0010324
S31508011990002800F00084134A23700C4BD2E9004555
S315080119A0D3E9006722462B46304639460AF0B0FC91
S315080119B0002800F0E18319E000001C4000BC00206B
S315080119C06DBC00203ABC00207800002020000020D1
S315080119D068BC0020FCBA0020C00000206FBC0020B3
S315080119E0E9BB0020480000209000002027F00049AC
S315080119F03046494608F018FFCDE90601DBF8041020
S31508011A00DBF8002001F1004300204FF0804108F087
S31508011A1093FFDDE9042304460D4600204FF080417B
S31508011A2008F08AFFDDE90623CDE908013046494673
S31508011A300AF048F822462B460AF022FB0022002328
S31508011A4004460D460AF064FC002840F0318620461B
S31508011A50294608F0E9FE04460D4630460023394674
S31508011A6000220AF055FCCD4E4FF00103002800F084
S31508011A708183D9013173DBE9002300204FF08041CE
S31508011A8008F05AFF06460F46204629460AF07EFC0C
S31508011A90029BC34C1D7B32463B46DDE9066705447E
S31508011AA0394630460AF0C2F90AF070FC0544304658
S31508011AB0BC4EDDE90823394635700AF03DFC4FF086
S31508011AC00103002800F05483B74A2370B74BD2E9C3
S31508011AD00045D3E9006722462B46304639460AF0C7
S31508011AE017FC002800F0358327F00049304649469F
S31508011AF008F09AFECDE90601DBF80410DBF80020B0
S31508011B0001F1004300204FF0804108F015FFDDE99F
S31508011B10042304460D4600204FF0804108F00CFFCF
S31508011B20DDE90623CDE908013046494609F0CAFF31
S31508011B3022462B460AF0A4FA0022002304460D4643
S31508011B400AF0E6FB002840F0AB852046294608F056
S31508011B506BFE04460D4630460023394600220AF03C
S31508011B60D7FB8E4E4FF00103002800F0F082D90111
S31508011B70F172DBE9002300204FF0804108F0DCFE1A
S31508011B8006460F46204629460AF000FC029B884C69
S31508011B90DD7A32463B46DDE9066705443946304675
S31508011BA00AF044F90AF0F2FB05443046814EDDE9B4
S31508011BB00823394635700AF0BFFB4FF001030028A8
S31508011BC000F0C3827C4A2370784BD2E90045D3E9F9
S31508011BD0006722462B46304639460AF099FB00280B
S31508011BE000F0A48227F000493046494608F01CFE59
S31508011BF0CDE90601DBF80410DBF8002001F100430A
S31508011C0000204FF0804108F097FEDDE904230446E1
S31508011C100D4600204FF0804108F08EFEDDE90623CF
S31508011C20CDE908013046494609F04CFF22462B46C4
S31508011C300AF026FA0022002304460D460AF068FB3C
S31508011C40002840F025852046294608F0EDFD044682
S31508011C500D4630460023394600220AF059FB4F4EFD
S31508011C604FF00103002800F01B82D901B172DBE9AC
S31508011C70002300204FF0804108F05EFE06460F461D
S31508011C80204629460AF082FB029B4C4C9D7A324635
S31508011C903B46DDE906670544394630460AF0C6F88B
S31508011CA00AF074FB05443046454EDDE908233946FA
S31508011CB035700AF041FB4FF00103002800F0EE8170
S31508011CC0404A2370394BD2E90045D3E900672246D9
S31508011CD02B46304639460AF01BFB002800F0CF8117
S31508011CE027F000493046494608F09EFDCDE9060130
S31508011CF0DBF80410DBF8002001F1004300204FF067
S31508011D00804108F019FEDDE9042304460D4600204A
S31508011D104FF0804108F010FEDDE90623CDE9080100
S31508011D203046494609F0CEFE22462B460AF0A8F966
S31508011D300022002304460D460AF0EAFA002840F07C
S31508011D409F842046294608F06FFD04460D46304615
S31508011D500023394600220AF0DBFA104E4FF0010340
S31508011D60002800F08A81D9017172DBE9002300207D
S31508011D704FF0804108F0E0FD06460F462046294609
S31508011D800AF004FB029B104C5D7A32463B46DDE9BC
S31508011D90066705443946304618E000BF00BC0020F6
S31508011DA009BB0020FABA0020980000202000002074
S31508011DB03BBC0020B9BB00205000002020BB0020FE
S31508011DC048BC002080000020FCBB00200AF02EF849
S31508011DD00AF0DCFA05443046B24EDDE908233946F5
S31508011DE035700AF0A9FA4FF00103002800F0438183
S31508011DF0AD4A2370AD4BD2E90045D3E900672246C7
S31508011E002B46304639460AF083FA002800F0248129
S31508011E1027F000493046494608F006FDCDE9060196
S31508011E20DBF80410DBF8002001F1004300204FF035
S31508011E30804108F081FDDDE9042304460D460020B2
S31508011E404FF0804108F078FDDDE90623CDE904016C
S31508011E503046494609F036FE22462B460AF010F965
S31508011E600022002304460D460AF052FA002840F0E3
S31508011E70FF832046294608F0D7FC04460D4630461E
S31508011E800023394600220AF043FA894E4FF001032E
S31508011E90002800F0DF80D9017170DBE900230020FA
S31508011EA04FF0804108F048FD06460F462046294670
S31508011EB00AF06CFA029B7F4D5C78DFF86C82324639
S31508011EC03B46DDE9066704443946304609F0AEFF6C
S31508011ED00AF05CFA0444DDE90423304639462C70DD
S31508011EE00AF02AFA4FF00103002800F0B180724A7D
S31508011EF088F80030D2E900010AF048FA6F4A704BB7
S31508011F00704E1060D3E900010AF040FA96F8009085
S31508011F106D4E6E4996F800806D4E6E4B96F800C070
S31508011F206D4E6E4A96F800E06D4E6E4C3778086035
S31508011F306D4E6E491B78127836782370096862707F
S31508011F4023460822002084F8029084F8038084F846
S31508011F5004C084F805E0A771E67102F0E3FE64495E
S31508011F602B7891F800806349634A91F800C0634968
S31508011F70237091F800E0624984F801800F7861497D
S31508011F8084F802C00E78604984F803E00D78454963
S31508011F90277191F80090116866712346082201207D
S31508011FA0A57184F8079002F0BDFE039B9AF802100A
S31508011FB01B7A564A5C1CE4B2022C28BF002400296D
S31508011FC02FD103993A48497A01700131C9B20229D8
S31508011FD028BF002152780A91002A7EF43AA84C4A71
S31508011FE0127802BB4B4A1278EAB9314B4A4A1B7836
S31508011FF0003318BF01231370FEF72BB8474B039321
S315080120001946DB7A002B3EF4D8AE0023CB72FEF7D5
S31508012010D4BE039B414A9B7A002BC6D000239372F8
S31508012020C3E75278D8E700333B4A18BF0123137038
S31508012030FEF70FB8294609F0F9FE32463B4609F084
S3150801204043FD374B01F1004283E80500FEF70CB961
S3150801205003464CE703461EE7324BD3E900672046A1
S31508012060294632463B460AF067F900283FF4D0AEC6
S3150801207026462F46CCE60346BAE6034673E6294BBF
S31508012080D3E900672046294632463B460AF054F909
S3150801209000283FF425AE26462F4621E603460FE6DD
S315080120A00346E2E54CBC0020580000202000002031
S315080120B000BC002048BB0020600000208CBB00202B
S315080120C0700000200ABB002098BB002060BB0020DE
S315080120D049BC002058BC002038BC002078BB002031
S315080120E064BB0020F806002004BB0020D4BB0020F6
S315080120F03ABC0020FCBA002068BB0020E9BB0020DE
S31508012100FABA0020B9BB002048BC002010BB002049
S315080121103000002069BC0020A6BB002030BB00208F
S3150801212028BB0020080000206EBC0020CB4BD3E959
S3150801213000672046294632463B460AF0FDF8002844
S315080121403FF450AD26462F464CE503463AE503468D
S315080121500DE5C24BD3E900672046294632463B4680
S315080121600AF0EAF800283FF4BFAC26462F46BBE43E
S315080121700346A9E403467CE4B84BD3E90067204645
S31508012180294632463B460AF0D7F800283FF42EACDA
S3150801219026462F462AE40346FFF7FDBB0346FFF70B
S315080121A0CFBBAE4BD3E900672046294632463B46AC
S315080121B00AF0C2F800283FF480AB26462F46FFF7FF
S315080121C07CBB0346FFF769BB0346FFF73BBBA34B43
S315080121D0D3E900672046294632463B460AF0ACF861
S315080121E000283FF4ECAA26462F46FFF7E8BA03462D
S315080121F0FFF7D5BA0346FFF7A7BA984BD3E90067A5
S315080122002046294632463B460AF096F800283FF40E
S315080122104FAA26462F46FFF74BBA0346FFF71ABAC7
S315080122200346FFF7ECB98E4BD3E9006720462946EA
S3150801223032463B460AF080F800283FF49DA9264617
S315080122402F46FFF799B90346FFF786B90346FFF705
S3150801225058B9834BD3E900672046294632463B469F
S315080122600AF06AF800283FF409A926462F46FFF71F
S3150801227005B90346FFF7F2B80346FFF7C4B8784B2A
S31508012280D3E900672046294632463B460AF054F808
S3150801229000283FF475A826462F46FFF771B803466E
S315080122A0FFF75EB80346FFF716B86D4BD3E900672B
S315080122B02046294632463B460AF03EF800283EF4B7
S315080122C0C7AF26462F46FEF7C3BF0346FEF7B0BF84
S315080122D00346FEF782BF624BD3E9006720462946CB
S315080122E032463B460AF028F800283EF433AF264624
S315080122F02F46FEF72FBF0346FEF71CBF0346FEF720
S31508012300EEBE574BD3E900892046294642464B463D
S315080123100AF012F800283EF49FAEA046A946FEF739
S315080123209BBE0346FEF788BE0346FEF75ABE4C4BD4
S31508012330D3E900892046294642464B4609F0FCFF67
S3150801234000283EF40BAEA046A946FEF707BE034693
S31508012350FEF7CEBD0346FEF7A0BD414BD3E90045C6
S315080123603046394622462B4609F0E6FF00283EF458
S3150801237046AD34463D46FEF742BD0123CB72FDF715
S31508012380E0BE294609F052FD4B46424609F09CFB40
S31508012390344BC3E90001FEF708BD294609F046FD9D
S315080123A04B46424609F090FB2F4BC3E90001FEF765
S315080123B0A8BC294609F03AFD3B46324609F084FB9A
S315080123C02A4BC3E90001FDF7FCBF294609F02EFD9A
S315080123D03B46324609F078FB254BC3E90001FDF778
S315080123E09ABF294609F022FD4B46424609F06CFB85
S315080123F0204BC3E90001FEF762B9294609F016FD2B
S315080124004B46424609F060FB1B4BC3E90001FEF748
S3150801241002B9294609F00AFD3B46324609F054FB42
S31508012420164BC3E90001FEF7A2B8294609F0FEFCDE
S315080124303B46324609F048FB114BC3E90001FEF75A
S3150801244042B8294609F0F2FC4B46424609F03CFBE4
S315080124500C4BC3E90001FEF700BC00BF08000020D1
S31508012460D000002040BB0020F0BB002070BB00203C
S3150801247090BB002040BC002050BB002060BC00205F
S3150801248018BB0020B0BB0020294609F0CFFC3B460B
S31508012490324609F019FBB24BC3E90001FEF786BBC8
S315080124A0294609F0C3FC3B46324609F00DFBAD4B04
S315080124B0C3E90001FEF714BB294609F0B7FC3B4600
S315080124C0324609F001FBA84BC3E90001FEF7B1BA90
S315080124D0294609F0ABFC3B46324609F0F5FAA34B0F
S315080124E0C3E90001FEF74EBA294609F09FFC3B46AF
S315080124F0324609F0E9FA9E4BC3E90001FEF7EBB94A
S31508012500294609F093FC4B46424609F0DDFA994BF8
S31508012510C3E90001FEF727B93046394608F0FCF849
S3150801252006460F46FEF7B2BA3046394608F0F4F8C1
S3150801253006460F46FEF753BA3046394608F0ECF818
S3150801254006460F46FEF7F4B94046494608F0E4F850
S3150801255080468946FEF7DEB83046394608F0DCF88B
S3150801256006460F46FEF781B9834B844A1878844B91
S315080125700D93844B0E93844B0F93844B0C93844B8E
S315080125800893844B0B920693FEF71EB930463946DB
S3150801259008F0C2F806460F46FDF76CBF40464946A5
S315080125A008F0BAF880468946FEF782BB4046494696
S315080125B008F0B2F880468946FEF725BB304639460B
S315080125C008F0AAF806460F46FEF7B7BA3046394666
S315080125D008F0A2F806460F46FDF773BE404649467F
S315080125E008F09AF880468946FEF740B840464946BB
S315080125F008F092F880468946FDF7E4BF3046394629
S3150801260008F08AF806460F46FDF788BF3046394670
S3150801261008F082F806460F46FDF7F2BD5E4A0D92AE
S315080126205E4A0E925E4A0F925E4A0B925E4A5F4B73
S315080126300C925F4A08925F4A1B780692FDF7B2BD73
S315080126404046494608F068F880468946FEF784BB45
S315080126503046394608F060F806460F46FDF787BE4C
S315080126603046394608F058F806460F46FEF707BCC5
S315080126702046294608F050F804460D46FFF7FFBBE9
S315080126802046294608F048F804460D46FFF75FBB81
S315080126902046294608F040F804460D46FFF7D9BA00
S315080126A02046294608F038F804460D46FFF753BA7E
S315080126B02046294608F030F804460D46FFF7CDB9FD
S315080126C02046294608F028F804460D46FFF72CB996
S315080126D02046294608F020F804460D46FFF7A6B815
S315080126E02046294608F018F804460D46FFF720B893
S315080126F02046294608F010F804460D46FEF773BF32
S315080127002046294608F008F804460D46FEF7EDBEB0
S315080127102046294608F000F804460D46FEF767BE2E
S315080127202046294607F0F8FF04460D46FEF7C7BDC1
S315080127302046294607F0F0FF04460D46FEF741BD3F
S315080127402046294607F0E8FF04460D46FEF7BBBCBE
S315080127502046294607F0E0FF04460D46FEF735BC3C
S31508012760C8BB002050BC002080BB002058BB0020FD
S31508012770E0BB0020C0BB00209ABB00206ABC002039
S3150801278039BC002005BB002099BB00200CBB0020EA
S31508012790D8BB002008BB002006BB00204ABC00208D
S315080127A0FDBA00200BBB002088BB002089BB002096
S315080127B06CBB0020A5BB0020F0B5324D324C334F1F
S315080127C0334E87B01823082140203B6033602B60C5
S315080127D0236001F0E3FF002002F060FC012002F013
S315080127E05DFC0121472004F07BF90221472004F012
S315080127F025F90221092004F021F92968002002F0AF
S3150801280095FC2168012002F091FC0221082004F0C0
S3150801281015F94FF4007000F0B1FA42F2107000F0A9
S31508012820A1FA4FF47A7000F029FA002318466A468D
S315080128301849009301938DF8083002F03DF80128F4
S3150801284004D040F69751144800F00CFD002303AA62
S3150801285010490393012004938DF8143002F02CF8E3
S31508012860012804D04FF45A610B4800F0FBFC02F032
S3150801287081FD02F089FD18232B6023603B603360DC
S3150801288007B0F0BDA8BB002034BC0020D4BB002093
S3150801289068BB002048E8010048C00008454B1B7882
S315080128A0012B00D070472DE9F041434A1378012BDB
S315080128B096B005D0414803F087FA16B0BDE8F08115
S315080128C03F4E0024334614705A78E5B203331AB1E1
S315080128D001340A2CF8D125463A4803F061FD4FF038
S315080128E080603949394A07904FF480634FF4006094
S315080128F008914FF4005100270B94099201244FF4D3
S3150801290080720D930E904FF480330F912D481092DB
S3150801291007A911930A970C971297CDE9147713947F
S3150801292003F0D4FD2146274803F0FCFD03F0C8F95E
S3150801293001A9224801978DF808408DF80970CDE95B
S31508012940037705978DF8185003F0C8F9BDB1013D15
S31508012950EDB2DFF88080194F023504EB44023244A8
S31508012960032312F8032C02EB420208EB82013846D4
S31508012970E2B2897A013403F0E1F9AC42EDD10020E3
S3150801298003F0DAFD012003F0E5FD012003F0F0FD77
S315080129900F4A0A48136843F400531360012103F0F0
S315080129A023FA0121054803F015FA0121034803F02A
S315080129B0BBF97FE7DD000020DC0000200022014092
S315080129C000070020106402404C2201402007002025
S315080129D00070004068C000082DE9F04FA34B1B6842
S315080129E097B0002B00F0F180A14B019303F11E096A
S315080129F09F4DCDF8009004E0009B03359D4200F001
S31508012A00B880AB78002BF7D06B78002BF4D0994BB4
S31508012A101B78002BF0D0954A95F800801768013B82
S31508012A20DBB207F14C064C2212FB0369AA4604E005
S31508012A30B145374600F097804C3639784145F7D18C
S31508012A40019B002404E001340A2C03F1030305D099
S31508012A505A78012AF7D11A788A42F4D14C22394692
S31508012A6003A809F0B9FCB86C049A7D6CC30602F098
S31508012A7078418B4200F08E804FF0000C9B4600E0B7
S31508012A808C460CF10101C9B216AB03EB810353F86D
S31508012A90483C03F0784EF345F2D10CF1020C0B29B0
S31508012AA09E465FFA8CFC5B4669D90E2910D80FFA47
S31508012AB08CF103AA02EB810100E094464A6841F8C9
S31508012AC0042BBCF10E0F0CF10102D2B2F5D9049A0E
S31508012AD0694931F814C022F07842CCF30B0C6FF037
S31508012AE078419445139160D900240134E4B216AAB9
S31508012AF002EB8402A64652F8482C22F07842944505
S31508012B00F3D80B2C38D8032C0F9A98BF079922F0C3
S31508012B107842A5EB020296BF21F078410CEB02053B
S31508012B208D18C4F10E0412AAE4B2A2EB840413AA06
S31508012B3052F8041D51609442FAD1441C16AA102C6D
S31508012B4002EB8E0E28BF002443EA0C03384603A97C
S31508012B504C224EF8483CCDE9145409F03DFCB145E8
S31508012B6037467FF469AF5546009B03359D427FF48E
S31508012B7048AF17B0BDE8F08F0E2CD2D9DDE7109A11
S31508012B80032922F0784215441AD92EF0784EA5EB7E
S31508012B900E058CE7109A089922F07842154421F01F
S31508012BA078416D1A4FF0010C81E70F9A079922F0C7
S31508012BB07842AD1A21F0784100240D44A646B0E7C3
S31508012BC0089921F078416D1A71E72A4E337803EB9B
S31508012BD0C30203EB4203980000F078F9234B8046C1
S31508012BE01860234B002837D01A4601931546034629
S31508012BF002F11E0914AC212703E003354D453FF4C4
S31508012C00F7AEAA78002AF8D095F800C004A90022E0
S31508012C1041F8042BA14202F10062F9D14C2203A921
S31508012C2018468DF80CC0149709F0D6FB327802EBDA
S31508012C30C201034602EB41024C3308EB820293427E
S31508012C40DBD90122142142F2030002F08FFD074B62
S31508012C50186800F0A7F9CBE60122142142F2020016
S31508012C60019303F11E0902F081FDC1E63407002034
S31508012C70000700200200002020070020034A044B19
S31508012C80A2FB002040091860704700BF1F85EB5161
S31508012C90D800002000B583B000F07EFD02AC084ED6
S31508012CA044F8040D074D03E02968204600F0ACFE00
S31508012CB0FFF7F4FD3378002BF6D0FFF78DFEF3E727
S31508012CC002000020D800002008B5FFF7E7FD044BF5
S31508012CD01B781BB1BDE80840FFF77EBE08BD00BFE3
S31508012CE00200002000B583B000F056FD02AC054D88
S31508012CF044F8040DFDF79CF92968204600F084FE86
S31508012D00F8E700BFE000002010B584B0002400F009
S31508012D103FF802F009FDFDF77DF9FFF7D5FF05221A
S31508012D2023460092CDE902440194802208490948C4
S31508012D3000F054FB084B039406211A8807480091B2
S31508012D40029401942346064900F048FB04B010BDDD
S31508012D50E0C00008952C0108E4000020E52C0108D4
S31508012D603CC00008034A044BA2FB00204009186036
S31508012D70704700BF1F85EB51E000002080087F28BF
S31508012D80024B96BF802218801A807047E400002003
S31508012D9000F000B8074BC3F1006101F5004103F5E6
S31508012DA000605A5C03F8012B8342FAD1024B0022D8
S31508012DB01A7070473C07002038070020C1F50063E8
S31508012DC00133984218DA0144884215DADFF834C02B
S31508012DD0F0B40B4C9CF800600025FF27225CFF2A03
S31508012DE000F1010302D0012527542E4698B28842E4
S31508012DF0F4DB15B9F0BC704770478CF80060F9E749
S31508012E003C0700203807002040F2FC73984210B5B1
S31508012E1002D90024204610BD044600F09DF9034B53
S31508012E201C5900F09BF9204610BD00BF3C07002045
S31508012E30F8B540F2FC73984200D9F8BD0446094E2C
S31508012E400D4600F089F9375900F088F9BD42F4D0EA
S31508012E5000F082F9355100F081F9034B01221A700D
S31508012E60F8BD00BF3C0700203807002010B4154AFA
S31508012E7000E01A4613688342FBD351685418A042EE
S31508012E800AD041684418A3420DD0904203605DF808
S31508012E90044B18BF10607047406801441046441837
S31508012EA0A3425160F1D1084C2468A342EDD0D3E97D
S31508012EB0003490422144036041605DF8044B18BF19
S31508012EC0106070473C8F0020E80000202DE9F04192
S31508012ED0044600F059FC2E480268002A39D02D4BC9
S31508012EE01F683C422FD174B304F108014B071CBF7C
S31508012EF021F00701083131B3DFF8A080D8F8006066
S31508012F008E4220D3244D2C6803E0226822B125463F
S31508012F10144663688B42F8D30268A24213D022682A
S31508012F2028682A605A1A102A00F1080528D8F61ABC
S31508012F3000223B43C4E90023C8F8006000F0F0FC16
S31508012F402846BDE8F081002500F0EAFC2846BDE8E0
S31508012F50F081124F124B396823F0070347F6F075D3
S31508012F605E190839726039605A510A490660C3E91F
S31508012F700065094D4FF000472B606A600F60B0E7A6
S31508012F80631818465A606160FFF770FF6368CEE7F9
S31508012F90E8000020EC0000203C8F0020F000002013
S31508012FA0440F002000283AD038B51D4D50F8043C8E
S31508012FB02A681342044610D050F8081CD9B14FF4B8
S31508012FC08671184800F04EF92A6854F8043C1342F1
S31508012FD002D054F8081C71B138BD40F20B111148E2
S31508012FE000F040F954F8083C002BE8D12A6854F857
S31508012FF0043C1342F0D023EA020344F8043C00F0EF
S31508013000C3FB094A54F8043C1168A4F108000B44AF
S315080130101360FFF72BFFBDE8384000F081BC70470D
S31508013020EC000020F4C00008F0000020014B1868ED
S31508013030704700BFF00000200C490D484B6830B4BA
S31508013040C3F5C332A032642303FB02F3094D0A4CCC
S315080130505B09A5FB03230278C3F3C7139A422370BE
S3150801306038BF037000234B6030BC70474C8F00207B
S31508013070458F0020C55A7C0A448F002070B50D463D
S31508013080064609F09DFA0446284609F099FA84424B
S3150801309001D0002070BD6CB132782B789A42F8D1F4
S315080130A0002303E0F15CEA5C9142F2D10133DBB221
S315080130B09C42F7D8012070BD00B51D4D1D481E4B19
S315080130C083B000240093012204602C706C602C727A
S315080130D0234642F210711948194D00F0DBFE2860AB
S315080130E0F0B10446174A184B002515701D7000F0FB
S315080130F053FB009502462B462046294600F0F0FE72
S31508013100012805D0012214214FF4805002F02EFB2C
S315080131100E4B00221A60FFF7F7FD00F0FDFAFEE7F5
S31508013120012214214FF4805002F020FB2C68D9E7C4
S315080131304C8F0020588F00203930010818C100082B
S31508013140488F0020448F0020458F0020F40000207E
S31508013150704700BF704700BF02F09CBC02F0C0BCBC
S3150801316003F0AABB014B1878704700BF448F0020B3
S31508013170FFF75CBF70B5054602F08CFC114B1C6865
S315080131808CB106462946A068FFF778FF012805D1C4
S315080131900DE0A068FFF772FF012808D024692946C7
S315080131A0002CF6D1304602F09BFC204670BD6468BF
S315080131B0304602F095FC2046002CF7D000F070FD51
S315080131C0800070BD588F00202DE9F04180461420FB
S315080131D00F461446FFF77AFE054628B30023C5E9CC
S315080131E00343C5E9018702F055FC134E074602F071
S315080131F051FC346802460CB90DE01C462369002BC4
S31508013200FBD1104602F06CFC256138462C60BDE8FE
S31508013210F04102F065BC02F063FC2C60356038466B
S31508013220BDE8F04102F05CBC012214214FF4805044
S3150801323002F09CFAD2E700BF588F0020074A13888C
S3150801324001339BB2092B138005D905490B68002068
S3150801325001330B60108003F051BA00BFF80000205B
S31508013260F4000020012214214FF4805002F07EBAA6
S31508013270054B1A78012A00D070471A7A002AFBD121
S315080132805A6801325A6070474C8F002008B502F01F
S3150801329001FC044B0121002219701A72BDE808408D
S315080132A002F01EBC4C8F0020014B00221A70704799
S315080132B04C8F002008B5034C2368012BFDD902F079
S315080132C0DDFBF9E7648F00200D4B0E4A1968126879
S315080132D0486082420DD80C4A10B504461068196830
S315080132E0043104F0A3FB094B1A68A24288BF1C608B
S315080132F010BD074A10681968043104F097BB00BF6E
S31508013300FC000020240100205C8F00201801002009
S31508013310608F00202B4B2DE9F0410022DFF8B880A1
S31508013320294E1A60D8F8002033689A4247D0D8F84F
S315080133300020D8F8003012681B6B9A4233D9234C07
S31508013340234D236803EB830355F823309BB9214F9B
S3150801335008E02368013B2360236803EB830355F8E0
S31508013360233043B92368002BF3D140F25271384612
S31508013370FFF778FFEDE7236803EB83039B00E91862
S3150801338008334A6852684A601D44AA4204BF526813
S315080133904A60D368C8F80030D8F8002033689A42E2
S315080133A009D0BDE8F081D8F80000D8F8001034310A
S315080133B004F0A8FAC3E7BDE8F041FFF767BFFFF7D6
S315080133C073FFB4E728010020140100201001002032
S315080133D0648F00202CC10008FC0000202DE9F84F5D
S315080133E0DDF830B08A4691469846DDE90A57064621
S315080133F0002800F0A7800D2D00F287804820FFF7EE
S3150801340065FD0446002800F08C804FEA8909BBF166
S31508013410000F00F09D80C0F830B04A46A5215846F5
S3150801342009F074F8236BA9F10409994429F00709ED
S315080134300AF1FF330AF10F0104F1330201E08B426D
S3150801344007D013F9010F02F8010F93F900000028BC
S31508013450F5D10D2D4FF00003AB4604F1040A28BF40
S315080134604FF00D0B84F843305046C4F82CB0C4F81D
S3150801347044B004F0C7FA04F1180004F0C3FACBF11A
S315080134800E03A3612461646242463146484602F04E
S31508013490D1FA206007B13C6002F014FB444A454E5C
S315080134A01368013313603368002B3ED0424F3B68E3
S315080134B01BB3DFF824814148E26A036801330360DC
S315080134C004F134012046FFF77FFE3D4BE06A1A6896
S315080134D0904288BF186000EB800008EB80005146D7
S315080134E004F094FA02F000FB3B681BB13368DB6A0F
S315080134F0AB4222D30120BDE8F88F3368DFF8D880C4
S31508013500DB6AAB4298BF3460D5E740F2ED112D482E
S31508013510FFF7A8FE4820FFF7D9FC044600287FF4E8
S3150801352074AF4FF0FF30BDE8F88F34601368DFF8E9
S31508013530A880012B1AD0204FBDE702F09FFA01207F
S31508013540BDE8F88F4FF4F6711E48FFF78BFE52E778
S315080135504846FFF7BBFC8346206300287FF45DAF2E
S315080135602046FFF71FFD4FF0FF30C4E7474608F531
S315080135708C793846143704F039FA4F45F9D1DFF812
S315080135805CB0DFF85C900C4F584604F02FFA4846B9
S3150801359004F02CFA0C4804F029FA0C4804F026FA2F
S315080135A00B4A0C4BC2F800B0C3F8009083E700BF82
S315080135B000010020FC000020200100200C01002051
S315080135C0100100202CC10008A4900020B89000200A
S315080135D05C8F0020608F0020648F00207C90002083
S315080135E090900020F8B50446194E02F06BFA1CB308
S315080135F0251D284604F034FAA36A1BB104F1180004
S3150801360004F02EFA134F2946384604F0FFF902F062
S315080136106BFA3368A34200D0F8BD0F4B1B687BB920
S315080136200E4A39681268914208D00D4B1B685BB186
S315080136300C4B01221A60F8BD3468D9E73360F8BD2E
S31508013640BDE8F84002F01ABABDE8F840FFF762BED5
S31508013650FC000020B8900020200100200001002075
S31508013660080100202801002010B5044668B10A4B5C
S3150801367062699A4201D0002010BDA06A074B9842A0
S31508013680F9D0B0FA80F0400910BD40F2594104481A
S31508013690FFF7E8FDEBE700BFB8900020A4900020F3
S315080136A02CC1000888B170B5174D2B6883420BD021
S315080136B0044602F007FA2046FFF7D6FF012809D08B
S315080136C0BDE8704002F010BA70BD40F27A410F4869
S315080136D0FFF7C8BD261D304604F0C2F90C4AE36A55
S315080136E011680C488B4288BF136003EB830300EB18
S315080136F08300314604F08AF92B68E26ADB6A9A424A
S31508013700DED302F0BBF9DBE7FC0000202CC1000880
S3150801371010010020648F002030B585B00024144ABA
S315080137200192CDE9024400942346802211491248A8
S31508013730FFF754FE01280BD005460DB105B030BD83
S315080137400E4840F21F5105B0BDE83040FFF78ABD6B
S3150801375000F07CFB01280546EFD102F09BF9084AE7
S31508013760084B15601C6005B0BDE8304002F024BA6C
S315080137701401002024C10008B53201082CC1000833
S315080137802001002024010020024A13680133136036
S31508013790704700BF0801002010B502F093F9034BEA
S315080137A01C6802F0A1F9204610BD00BF24010020C3
S315080137B02DE9F04F4E4B1B6883B0002B7BD14D4B47
S315080137C01A6801321A601F680FB34B4B0193019BAC
S315080137D01B68BB4237D9DFF83C81DFF83C910025ED
S315080137E0D9F80030454ADB6A126803EB830358F8B7
S315080137F02330022B28BF0125002A64D0404B1B68C1
S31508013800002B0CBF2846012003B0BDE8F08F3D4EC2
S3150801381033681B68002B64D13B4B31683B4A1868F7
S315080138203060196013680133136033681B68002B15
S315080138304CD1314B01931A464FF0FF331360019B6C
S315080138401B68BB42C7D82F4EDFF8C880DFF8C8907F
S31508013850DFF8C8A0002525E03368DB68DC68636803
S3150801386004F1040B9F42584638D304F0F9F8A36AC9
S3150801387004F118000BB104F0F3F8E36ADAF8002052
S3150801388003EB83009342594608EB800088BFCAF8C8
S31508013890003004F0BBF8D9F80030E26ADB6A9A42D4
S315080138A028BF012533681B68002BD5D1019A4FF033
S315080138B0FF33136094E7114A136801331360002537
S315080138C0FFF7BCFC9AE7FFF7B9FC97E733680A4AA2
S315080138D0DB680192DB685B68136078E7019A13601D
S315080138E07EE740F25B610A48FFF7BCFC94E700BF3C
S315080138F008010020240100201801002004010020ED
S31508013900280100205C8F0020608F00201C01002008
S315080139102CC10008648F0020FC0000201001002043
S315080139202DE9F0472F4C2368002B51D002F0CAF835
S315080139302368013B23602368002B43D12A4B1B686C
S31508013940002B3FD0DFF8B4A0284E294FDFF8B090FE
S31508013950DFF8B0801EE0F368DC68251D04F1180065
S3150801396004F07EF8284604F07BF8E36A3A6803EB2C
S3150801397083009342294609EB800088BF3B6004F027
S3150801398045F8D8F80030E26ADB6A9A4224BF012377
S31508013990CAF800303368002BDDD1164C23686BB1A9
S315080139A023685BB10125FFF703FF08B1CAF8005088
S315080139B02368013B23602368002BF4D1DAF8004021
S315080139C0012C0BD0002402F08FF82046BDE8F087C1
S315080139D040F25A510848FFF745FCA7E702F04EF8AE
S315080139E0F1E700BF0801002000010020A490002093
S315080139F010010020040100202CC100082801002024
S31508013A00648F0020FC00002038B50C4605460028C6
S31508013A1036D03CB31F4920480A682B6801320A6030
S31508013A2001681C192CBF012000208B4222460DD8A3
S31508013A3060B32C60194B1868043004F011F820465D
S31508013A40FFF742FCFFF76CFF40B138BDB0B1A142A8
S31508013A502C60EFD3FFF764FF0028F6D1BDE83840A4
S31508013A6002F00CB840F2BF210D48FFF7FBFB0949EC
S31508013A7009480B682A6801330B6003682A60E1E785
S31508013A8040F2BE210648FFF7EDFBC2E7A142D0D3BB
S31508013A90F4E700BF0801002024010020FC000020F3
S31508013AA02CC10008044B1B680BB9FFF733BC034B49
S31508013AB001221A60704700BF080100202801002072
S31508013AC070B50E460546C8B10F4C2168284618310F
S31508013AD003F0ACFF2068043003F0C2FF731C06D064
S31508013AE00A4B18683044BDE87040FFF7EDBB216802
S31508013AF007480431BDE8704003F088BF40F265719C
S31508013B000448FFF7AFFBDFE7FC0000202401002093
S31508013B10B89000202CC1000870B50E46054680B144
S31508013B200B4C21682846183103F070FF20680430D1
S31508013B3003F096FF074B18683044BDE87040FFF75D
S31508013B40C3BB40F29B710448FFF78CFBE8E700BF53
S31508013B50FC000020240100202CC1000838B5C368E8
S31508013B60DC684CB304F11805284603F079FF154BB8
S31508013B701B68E3B9251D284603F072FF124AE36A5A
S31508013B80116812488B4288BF136003EB83032946E9
S31508013B9000EB830003F03AFF0D4BE26A1B68DB6A10
S31508013BA09A4223BF0B4B01201860002038BD2946D5
S31508013BB0094803F02BFFEFE740F2D1710748FFF7F9
S31508013BC051FBCFE70801002010010020648F002077
S31508013BD0FC00002028010020A49000202CC1000828
S31508013BE010B5044630B1064A064B12681B68C4E98B
S31508013BF0002310BD40F2F7710348FFF733FBF2E7E4
S31508013C001C010020240100202CC10008F8B50D462E
S31508013C10044658B38DB301F055FF2B681A4A581C50
S31508013C2011681ED0DFF868C0D4E90060DCF80070BE
S31508013C30BE4201D081420FD20F1ABB420CD95B1A80
S31508013C40DCF80010126803442B600025C4E9001251
S31508013C5001F04AFF2846F8BD012501F045FF28462F
S31508013C60F8BD002501F040FF2846F8BD40F60101E0
S31508013C700648FFF7F7FA002DCDD140F602010348B1
S31508013C80FFF7F0FAC7E700BF240100202CC100089E
S31508013C901C010020014B01221A60704728010020EF
S31508013CA068B1036B1A78A52A4FF000000FD113F8F3
S31508013CB0012F0130A52A80B2F9D080087047044B3C
S31508013CC01868036B1A78A52A4FF00000EFD07047E1
S31508013CD0FC000020014B1868704700BFFC0000205B
S31508013CE0044B186828B1044B1B68002B0CBF012034
S31508013CF0022070472001002008010020B8B1F8B55C
S31508013D00164DC36A2A68D26A93420FD22A68144E9C
S31508013D10D26A416903EB830306EB8303C2F10E0200
S31508013D209942826104D02B68DB6AC362F8BD704789
S31508013D30071D0446384603F093FE2A68094BD06AE4
S31508013D401A68E062904200D9186000EB800006EB21
S31508013D5080003946BDE8F84003F058BEFC00002053
S31508013D60648F002010010020F0B138B5C26A436C97
S31508013D709A4218D0051D0446284603F071FE0B4ADF
S31508013D80636C1168E362C3F10E008B42A0610848B7
S31508013D9088BF136003EB8303294600EB8300BDE864
S31508013DA0384003F033BE38BD704700BF100100200C
S31508013DB0648F0020F8B50F4C01F084FE25681DB10B
S31508013DC0BDE8F84001F090BE0B4F0C4E384603F0A3
S31508013DD00DFE304603F00AFE094A0A4B17600C210C
S31508013DE02A4606201E6003F017FF2060BDE8F8404A
S31508013DF001F07ABE30010020D4900020E89000201E
S31508013E00CC900020D0900020914208B50061416015
S31508013E1005D88169D21A8A420CD3012008BD9A4273
S31508013E2001D29942F9D2074B011D186803F0FEFD2C
S31508013E30002008BD044B011D186803F0F7FD00209A
S31508013E4008BD00BFCC900020D090002000B585B0F9
S31508013E50FFF7B0FF0B4B1B685BB100230222CDE9CC
S31508013E600023CDE90233802207490848FFF7B6FA4D
S31508013E7020B90748E021FFF7F5F9002005B05DF8FC
S31508013E8004FB00BF3001002074C10008BD3F0108D2
S31508013E9050C100082DE9F0410D46B1B180462820F0
S31508013EA017461E46FFF712F8044658B1FFF782FF78
S31508013EB0069BC4F80080C4E9065726626362201D82
S31508013EC003F0A0FD2046BDE8F0814FF48471034854
S31508013ED02C46FFF7C7F92046BDE8F08150C1000816
S31508013EE070B5134E346884B064B11D46CDE901122C
S31508013EF0039053B11A462046002301A903F04CFF4B
S31508013F0004B070BD204604B070BDFFF7E9FE012874
S31508013F1007D030682B462A4601A903F0A3FE04B050
S31508013F2070BD2B463068089A01A903F09BFEE7E7A6
S31508013F30300100202DE9F0471D4DDFF87C8082B065
S31508013F404FF0000A0DE0DB68DC681F6804F104091C
S31508013F50484603F085FD636A20469847E369012BC5
S31508013F600AD02B681A68002AEDD1124A116829600D
S31508013F70136002B0BDE8F087A6693E440023B74244
S31508013F8019463A46204606D266602461286849469B
S31508013F9003F04CFDE5E7CDF800A0FFF7A1FF0028E7
S31508013FA0DFD140F282214046FFF75CF9D9E700BF2D
S31508013FB0CC900020D090002050C100082DE9F04F88
S31508013FC0DFF874A15B4FDFF87481DFF8749187B06D
S31508013FD04FF0000BDAF800301D68002D6DD0DB6854
S31508013FE01D68FFF7D1FBFFF7D7FB3B688342044601
S31508013FF06BD88542386073D9291BD8F8000004F0BC
S315080140003BF8FFF78DFC002867D000231A4603A961
S31508014010D8F8000003F02AFF0028DBD0059C636965
S3150801402013B1201D03F01CFDFFF7B6FB3B68984250
S31508014030054627D3039E3D60022E29D0032E31D093
S31508014040002EE2D1049BA1692A4619442046FFF7AE
S31508014050DBFE0128D9D1636A20469847E369012B1B
S31508014060D3D1A369049A00961A44204633463146A9
S31508014070FFF736FF0028C8D140F22F214846FFF73F
S31508014080F1F8C2E7FFF756FF039E3D60022ED5D130
S315080140900499A16151B1294420462B462A46FFF7C6
S315080140A0B3FEB2E72046FEF77DFFAEE74FF40F7188
S315080140B04846FFF7D7F8A169EDE7FFF765FBFFF774
S315080140C06BFB3B689842044605D2FFF733FF3C6019
S315080140D0FFF726FC99E73C608EE701F0CFFC94E7F1
S315080140E0FFF71EFCDAF80030DB68DE68301D03F0E6
S315080140F0B7FCF369012B03D0736A3046984784E706
S31508014100B169224629442B463046FFF77DFE012830
S31508014110F2D10023CDF800B02A4619463046FFF7FA
S31508014120DFFE0028E8D14FF4AD714846FFF79AF84B
S31508014130E2E700BF2C010020CC90002030010020CE
S3150801414050C100082DE9F043404E414D414FDFF87B
S315080141500891DFF8088189B000234FF0FF3201A9E1
S31508014160306803F083FE012805D00122142142F2AA
S31508014170081001F0FBFA9DF80440012C05D901222B
S31508014180142142F20C1001F0F1FA2B5D012BE3D157
S315080141909DF80530032B51D8DFE803F03F241302BD
S315080141A09DF8043057F833201AB1012090479DF83D
S315080141B0043007EBC3035B68002BCDD00120984779
S315080141C0CAE79DF8043057F833201AB10020904702
S315080141D09DF8043007EBC3035B68002BBCD00020B5
S315080141E09847B9E79DF8043058F8334044B1079B1E
S315080141F09DF8101003980DF11102A0479DF804309F
S3150801420008EBC3035C68002CA6D0079B9DF8101029
S3150801421003980DF11102A0479EE79DF8043059F85D
S3150801422033201AB1039890479DF8043009EBC3036C
S315080142305B68002B90D0039898478DE701221421DB
S3150801424042F2091001F092FA86E700BF3091002088
S315080142502C910020FC9000201C9100200C9100203C
S315080142602DE9F047414C424D424FDFF80C818CB0A5
S31508014270002600234FF0FF3206A9206803F0F6FD59
S31508014280012805D00122142142F2071001F06EFA25
S315080142909DF81830012B41D89DF82020082A43D8CB
S315080142A0EB5C002B40D0DDF81C908DF80E2019F040
S315080142B0804348D18DF80D3072B10DF12203013AD0
S315080142C053FA82F20DF10F010DF1210313F8010BD7
S315080142D001F8010B9A42F9D14B46002B3ADBCDE99D
S315080142E001368DF80C60CDF81C90FEF735FF9DF868
S315080142F0183003EB8303824601A957F8330001F00E
S3150801430095FE04282ED09DF8183003EB4303034489
S31508014310504648F82390FEF721FFAAE70122142107
S3150801432042F20C1001F022FA0123002206A92068A4
S3150801433003F098FC00289CD10122142142F20410B2
S3150801434001F014FA95E702238DF80D3029F0804320
S31508014350002BC4DA23F000430422CDE901638DF86A
S315080143600C20C0E75046FEF7F9FEDDE74491002030
S315080143702C910020C8C1000850910020F0B500EB2F
S315080143808002174B53F8325089B004460026284656
S315080143904FF48061009601F04DFF012802D0009884
