S02B00002E2E2F48414E636F6465725F453430375F5454415F436F6E74726F6C6C65725F76345F372E73726544
S315080040006CD900202DA8020800000000000000005E
S315080040100000000000000000000000000000000092
S315080040200000000000000000000000001D760208E5
S315080040300000000000000000B976020809770208AF
S315080040400000000000000000000000000000000062
S315080040500000000000000000000000000000000052
S3150800406000000000F98302080000000000000000BC
S315080040700000000000000000000000000000000032
S31508004080000000000000000000000000456A020869
S31508004090FD690208216A0208696A02080000000030
S315080040A0E5830208D1830208BD830208AD830208AE
S315080040B099830208858302087183020800000000BC
S315080040C000000000000000000000000000000000E2
S315080040D000000000FD8D0208158E02082D8E0208CC
S315080040E00000000000000000F58E02080000000035
S315080040F05D8302084983020839830208000000002C
S31508004100000000005D8E02080000000000000000AC
S315080041100000000000000000000000000000000091
S31508004120000000000000000000000000618E020888
S31508004130000000002984020800000000D56A020871
S315080041408D6A0208B16A0208F96A0208258F020810
S31508004150000000000000000000000000458E020874
S315080041600000000000000000000000000000000041
S315080041700000000000000000000000000000000031
S311080041800000000000000000EE11AA5527
S3150800C000000000000000000000000000000044409E
S3150800C0100000000000004640000000000000474005
S3150800C02000000000000048400000000000004940F1
S3150800C0300000000000004A400000000000005740D1
S3150800C04000000000000058400000000000005940B1
S3150800C05000000000008061400000000000C0614050
S3150800C06000000000000062400000000000806240FE
S3150800C07000000000008067400000000000006840E3
S3150800C08000000000008068400000000000006940D1
S3150800C09000000000008069400000000000006A40BF
S3150800C0A000000000000000000000000000004440FE
S3150800C0B00000000000004640000000000000474065
S3150800C0C00000000000004840000000000000564044
S3150800C0D000000000008056400000000000005740A5
S3150800C0E000000000008060400000000000C06040C2
S3150800C0F00000000000006140000000000080614070
S3150800C100000000000000624000000000008062405D
S3150800C1100000000000806740000000000000684042
S3150800C1200000000000006D400000000000007140A3
S3150800C13000000000008073400000000000C073404B
S3150800C1400000000000D073400000000000F07340BB
S3150800C15000000000000074400000000000807640E7
S3150800C1600000000000A076400000000000C07640F5
S3150800C1700000000000007740000000000020774023
S3150800C1800000000000000000000000000000F03F72
S3150800C190000000000000F03F000000000000F03F33
S3150800C1A0000000000000F03F000000000000F03F23
S3150800C1B00000000000000000000000000000F03F42
S3150800C1C0000000000000F03F000000000000000032
S3150800C1D0000000000000F03F000000000000F03FF3
S3150800C1E0000000000000F03F000000000000000012
S3150800C1F0000000000000F03F000000000000F03FD3
S3150800C200000000000000F03F000000000000F03FC2
S3150800C210000000000000F03F000000000000F03FB2
S3150800C2200000000000000000000000000000F03FD1
S3150800C230000000000000F03F000000000000F03F92
S3150800C2400000000000000000000000000000F03FB1
S3150800C250000000000000F03F0000000000000000A1
S3150800C260000000000000F03F000000000000F03F62
S3150800C270000000000000F03F000000000000F03F52
S3150800C280000000000000F03F000000000000000071
S3150800C290000000000000F03F000000000000000061
S3150800C2A0000000000000F03F000000000000000051
S3150800C2B0000000000000F03F000000000000F03F12
S3150800C2C0000000000000F03F000000000000F03F02
S3150800C2D00000000000000000000000000000F03F21
S3150800C2E0000000000000F03F000000000000F03FE2
S3150800C2F0000000000000F03F000000000000F03FD2
S3150800C3000000010101000100010100000001000117
S3150800C31000000000004077400000000000C07640A2
S3150800C32000000000000061400000000000004640D8
S3150800C33000000000000048400000000000004440E3
S3150800C3400000000000807640000000000080604089
S3150800C350000000E09AE6AD3F000000000000304013
S3150800C360000000000000B03F000000000000304060
S3150800C370000000000000B03F000000000000304050
S3150800C380000000000000B03F000000000000304040
S3150800C390000000000000B03F000000000000B03FB1
S3150800C3A00000000000003040000000000000B03F20
S3150800C3B00000000000003040000000000000B03F10
S3150800C3C00000000000003040000000000000B03F00
S3150800C3D0000000000000304000000000000062403D
S3150800C3E00000000000006A4000000000000046400F
S3150800C3F0000000000000484000000000000059400E
S3150800C4000000000000004A400000000000005840FC
S3150800C41000000000000044400000000000006140E9
S3150800C4200000000000407740000000000000574070
S3150800C43000000000000046400000000000004840E0
S3150800C44000000000000044400000000000005640C4
S3150800C450000000000000903F00000000000050406F
S3150800C460000000000000C03F00000000000020405F
S3150800C470000000000000903F00000000000050404F
S3150800C4800000000000004A400000000000006A406A
S3150800C4900000000000004640000000000000484080
S3150800C4A000000000000044400000000000806240D8
S3150800C4B000000000008061400000000000006240AB
S3150800C4C000000000004077400000000000006840BF
S3150800C4D00000000000806D400000000000C07340AE
S3150800C4E00000000000C07640000000000000614027
S3150800C4F00000000000005740000000000000464011
S3150800C50000000000000074400000000000004840E1
S3150800C5100000000000004440000000000080674062
S3150800C5200000000000006D4000000000008076401A
S3150800C5300000000000807340000000000000564024
S3150800C5400000000000806040000000000000F03F8E
S3150800C550000000000000F03F000000000000F03F6F
S3150800C560000000000000F03F000000000000F03F5F
S3150800C570000000000000F03F000000000000F03F4F
S3150800C580000000000000F03F000000000000F03F3F
S3150800C590000000000000F03F000000000000F03F2F
S3150800C5A0000000000000F03F000000000000F03F1F
S3150800C5B0000000000000F03F000000000000F03F0F
S3150800C5C0000000000000F03F000000000000F03FFF
S3150800C5D0000000000000F03F000000000000F03FEF
S3150800C5E0000000000000F03F000000000000F03FDF
S3150800C5F0000000000000F03F000000000000F03FCF
S3150800C600000000000000F03F00000000000030407D
S3150800C610000000000000B03F0000000000003040AD
S3150800C620000000000000B03F00000000000030409D
S3150800C630000000000000B03F00000000000030408D
S3150800C640000000000000B03F00000000000030407D
S3150800C650000000000000B03F00000000000030406D
S3150800C660000000000000B03F00000000000030405D
S3150800C670000000000000B03F00000000000030404D
S3150800C680000000000000B03F00000000000050401D
S3150800C690000000000000903F00000000000050402D
S3150800C6A0000000000000903F00000000000020404D
S3150800C6B0000000000000C03F0000000000003040FD
S3150800C6C0000000000000B03F0000000000003040FD
S3150800C6D0000000000000B03F0000000000003040ED
S3150800C6E0000000000000B03F0000000000003040DD
S3150800C6F0000000000000B03F000000E09AE6AD3FF1
S3150800C700000000000000903F0000000000005040BC
S3150800C710000000000000C03F0000000000002040AC
S3150800C720000000000000903F00000000000050409C
S3150800C730000000000000B03F00000000000030408C
S3150800C740000000000000B03F00000000000030407C
S3150800C750000000000000B03F00000000000030406C
S3150800C760000000000000B03F00000000000030405C
S3150800C77000000000000069400000000000806940D9
S3150800C7800000000000806A400000000000006A40C7
S3150800C790000000000000464000000000000048407D
S3150800C7A00000000000004A40000000000000594058
S3150800C7B000000000000058400000000000806240B1
S3150800C7C00000000000006240000000000080684091
S3150800C7D0000000000000684000000000000044401F
S3150800C7E0000000000080674000000000000057407D
S3150800C7F00000000000806140000000000040744016
S3150800C800000000000040774000000000000068407B
S3150800C8100000000000806D400000000000C073406A
S3150800C82000000000000046400000000000004840EC
S3150800C830000000000000444000000000008067403F
S3150800C8400000000000006D400000000000807340FA
S3150800C850000000000000F03F000000000000F03F6C
S3150800C860000000000000F03F000000000000F03F5C
S3150800C870000000000000F03F000000000000F03F4C
S3150800C880000000000000F03F000000000000F03F3C
S3150800C890000000000000F03F000000000000F03F2C
S3150800C8A0000000000000F03F000000000000F03F1C
S3150800C8B0000000000000F03F000000000000F03F0C
S3150800C8C0000000000000F03F000000000000F03FFC
S3150800C8D0000000000000F03F000000000000F03FEC
S3150800C8E0000000000000F03F000000000000F03FDC
S3150800C8F0000000000000F03F000000000000F03FCC
S3150800C9000000000000003040000000000000B03FBA
S3150800C9100000000000003040000000000000B03FAA
S3150800C9200000000000003040000000000000B03F9A
S3150800C9300000000000003040000000000000B03F8A
S3150800C9400000000000003040000000000000B03F7A
S3150800C9500000000000003040000000000000B03F6A
S3150800C9600000000000003040000000000000B03F5A
S3150800C9700000000000003040000000000000B03F4A
S3150800C9800000000000003040000000000000B03F3A
S3150800C9900000000000003040000000000000B03F2A
S3150800C9A00000000000003040000000000000B03F1A
S3150800C9B00000000000003040000000000000B03F0A
S3150800C9C00000000000806A400000000000006A4085
S3150800C9D0000000000000464000000000000048403B
S3150800C9E00000000000004440000000000000304045
S3150800C9F0000000000000B03F0000000000003040CA
S3150800CA00000000000000B03F0000000000002040C9
S3150800CA10000000000000C03F000000000000504079
S3150800CA20000000000000903F000000000000504099
S3150800CA30000000000000903F000000000000F03FEA
S3150800CA4000000000000000000000000000000000D8
S3150800CA5000000000000000000000000000000100C7
S3150800CA60000000000000000000000000000010C0E8
S3150800CA70000000000000B03F000000000000304049
S3150800CA8000000000000008C0000000000000C03FD1
S3150800CA90000000000000204000000000000018C050
S3150800CAA0000000000000903F000000000000504019
S3150800CAB000000000000018C0000000000000903FC1
S3150800CAC0000000000000504000000000000010C0F8
S3150800CAD0000000000000B03F0000000000003040E9
S3150800CAE00100000001000000010000000100000034
S3150800CAF000000000000000001600000016000000FC
S3150800CB001600000016000000000000001A000000D1
S3150800CB101A0000001A0000001A00000000000000B9
S3150800CB20000001000000000000000000000010C026
S3150800CB30000000000000B03F000000000000304088
S3150800CB4000000000000008C0000000000000C03F10
S3150800CB50000000000000204000000000000018C08F
S3150800CB60000000000000903F000000000000504058
S3150800CB7000000000000018C0000000000000903F00
S3150800CB80000000000000504000000000000010C037
S3150800CB90000000000000B03F000000000000304028
S3150800CBA00100000001000000010000000100000073
S3150800CBB0000000000000000000000000000010C097
S3150800CBC0000000000000B03F0000000000003040F8
S3150800CBD000000000000008C0000000000000C03F80
S3150800CBE0000000000000204000000000000018C0FF
S3150800CBF0000000000000903F0000000000005040C8
S3150800CC0000000000000018C0000000000000903F6F
S3150800CC10000000000000504000000000000010C0A6
S3150800CC20000000000000B03F000000000000304097
S3150800CC3001000000010000000100000001000000E2
S3150800CC4000000000000000001500000015000000AC
S3150800CC50150000001500000000000000000001009B
S3150800CC6000000000000010C0000000000000B03FF7
S3150800CC70000000000000304000000000000008C06E
S3150800CC80000000000000C03F000000000000204037
S3150800CC9000000000000018C0000000000000903FDF
S3150800CCA0000000000000504000000000000018C00E
S3150800CCB0000000000000903F000000000000504007
S3150800CCC000000000000010C0000000000000B03F97
S3150800CCD000000000000030400100000001000000D4
S3150800CCE00100000001000000000000000000000034
S3150800CCF000000000000010C0000000000000B03F67
S3150800CD00000000000000304000000000000008C0DD
S3150800CD10000000000000C03F0000000000002040A6
S3150800CD2000000000000018C0000000000000903F4E
S3150800CD30000000000000504000000000000018C07D
S3150800CD40000000000000903F000000000000504076
S3150800CD5000000000000010C0000000000000B03F06
S3150800CD600000000000003040010000000100000043
S3150800CD7001000000010000000000000000000000A3
S3150800CD801500000015000000150000001500000041
S3150800CD900000000016000000160000001600000043
S3150800CDA016000000000000001A0000001A0000002B
S3150800CDB01A0000001A000000000000000000000031
S3150800CDC000000000000010C0000000000000B03F96
S3150800CDD0000000000000304000000000000010C005
S3150800CDE0000000000000B03F0000000000003040D6
S3150800CDF000000000000010C0000000000000B03F66
S3150800CE00000000000000304000000000000010C0D4
S3150800CE10000000000000B03F0000000000003040A5
S3150800CE201900000019000000190000001900000090
S3150800CE30000000000000000000000000000010C014
S3150800CE40000000000000B03F000000000000304075
S3150800CE5000000000000010C0000000000000B03F05
S3150800CE60000000000000304000000000000010C074
S3150800CE70000000000000B03F000000000000304045
S3150800CE8000000000000010C0000000000000B03FD5
S3150800CE9000000000000030401800000018000000E4
S3150800CEA01800000018000000000000000000000044
S3150800CEB000000000000010C0000000000000B03FA5
S3150800CEC0000000000000304000000000000010C014
S3150800CED0000000000000B03F0000000000003040E5
S3150800CEE000000000000010C0000000000000B03F75
S3150800CEF0000000000000304000000000000010C0E4
S3150800CF00000000000000B03F0000000000003040B4
S3150800CF1017000000170000001700000017000000A7
S3150800CF2000000000000001000D0000000D000000D8
S3150800CF300D0000000D000000000000000C000000BD
S3150800CF400C0000000C0000000C00000000000000AF
S3150800CF500B0000000B0000000B0000000B00000097
S3150800CF60000000000000000000000000000010C0E3
S3150800CF70000000000000B03F000000000000304044
S3150800CF8000000000000008C0000000000000C03FCC
S3150800CF90000000000000204000000000000018C04B
S3150800CFA0000000000000903F000000000000504014
S3150800CFB000000000000018C0000000000000903FBC
S3150800CFC0000000000000504000000000000010C0F3
S3150800CFD0000000000000B03F0000000000003040E4
S3150800CFE0010000000100000001000000010000002F
S3150800CFF0000000000000000000000000000010C053
S3150800D000000000000000B03F0000000000003040B3
S3150800D01000000000000008C0000000000000C03F3B
S3150800D020000000000000204000000000000018C0BA
S3150800D030000000000000903F000000000000504083
S3150800D04000000000000018C0000000000000903F2B
S3150800D050000000000000504000000000000010C062
S3150800D060000000000000B03F000000000000304053
S3150800D070010000000100000001000000010000009E
S3150800D0800000000000000000180000001800000062
S3150800D0900000000017000000170000000000000054
S3150800D0A0190000001900000000000000000001003F
S3150800D0B000000000000010C0000000000000B03FA3
S3150800D0C0000000000000304000000000000008C01A
S3150800D0D0000000000000C03F0000000000002040E3
S3150800D0E000000000000018C0000000000000903F8B
S3150800D0F0000000000000504000000000000018C0BA
S3150800D100000000000000903F0000000000005040B2
S3150800D11000000000000010C0000000000000B03F42
S3150800D120000000000000304001000000010000007F
S3150800D13001000000010000000000000000000000DF
S3150800D1406464640048414E636F6465725F453430B9
S3150800D150375F5454415F436F6E74726F6C6C6572BF
S3150800D1605F76345F375F736F6674776172654944BB
S3150800D1705F76315F3038303632325F3139343435A4
S3150800D180380000004170704374726C5461736B0010
S3150800D19048414E636F6465725F453430375F545457
S3150800D1A0415F436F6E74726F6C6C65725F76345F45
S3150800D1B0372E630020000000001402400800090012
S3150800D1C0200000000014024010000E00200000009D
S3150800D1D00014024020000F00200000000014024046
S3150800D1E040000400200000000014024080000500F2
S3150800D1F02000000000140240000106002000000084
S3150800D200001402400002070020000000001402403B
S3150800D21000040800040000000008024001000A009B
S3150800D220040000000008024004000C004144436367
S3150800D2306F6E76657273696F6E5461736B0000006A
S3150800D2402E2E2F626C6F636B7365742F7274772F33
S3150800D25053544D33322F7372632F686561705F3490
S3150800D2602E630000546D724370754C6F6164000044
S3150800D27049444C45000000002E2E2F626C6F636BEC
S3150800D2807365742F7274772F53544D33322F73721C
S3150800D290632F7461736B732E630000002E2E2F624A
S3150800D2A06C6F636B7365742F7274772F53544D3399
S3150800D2B0322F7372632F74696D6572732E63000063
S3150800D2C0546D72205376630043616E4576656E74BD
S3150800D2D05461736B0000000043616E5472616E7393
S3150800D2E06D69745461736B002E2E2F626C6F636BBD
S3150800D2F07365742F7274772F53544D33322F7372AC
S3150800D300632F53544D33325F453430372F63616E84
S3150800D3102E630000006400400000000208000000C0
S3150800D320000C02400100000008000000000C02404A
S3150800D33002000100091314151600000000680040D9
S3150800D340000000040200000000040240200005005E
S3150800D350020000000004024040000600093F404168
S3150800D3604200000001010201020202020203020257
S3150800D3700402020303030403030503030603030568
S3150800D380040406040407040408040407050508053C
S3150800D3900508060508070508070608080608080711
S3150800D3A008080800457643686E6C31004576436880
S3150800D3B06E6C3200457643686E6C33002E2E2F62F3
S3150800D3C06C6F636B7365742F7274772F53544D3378
S3150800D3D0322F7372632F53544D33325F45343037CF
S3150800D3E02F6D61632E6300002E2E2F626C6F636BA8
S3150800D3F07365742F7274772F53544D33322F7372AB
S3150800D400632F53544D33325F453430372F706F7264
S3150800D410742E6300000001400100000002010000B4
S3150800D4201000000000100240000209001000000071
S3150800D4300010024000080B00000400400200000033
S3150800D4400102000001000000000002404000060042
S3150800D4500200000000040240200005000008004009
S3150800D460040000000102000008000000000C024051
S3150800D47000100C0008000000000C024000200D00FF
S3150800D480000401400200000002030000040000003E
S3150800D49000080240400006000400000000080240A0
S3150800D4A08000070000000140010000000201190089
S3150800D4B0000000400100000001021C0000040040BA
S3150800D4C00200000001021D000008004004000000E0
S3150800D4D001021E00000401400200000002012C00A7
S3150800D4E0004001400000010002011800004401400C
S3150800D4F00000020002011900004801400000040073
S3150800D50002011A00001C00408000000001022C00E5
S3150800D510002000400001000001022D000400000068
S3150800D520000802400100000020000000001402402C
S3150800D53040000000200000000014024080000000A7
S3150800D5402000000000140240000100002000000036
S3150800D55000140240000200002000000000140240EF
S3150800D56000040000020000000004024080000000E1
S3150800D5700200000000040240400000001000000005
S3150800D58000100240040000001000000000100240D5
S3150800D59010000000100000000010024020000000EB
S3150800D5A0100000000010024040000000400000008B
S3150800D5B000180240800000004000000000180240E9
S3150800D5C000010000400000000018024000100000A2
S3150800D5D04000000000180240008000000100000022
S3150800D5E00000024010000000020000000004024093
S3150800D5F0200000000100000000000240400000007A
S3150800D60001000000000002402000000008000000A1
S3150800D610000C02400100000008000000000C024057
S3150800D6200200000008000000000C02400400000090
S3150800D63008000000000C0240080000000800000076
S3150800D640000C02401000000008000000000C024018
S3150800D6502000000008000000000C02404000000006
S3150800D66008000000000C02408000000008000000CE
S3150800D670000C02400001000008000000000C0240F7
S3150800D6800002000008000000000C02400004000030
S3150800D69008000000000C0240000800000800000016
S3150800D6A0000C02400010000008000000000C0240B8
S3150800D6B00020000008000000000C024000400000A6
S3150800D6C008000000000C0240008000001000000066
S3150800D6D00010024001000000100000000010024087
S3150800D6E002000000100000000010024008000000C0
S3150800D6F0100000000010024080000000100000002A
S3150800D7000010024000010000100000000010024056
S3150800D7100002000010000000001002400004000093
S3150800D7201000000000100240000800001000000071
S3150800D7300010024000100000100000000010024017
S3150800D7400020000010000000001002400040000009
S3150800D75010000000001002400080000020000000B9
S3150800D76000140240010000002000000000140240DE
S3150800D770020000002000000000140240040000001F
S3150800D78020000000001402400800000020000000ED
S3150800D790001402401000000020000000001402409F
S3150800D7A020000000200000000014024000080000CD
S3150800D7B020000000001402400010000020000000B5
S3150800D7C0001402400020000020000000001402405F
S3150800D7D00040000020000000001402400080000005
S3150800D7E04000000000180240010000004000000050
S3150800D7F00018024002000000400000000018024025
S3150800D8000400000040000000001802400800000064
S3150800D8104000000000180240100000004000000010
S3150800D82000180240200000004000000000180240D6
S3150800D83040000000400000000018024000020000FE
S3150800D84040000000001802400004000040000000EC
S3150800D85000180240000800004000000000180240BE
S3150800D86000200000400000000018024000400000B0
S3150800D8700100000000000240010000000400000052
S3150800D88000080240010000002000000000140240C9
S3150800D8904000000020000000001402408000000044
S3150800D8A020000000001402400001000020000000D3
S3150800D8B0001402400002000020000000001402408C
S3150800D8C0000400000200000000040240800000007E
S3150800D8D002000000000402404000000010000000A2
S3150800D8E00010024004000000100000000010024072
S3150800D8F01000000010000000001002402000000088
S3150800D9001000000000100240400000004000000027
S3150800D9100018024080000000400000000018024085
S3150800D920000100004000000000180240001000003E
S3150800D93040000000001802400080000001000000BE
S3150800D940000002401000000002000000000402402F
S3150800D9502000000001000000000002404000000016
S3150800D960010000000000024020000000080000003E
S3150800D970000C02400100000008000000000C0240F4
S3150800D9800200000008000000000C0240040000002D
S3150800D99008000000000C0240080000000800000013
S3150800D9A0000C02401000000008000000000C0240B5
S3150800D9B02000000008000000000C024040000000A3
S3150800D9C008000000000C024080000000080000006B
S3150800D9D0000C02400001000008000000000C024094
S3150800D9E00002000008000000000C024000040000CD
S3150800D9F008000000000C02400008000008000000B3
S3150800DA00000C02400010000008000000000C024054
S3150800DA100020000008000000000C02400040000042
S3150800DA2008000000000C0240008000001000000002
S3150800DA300010024001000000100000000010024023
S3150800DA40020000001000000000100240080000005C
S3150800DA5010000000001002408000000010000000C6
S3150800DA6000100240000100001000000000100240F3
S3150800DA700002000010000000001002400004000030
S3150800DA80100000000010024000080000100000000E
S3150800DA9000100240001000001000000000100240B4
S3150800DAA000200000100000000010024000400000A6
S3150800DAB01000000000100240008000002000000056
S3150800DAC0001402400100000020000000001402407B
S3150800DAD002000000200000000014024004000000BC
S3150800DAE0200000000014024008000000200000008A
S3150800DAF0001402401000000020000000001402403C
S3150800DB002000000020000000001402400008000069
S3150800DB102000000000140240001000002000000051
S3150800DB2000140240002000002000000000140240FB
S3150800DB3000400000200000000014024000800000A1
S3150800DB4040000000001802400100000040000000EC
S3150800DB5000180240020000004000000000180240C1
S3150800DB600400000040000000001802400800000001
S3150800DB7040000000001802401000000040000000AD
S3150800DB800018024020000000400000000018024073
S3150800DB90400000004000000000180240000200009B
S3150800DBA04000000000180240000400004000000089
S3150800DBB0001802400008000040000000001802405B
S3150800DBC0002000004000000000180240004000004D
S3150800DBD00400000000080240002000000000014088
S3150800DBE00100000002011B000000004001000000C7
S3150800DBF001021C00000400400200000001021D0092
S3150800DC00000800400400000001021E000004014054
S3150800DC100200000002012E00004001400000010041
S3150800DC200201180000440140000002000201190028
S3150800DC30004801400000040002011A00001C0040D0
S3150800DC408000000001022C000020004000010000B6
S3150800DC5001022D0010000000001002400002000022
S3150800DC600200020001000900100000000010024036
S3150800DC70000800010400200001000B00100000004D
S3150800DC8000100240002000020800000201000D00FA
S3150800DC9010000000001002400040000310000020A1
S3150800DCA001000E00010000000000024020000100F3
S3150800DCB00200020001000500010000000000024009
S3150800DCC040000200020002000200060002000000F6
S3150800DCD000040240200002010400200002000500A2
S3150800DCE008000000000C02400010030002000200B9
S3150800DCF002000C0008000000000C0240002003018E
S3150800DD000400200002000D00040000000008024084
S3150800DD1040000400020002000300060004000000A0
S3150800DD2000080240800004010400200003000700E8
S3150800DD30100000000010024020000500020002004A
S3150800DD400300050010000000001002404000050115
S3150800DD500400200003000600200000000014024012
S3150800DD604000060002000200030006002000000032
S3150800DD7000140240800007000200020003000700AA
S3150800DD802000000000140240000108000200020002
S3150800DD9009000800200000000014024000020900E3
S3150800DDA002000200090009000010014010000000EE
S3150800DDB002250000020000000004024040000600A0
S3150800DDC0020000000004024080000700070000006F
S3150800DDD00044004000000200012600000800000080
S3150800DDE0000C02402000050008000000000C02405C
S3150800DDF0400006000700000000480040000004003C
S3150800DE000127000008000000000C0240000108007D
S3150800DE1008000000000C024000020900070000008C
S3150800DE200014014020000000024700000400000022
S3150800DE3000080240400006000400000000080240F6
S3150800DE40800007000800000056435020436F6E66A6
S3150800DE506967000056435020496E746572666163AF
S3150800DE606500000053544D6963726F656C65637491
S3150800DE70726F6E696373000053544D3332205669CE
S3150800DE80727475616C20436F6D506F727420696E81
S3150800DE90204853206D6F64650000000053544D33CD
S3150800DEA032205669727475616C20436F6D506F72BB
S3150800DEB07420696E204653204D6F6465000000008B
S3150800DEC030303030303030303035304200000000ED
S3150800DED030303030303030303035304300000000DC
S3150800DEE0000001400100000002011B000000004084
S3150800DEF00100000001021C000004004002000000AE
S3150800DF0001021D00000800400400000001021E0076
S3150800DF10000401400200000002012E0000400140FA
S3150800DF200000010002011800004401400000020040
S3150800DF3002011900004801400000040002011A000D
S3150800DF40001C00408000000001022C000020004058
S3150800DF500001000001022D00100000000010024020
S3150800DF600002000002000200010009001000000083
S3150800DF7000100240000800010400200001000B0008
S3150800DF8010000000001002400020000208000002F5
S3150800DF9001000D00100000000010024000400003C0
S3150800DFA01000002001000E000100000000000240E1
S3150800DFB02000010002000200010005000100000027
S3150800DFC000000240400002000200020002000600B3
S3150800DFD002000000000402402000020104002000A4
S3150800DFE00200050008000000000C024000100300B3
S3150800DFF00200020002000C0008000000000C0240AB
S3150800E000002003010400200002000D0004000000A7
S3150800E0100008024040000400020002000300060057
S3150800E02004000000000802408000040104002000EB
S3150800E0300300070010000000001002402000050041
S3150800E0400200020003000500100000000010024054
S3150800E050400005010400200003000600200000001F
S3150800E06000140240400006000200020003000600F9
S3150800E0702000000000140240800007000200020091
S3150800E08003000700200000000014024000010800F9
S3150800E09002000200090008002000000000140240E7
S3150800E0A00002090002000200090009002E2E2F6254
S3150800E0B06C6F636B7365742F7274772F53544D337B
S3150800E0C0322F7372632F71756575652E63000000B4
S3150800E0D004040400E4E00008ECE00008F4E00008AA
S3150800E0E007070700457643686E6C31004576436836
S3150800E0F06E6C3200457643686E6C330050505000A3
S3150800E100666D6F640000000000000000000000005B
S3110800E11000000000000000804300000032
S315080100000B78FF2B00D070474B78002BFBD114F0EF
S3150801001085BE00BF08B5012014F06AF9034A40F20B
S3150801002067610020BDE8084016F0CEBE0100010850
S31508010030002013F081BF00BF704700BF2DE9F04FC4
S3150801004083B016461F4682468B461CF0A9FD002240
S31508010050002304460D461DF055FBD8BB80460022F9
S315080100600023204629465FFA88F81DF04BFB50B954
S31508010070304639461CF00CFD02460B4630463946D9
S315080100801DF068FB90BBB8F1000F5FD15046594689
S31508010090002200234FF001091DF03EFB20B3002387
S315080100A00022304639461DF037FB4FF00103A0B157
S315080100B05FFA89F9DBB2994507D0204629463246C7
S315080100C03B461CF005FF04460D462046294603B06B
S315080100D0BDE8F08F4FF00108C1E703465FFA89F9D9
S315080100E0DBB29945E9D1F0E7C146D8E732463B4646
S315080100F0504659461DF0C8F921F000490022194B0E
S31508010100494680461CF0E4FE1CF0C2FC02460B463A
S31508010110404649461CF0DAFE0B46024623F00043E8
S3150801012040460092019300220F4B49461DF082F882
S3150801013002460B46DDE900011DF0F8FA4FF0010809
S3150801014058B15FFA88F8B8F1000F9FD0002400254E
S315080101502046294603B0BDE8F08F80465FFA88F845
S31508010160F1E700BF0000E03F0000B03C2DE9F04197
S315080101700999089C91F800E0DDF82880054616469D
S315080101801F46BEF1000F01D101230B702B785B00CE
S31508010190DBB25A0907EE902AB8EEE77AF7EE007A4B
S315080101A0B4EEE77AF1EE10FAA372227307DDD8E905
S315080101B0000100221B4B1CF08BFEC8E900012878C0
S315080101C0C00960732B781B01DBB24FEA13186372FF
S315080101D084F80B801CF0C8FF32463B461DF092FAA4
S315080101E050B140461CF0C0FFDDE906231DF08AFA2E
S315080101F04FF0010398B1D8B220726B782370AB78AF
S315080102006370EB78A3702B79E3706B792371AB7903
S315080102106371EB79A3710023E371BDE8F0810346AD
S31508010220E9E700BF0000F03F2DE9F0410999089C74
S3150801023091F800E0DDF82880054616461F46BEF10E
S31508010240000F01D101230B702B785B00DBB25A0931
S3150801025007EE902AB8EEE77AF7EE007AB4EEE77A77
S31508010260F1EE10FAA372227307DDD8E90001002224
S315080102701B4B1CF02DFEC8E900012878C0096073E4
S315080102802B781B01DBB24FEA1318637284F80B80D3
S315080102901CF06AFF32463B461DF034FA50B140461F
S315080102A01CF062FFDDE906231DF02CFA4FF001036D
S315080102B098B1D8B220726B782370AB786370EB78FB
S315080102C0A3702B79E3706B792371AB796371EB7941
S315080102D0A3710023E371BDE8F0810346E9E700BF96
S315080102E00000F03FF8B504460D469DF818008AB39C
S315080102F0254E18461CF028FFD6E900231CF09AFF64
S3150801030022462B461CF0E4FD204B00221CF0E0FDA2
S31508010310089B04460D4618881D4F1CF015FF02461A
S315080103200B46204629461CF0D1FD002632463B469F
S3150801033004460D461DF00EFA10BB164F00263B4625
S315080103402046294632461DF0E7F9079BA8B9C3E9B5
S315080103500045F8BD104E1CF0F7FED6E900231CF047
S3150801036069FF22462B461CF0B3FD084B00221CF000
S31508010370AFFD099B04460D46CDE7C3E90067F8BD05
S31508010380079BC3E90067F8BD680000200000084024
S3150801039000003E4000003EC0380000202DE9F04133
S315080103A00799069C91F800E0DDF820800546164677
S315080103B01F46BEF1000F01D101230B702B785B009C
S315080103C0DBB25A0907EE902AB8EEE77AF7EE007A19
S315080103D0B4EEE77AF1EE10FAA372227307DDD8E9D3
S315080103E000010022154B1CF073FDC8E900016B786A
S315080103F02370AB786370EB78A3702B79E3706B7914
S315080104002371AB796371EB79A3710023E3712B78BF
S315080104101B01DBB218096372E0721CF0A5FE3B46AC
S3150801042032461DF06FF94FF0010300B903462372F6
S315080104302B78DB096373BDE8F08100BF0000F03F4C
S315080104402DE9F0410799069C91F800E0DDF8208036
S31508010450054616461F46BEF1000F01D101230B7052
S315080104602B785B00DBB25A0907EE902AB8EEE77AD9
S31508010470F7EE007AB4EEE77AF1EE10FAA372227378
S3150801048007DDD8E900010022154B1CF021FDC8E95A
S3150801049000016B782370AB786370EB78A3702B79C6
S315080104A0E3706B792371AB796371EB79A3710023DF
S315080104B0E3712B781B01DBB218096372E0721CF039
S315080104C053FE3B4632461DF01DF94FF0010300B9B4
S315080104D0034623722B78DB096373BDE8F08100BFFD
S315080104E00000F03F2DE9F04F89B080461B999DF831
S315080104F0484091F800E004949DF84C4005949DF815
S3150801050050509DF854609DF858709DF85CA09DF870
S3150801051060B01D9CBEF1000F01D101200870DFF803
S315080105204CE110461946DEE900231CF0D1FCCDE961
S31508010530000140461CF008FE00224A4BCDE90201A3
S315080105401CF0C6FCDDE900231CF0C0FC00220023D8
S31508010550CDE906011DF0D6F800284AD0209B187867
S31508010560199BC0015FFA80F983F801901F9BD3E9B3
S3150801057000011DF037F9199B00015FFA80F883F82D
S3150801058002801C9BD3E900011DF02CF99DF810305F
S31508010590637040449DF81430A37048441A9B207038
S315080105A0E5702671677184F806A084F807B01E9A6B
S315080105B01B681360DDE90023DDE902011CF086FCF6
S315080105C00022002306460F461DF09CF880460028A7
S315080105D03CD1254BD3E90045002200232046294674
S315080105E01DF090F8E8B1199B83F8008009B0BDE8C1
S315080105F0F08F1D4BD3E90089002200234046494666
S315080106001DF080F80028D5D142464B46DDE90601A2
S31508010610FFF714FD002200231DF074F80028C9D045
S315080106209CE722462B4630463946FFF707FD00224E
S3150801063000231DF067F84FF0010878B15FFA88F8D2
S31508010640199B83F8008009B0BDE8F08F199B4FF01C
S31508010650010883F8008009B0BDE8F08F80465FFA8B
S3150801066088F8EDE70000F03F6800002078000020D8
S315080106702DE9F04F89B080461B999DF8484091F8BD
S3150801068000E004949DF84C4005949DF850509DF85F
S3150801069054609DF858709DF85CA09DF860B01D9C4B
S315080106A0BEF1000F01D101200870DFF84CE11046B8
S315080106B01946DEE900231CF00BFCCDE90001404692
S315080106C01CF042FD00224A4BCDE902011CF000FC58
S315080106D0DDE900231CF0FAFB00220023CDE906011F
S315080106E01DF010F800284AD0209B1878199BC001E4
S315080106F05FFA80F983F801901F9BD3E900011DF089
S3150801070071F8199B00015FFA80F883F802801C9B37
S31508010710D3E900011DF066F89DF810306370404476
S315080107209DF81430A37048441A9B2070E570267111
S31508010730677184F806A084F807B01E9A1B681360CF
S31508010740DDE90023DDE902011CF0C0FB00220023DC
S3150801075006460F461CF0D6FF804600283CD1254B9D
S31508010760D3E9004500220023204629461CF0CAFF8A
S31508010770E8B1199B83F8008009B0BDE8F08F1D4BDD
S31508010780D3E9008900220023404649461CF0BAFFF6
S315080107900028D5D142464B46DDE90601FFF74EFC56
S315080107A0002200231CF0AEFF0028C9D09CE7224690
S315080107B02B4630463946FFF741FC002200231CF040
S315080107C0A1FF4FF0010878B15FFA88F8199B83F801
S315080107D0008009B0BDE8F08F199B4FF0010883F836
S315080107E0008009B0BDE8F08F80465FFA88F8EDE72A
S315080107F00000F03F38000020800000202DE9F04F6E
S3150801080089B0064619999DF8544091F800E0039479
S315080108109DF848709DF84C809DF850909DF8585069
S315080108201B9CBEF1000F01D101200870DFF848E1D9
S3150801083010461946DEE900231CF04AFB824630467B
S315080108408B461CF081FC0022494BCDE900011CF0C6
S315080108503FFB52465B461CF039FB00220023CDE9DB
S3150801086006011CF04FFF002846D01E9B179A1878E0
S31508010870C001C3B2537004931D9BD3E900011CF058
S31508010880B1FF179B0001C6B29E701A9BD3E90001FE
S315080108901CF0A8FF049B6770304418449DF80C307F
S315080108A02371189B207084F8028084F8039065717F
S315080108B0A571E5711C9A1B68136052465B46DDE912
S315080108C000011CF003FB0022002306460F461CF01C
S315080108D019FF804600283ED1264BD3E90045002260
S315080108E00023204629461CF00DFFF8B1179B83F813
S315080108F0008009B0BDE8F08F1E4B93ED007B002206
S31508010900002351EC170B8DED047B1CF0FBFE002830
S31508010910D3D1DDE90423DDE90601FFF78FFB0022C8
S3150801092000231CF0EFFE0028C7D09EE722462B467F
S3150801093030463946FFF782FB002200231CF0E2FE0F
S315080109404FF0010878B15FFA88F8179B83F80080A1
S3150801095009B0BDE8F08F179B4FF0010883F80080B6
S3150801096009B0BDE8F08F80465FFA88F8EDE700BF69
S315080109700000F03F68000020780000202DE9F04FC4
S3150801098089B0064619999DF8544091F800E00394F8
S315080109909DF848709DF84C809DF850909DF85850E8
S315080109A01B9CBEF1000F01D101200870DFF848E158
S315080109B010461946DEE900231CF08AFA82463046BB
S315080109C08B461CF0C1FB0022494BCDE900011CF006
S315080109D07FFA52465B461CF079FA00220023CDE9DC
S315080109E006011CF08FFE002846D01E9B179A187820
S315080109F0C001C3B2537004931D9BD3E900011CF0D7
S31508010A00F1FE179B0001C6B29E701A9BD3E900013D
S31508010A101CF0E8FE049B6770304418449DF80C30BE
S31508010A202371189B207084F8028084F803906571FD
S31508010A30A571E5711C9A1B68136052465B46DDE990
S31508010A4000011CF043FA0022002306460F461CF05B
S31508010A5059FE804600283ED1264BD3E9004500229F
S31508010A600023204629461CF04DFEF8B1179B83F852
S31508010A70008009B0BDE8F08F1E4B93ED007B002284
S31508010A80002351EC170B8DED047B1CF03BFE00286F
S31508010A90D3D1DDE90423DDE90601FFF7CFFA002208
S31508010AA000231CF02FFE0028C7D09EE722462B46BE
S31508010AB030463946FFF7C2FA002200231CF022FE0F
S31508010AC04FF0010878B15FFA88F8179B83F8008020
S31508010AD009B0BDE8F08F179B4FF0010883F8008035
S31508010AE009B0BDE8F08F80465FFA88F8EDE700BFE8
S31508010AF00000F03F38000020800000202DE9F04F6B
S31508010B0089B0074618999DF8488091F800E09DF844
S31508010B104C909DF850A09DF85460169D1A9CBEF104
S31508010B20000F01D101200870DFF830E1104619469F
S31508010B30DEE900231CF0CCF9CDE9000138461CF0AA
S31508010B4003FB0022434BCDE902011CF0C1F9DDE9A3
S31508010B5000231CF0BBF900220023CDE906011CF095
S31508010B60D1FD002841D01D9B18781C9BC0015FFA56
S31508010B7080FB85F801B0D3E900011CF033FE0001C2
S31508010B80C7B2199BAF70D3E900011CF02BFE38449C
S31508010B905844179B207084F8018084F8029084F8E1
S31508010BA003A026716671A671E6711B9A1B6813600C
S31508010BB0DDE90023DDE902011CF088F900220023A2
S31508010BC0804689461CF09EFD0446002839D1224BF1
S31508010BD0D3E9006700220023304639461CF092FD0E
S31508010BE0E8B12C7009B0BDE8F08F1B4B93ED007B83
S31508010BF00022002351EC170B8DED047B1CF082FDBE
S31508010C000028D5D1DDE90423DDE90601FFF716FA47
S31508010C10002200231CF076FD0028C9D0A3E732463E
S31508010C203B4640464946FFF709FA002200231CF0D5
S31508010C3069FD4FF0010448B1E4B22C7009B0BDE872
S31508010C40F08F01242C7009B0BDE8F08F0446E4B298
S31508010C50F3E700BF0000F03F68000020780000209D
S31508010C602DE9F04F89B0074618999DF8488091F803
S31508010C7000E09DF84C909DF850A09DF85460169D93
S31508010C801A9CBEF1000F01D101200870DFF830E18E
S31508010C9010461946DEE900231CF01AF9CDE90001D0
S31508010CA038461CF051FA0022434BCDE902011CF0EB
S31508010CB00FF9DDE900231CF009F900220023CDE92B
S31508010CC006011CF01FFD002841D01D9B18781C9BAE
S31508010CD0C0015FFA80FB85F801B0D3E900011CF079
S31508010CE081FD0001C7B2199BAF70D3E900011CF061
S31508010CF079FD38445844179B207084F8018084F89C
S31508010D00029084F803A026716671A671E6711B9A92
S31508010D101B681360DDE90023DDE902011CF0D6F842
S31508010D2000220023804689461CF0ECFC0446002874
S31508010D3039D1224BD3E900670022002330463946D0
S31508010D401CF0E0FCE8B12C7009B0BDE8F08F1B4B34
S31508010D5093ED007B0022002351EC170B8DED047BEC
S31508010D601CF0D0FC0028D5D1DDE90423DDE9060114
S31508010D70FFF764F9002200231CF0C4FC0028C9D03F
S31508010D80A3E732463B4640464946FFF757F9002254
S31508010D9000231CF0B7FC4FF0010448B1E4B22C70F3
S31508010DA009B0BDE8F08F01242C7009B0BDE8F08FB9
S31508010DB00446E4B2F3E700BF0000F03F3800002024
S31508010DC0800000202DE9F0410799069C91F800E082
S31508010DD0DDF82080054616461F46BEF1000F01D1F3
S31508010DE001230B702B785B00DBB25A0907EE902AB8
S31508010DF0B8EEE77AF7EE007AB4EEE77AF1EE10FA92
S31508010E00A372227307DDD8E900010022154B1CF0F5
S31508010E105FF8C8E900016B782370AB786370EB78EB
S31508010E20A3702B79E3706B792371AB796371EB79D5
S31508010E30A3710023E3712878C00960731CF094F943
S31508010E403B4632461CF05EFC4FF0010300B90346EF
S31508010E5023722B781B01DBB21A096372E272BDE8B1
S31508010E60F08100BF0000F03F2DE9F0410799069C8B
S31508010E7091F800E0DDF82080054616461F46BEF1CA
S31508010E80000F01D101230B702B785B00DBB25A09E5
S31508010E9007EE902AB8EEE77AF7EE007AB4EEE77A2B
S31508010EA0F1EE10FAA372227307DDD8E900010022D8
S31508010EB0154B1CF00DF8C8E900016B782370AB7867
S31508010EC06370EB78A3702B79E3706B792371AB7937
S31508010ED06371EB79A3710023E3712878C009607304
S31508010EE01CF042F93B4632461CF00CFC4FF001035C
S31508010EF000B9034623722B781B01DBB21A09637208
S31508010F00E272BDE8F08100BF0000F03F2DE9F0472D
S31508010F10DDF820E0DDF824A09EF800C004460D4661
S31508010F2016461F46BCF1000F02D101238EF8003088
S31508010F30BAF800001CF018F922462B468046894665
S31508010F401CF0E0FB38BB42464B46204629461CF0BE
S31508010F50E3FB58B10B9B1B78B3B9012333700C9B88
S31508010F601B786BB901237370BDE8F08700274246E9
S31508010F704B462046294637701CF0CEFB0028EED199
S31508010F8000237370BDE8F087002333700C9B1B7830
S31508010F90002BF5D1E6E70E9A3B6813600D9A7B683C
S31508010FA013600C9ABB7A1370109A3B7A13700B9ADA
S31508010FB0FB7A13700F9A7B7A13700A9A00231360CF
S31508010FC05360119A1370BAF800001CF0CDF88046E8
S31508010FD08946B8E72DE9F047DDF820E0DDF824A0D9
S31508010FE09EF800C004460D4616461F46BCF1000F82
S31508010FF002D101238EF80030BAF800001CF0B4F8CB
S3150801100022462B46804689461CF07CFB38BB424665
S315080110104B46204629461CF07FFB58B10B9B1B7893
S31508011020B3B9012333700C9B1B786BB90123737019
S31508011030BDE8F087002742464B46204629463770C9
S315080110401CF06AFB0028EED100237370BDE8F08717
S31508011050002333700C9B1B78002BF5D1E6E70E9A1B
S315080110603B6813600D9A7B6813600C9ABB7A137000
S31508011070109A3B7A13700B9AFB7A13700F9A7B7A44
S3150801108013700A9A002313605360119A1370BAF801
S3150801109000001CF069F880468946B8E72DE9F04753
S315080110A0DDF82CA00646BAF800000F469046994688
S315080110B01CF05AF832463B4604460D461CF022FB04
S315080110C040B10E9A01231370BAF800001CF04CF8CF
S315080110D004460D4622462B46404649461CF012FB5D
S315080110E0002834D00C9900224FF08043D1E9000141
S315080110F01CF008FB58B30F9B1B7863B30A9BD3E913
S31508011100004500220023204629461CF023FB4FF008
S315080111100103F0B1099A20461370294600220023DB
S315080111201CF018FB50B90A9B3046D3E9002339460F
S315080111301BF0CEFE1CF056FBAAF80000089A012304
S3150801114013700D9A13700E9A1370BDE8F087BDE8F7
S31508011150F0870346DEE7BDE8F08700BF2DE9704F4B
S315080111600B9E044630880D46904699461BF0FCFFB7
S3150801117022462B4682468B461CF0C4FA10B10E9ABB
S315080111800123137042464B46504659461CF0BAFA9B
S3150801119058B30F9B1B7853B30A9BD3E900890022E6
S315080111A00023404649461CF0D5FA4FF0010318B30F
S315080111B0099A404613704946002200231CF0CAFAD0
S315080111C048B90A9B2046D3E9002329461BF080FE2D
S315080111D01CF008FB3080089A012313700D9A1370CE
S315080111E00E9A13700F9B1B780BB1BDE8708F0C9A82
S315080111F001231370BDE8708F0346D9E72DE9F04F37
S3150801120083B00C460E9FDDF8348099460546324B6D
S31508011210D7E90001164600221BF05AFE0123C7E949
S31508011220000189F8003023682C4A0C9901331360B0
S315080112302360D8F8003007EE903AB8EE677AF7EEF1
S31508011240007AB4EE677AF1EE10FA05D1DFF88890E4
S315080112504FF00008C1E900893778019338461BF039
S3150801126073FFDFF884801E4A019B1360C8E90001F9
S315080112702B602F7196F807E085F805E096F801C00E
S3150801128085F806C096F8028085F8078096F80390D7
S3150801129085F8089096F804A085F809A096F805B08F
S315080112A0104C85F80AB0B079E8721946A071234640
S315080112B008220020277084F805B084F804A084F871
S315080112C0039084F8028084F801C084F807E003B02B
S315080112D0BDE8F04F15F004BB0000F03F4CC90020F3
S315080112E0A0C2002028070020D0C9002008B5012186
S315080112F0002015F0F9FC0B21002015F0F5FC0C2156
S31508011300002015F0F1FC0D21002015F0EDFC15214A
S31508011310002015F0E9FC1621002015F0E5FC17213F
S31508011320002015F0E1FC1821002015F0DDFC1A213A
S315080113300020BDE8084015F0D7BC00BF2DE9F04FE5
S315080113402DED088B0D460968E34CE44E83B0013157
S31508011350216029601699DDF85C900968316007EE0D
S31508011360901AB8EE678AF7EE007AB4EE678AF1EE5C
S3150801137010FA1F4604469246EB7940F09A820BB959
S315080113800123EB71DFF85883002243460092104689
S31508011390012115F0D5FC002884F84B0040F3A283FF
S315080113A098F80130637698F80230A37698F80330F6
S315080113B0E37698F804302377D6ED007A98F8053065
S315080113C0637798F80630A37798F8072098F80030DD
S315080113D0E277F8EE678A2376F2EE067AF4EE678A02
S315080113E0F1EE10FAAB7940F0E3820BB90123AB7148
S315080113F0DFF8F08200224346009210460B2115F0D1
S315080114009FFC002884F84A0040F3838398F801304A
S31508011410637498F80230A37498F80330E37498F863
S3150801142004302375D6ED007A98F80530637598F877
S315080114300630A37598F8072098F80030E275B8EEDB
S31508011440679A2374F2EE087AB4EE679AF1EE10FA07
S315080114506B7940F09C820BB901236B71DFF88882A6
S3150801146000224346009210460C2115F069FC00281B
S3150801147084F8490040F36183D6ED007A98F807307D
S3150801148098F8062098F8051098F8040098F803E0EB
S3150801149098F802C098F801B098F8008084F809B065
S315080114A0F8EE679A84F80AC084F80BE02073617332
S315080114B0A273E37384F80880F2EE0A7AF4EE679A67
S315080114C0F1EE10FA2B7940F050820BB901232B71FA
S315080114D0DFF8188200224346009210460D2115F0C6
S315080114E02FFC002884F848001BDD98F801B098F80D
S315080114F002E098F8030098F800C098F8041098F8E4
S31508011500052098F8063098F8078084F8078084F84B
S3150801151001B084F800C084F802E0E07021716271BC
S31508011520A371D6ED007AB8EE67AAF3EE057AB4EEA2
S3150801153067AAF1EE10FA2B7A40F0FD810BB9012367
S315080115402B72DFF8AC810022434600921046152122
S3150801155015F0F6FB002884F84C0040F3E98298F868
S31508011560013084F8213098F8023084F8223098F84E
S31508011570033084F8233098F8043084F82430D6ED03
S31508011580007A98F8053084F8253098F8063084F8FA
S31508011590263098F8072098F8003084F82720F8EEC6
S315080115A067AA84F82030F3EE067AF4EE67AAF1EE1C
S315080115B010FA6B7A40F040820BB901236B72DFF89F
S315080115C034810022434600921046162115F0B8FBD5
S315080115D0002884F84D0040F3A68298F8013084F873
S315080115E0293098F8023084F82A3098F8033084F8BC
S315080115F02B3098F8043084F82C30D6ED007A98F818
S31508011600053084F82D3098F8063084F82E3098F88D
S31508011610072098F8003084F82F20B8EE67BA84F8C6
S315080116202830F3EE077AB4EE67BAF1EE10FA2B7B9F
S3150801163040F0D0810BB901232B73DFF8BC8000225F
S31508011640434600921046172115F07AFB002884F8C4
S31508011650500040F3638298F8013084F8413098F8D5
S31508011660023084F8423098F8033084F8433098F809
S31508011670043084F84430D6ED007A98F8053084F8B9
S31508011680453098F8063084F8463098F8072098F8D7
S31508011690003084F84720F8EE67BA84F84030F3EE54
S315080116A0087AF4EE67BAF1EE10FAEB7A40F0AB81FC
S315080116B00BB90123EB72DFF84480002243460092FE
S315080116C01046182115F03CFB002884F84F00D6ED8A
S315080116D0007A40F31B8213E0E8C10020BCC2002057
S315080116E0C0060020F8060020100700202007002069
S315080116F0C8060020D0060020D8060020E8060020EB
S3150801170098F8013084F8393098F8023084F83A307C
S3150801171098F8033084F83B3098F8043084F83C3064
S3150801172098F8053084F83D3098F8063084F83E304C
S3150801173098F8072098F8003084F83F20F8EE677A81
S3150801174084F83830B3EE0A7AF4EE477AF1EE10FAF5
S31508011750AB7A40F0D8800BB90123AB72C84D002291
S315080117602B46009210461A2115F0EAFA002884F849
S315080117704E0017DD6B78AA7884F83130EB7884F857
S31508011780322084F833302A796B7984F83420A979A0
S3150801179084F83530EA792B7884F8361084F83720BE
S315080117A084F83030F7EE007AB4EE678AF1EE10FA73
S315080117B040F0928094F94B30207E94F819C094F841
S315080117C01AE0E67E257F617FA27F07EE103AE37F66
S315080117D099F8004007EE904AF8EEE77AF7EE006AC4
S315080117E0F4EE667AF1EE10FA15D1F8EEC77AF5EE4F
S315080117F0407AF1EE10FA57D1189C4FF002084FF0D3
S31508011800010B89F8008084F800B099F8004007EECA
S31508011810904AF8EEE77AF0EE006AF4EE667AF1EEAF
S3150801182010FA37D1B8EEC77AB7EE008AB4EEC87A9D
S31508011830F1EE10FA38DBFB71189B87F801C0012419
S315080118403870BA7187F802E0FE703D7179711C70C3
S31508011850159B8C4A1C704FF0030C89F800C0BAF826
S3150801186000301380149A13801BF06EFC169BD3ED7F
S31508011870007A854BF8EE677AC3E90001F4EE487AF7
S31508011880F1EE10FA00F0288199F8003007EE903A47
S31508011890F8EEE77AF5EE407AF1EE10FA04D1189AE5
S315080118A0012389F80030137003B0BDEC088BBDE83D
S315080118B0F08F73B1002380F84B3003764376837635
S315080118C0C376037743778377C377F0EE488AEB715C
S315080118D082E5F0EE488A7FE5F2EE067AF4EE678A4B
S315080118E0F1EE10FA40F0D28094F94A30207C94F84F
S315080118F011C094F812E0E67C257D617DA27D07EE94
S31508011900103AE37D64E7002B3FF44CAF002384F8DB
S315080119104E3084F8303084F8313084F8323084F827
S31508011920333084F8343084F8353084F8363084F826
S315080119303730AB7236E7002B00F09680002384F827
S315080119404C3084F8203084F8213084F8223084F829
S31508011950233084F8243084F8253084F8263084F836
S315080119602730F0EE4AAA2B721DE6002B00F0828082
S31508011970002384F8483023706370A370E3702371E1
S315080119806371A371E371B0EE69AA2B71CDE5002BE2
S3150801199073D0002384F8493023726372A372E37209
S315080119A023736373A373E373F0EE499A6B7183E54B
S315080119B0002B00F08B80002384F84A30237463746B
S315080119C0A374E37423756375A375E375B0EE689A1A
S315080119D0AB7137E5002B76D0002384F8503084F8B4
S315080119E0403084F8413084F8423084F8433084F832
S315080119F0443084F8453084F8463084F84730F0EEB0
S31508011A004BBA2B734BE6002B63D0002384F84F3077
S31508011A1084F8383084F8393084F83A3084F83B3021
S31508011A2084F83C3084F83D3084F83E3084F83F3001
S31508011A30F0EE6B7AEB7285E6CBB1002384F84D3074
S31508011A4084F8283084F8293084F82A3084F82B3031
S31508011A5084F82C3084F82D3084F82E3084F82F3011
S31508011A60B0EE6ABA6B72DCE5F0EE4AAA9BE5B0EE17
S31508011A706ABAD6E5B0EE69AA57E5F0EE499A1BE5CA
S31508011A8008070020B8C2002030C30020F2EE087A09
S31508011A90B4EE679AF1EE10FA29D0F2EE0A7AF4EE6C
S31508011AA0679AF1EE10FA4DD194F94830207894F8F6
S31508011AB001C094F802E0E67825796179A27907EE02
S31508011AC0103AE37984E6F0EE4BBAE8E5B0EE689AA7
S31508011AD0B8E4F0EE6B7A35E65D4B19990022C1E957
S31508011AE00023D1E6D6ED007AF8EE678A74E494F914
S31508011AF04930207A94F809C094F80AE0E67A257BF9
S31508011B00617BA27B07EE103AE37B61E6F8EE677A22
S31508011B1018E6D6ED007AB8EE679A93E4D6ED007A20
S31508011B20F8EE67BABBE5D6ED007AB8EE67BA78E59E
S31508011B30D6ED007AF8EE67AA35E5D6ED007AF8EE25
S31508011B40679AB9E4F3EE057AB4EE67AAF1EE10FAEC
S31508011B501BD0F3EE067AF4EE67AAF1EE10FA29D154
S31508011B6094F94D3094F8280094F829C094F82AE09D
S31508011B7094F82B6094F82C5094F82D1094F82E2094
S31508011B8007EE103A94F82F3022E694F94C3094F87F
S31508011B90200094F821C094F822E094F8236094F880
S31508011BA0245094F8251094F8262007EE103A94F854
S31508011BB027300DE6F3EE077AB4EE67BAF1EE10FABE
S31508011BC014D194F9503094F8400094F841C094F82F
S31508011BD042E094F8436094F8445094F8451094F818
S31508011BE0462007EE103A94F84730F1E5F3EE087A05
S31508011BF0F4EE67BAF1EE10FA14D194F94F3094F86D
S31508011C00380094F839C094F83AE094F83B6094F8AF
S31508011C103C5094F83D1094F83E2007EE103A94F89B
S31508011C203F30D5E594F94E3094F8300094F831C038
S31508011C3094F832E094F8336094F8345094F83510F7
S31508011C4094F8362007EE103A94F83730C0E500BF0D
S31508011C500000F03F012108B5084615F045F80B21AB
S31508011C60012015F041F80C21012015F03DF80D2150
S31508011C70012015F039F81521012015F035F816213E
S31508011C80012015F031F81721012015F02DF818213A
S31508011C90012015F029F81A210120BDE8084015F0A0
S31508011CA023B800BF2DE9F04F2DED088B0D460968C5
S31508011CB0E34CE44E83B00131216029601699DDF8C1
S31508011CC05C900968316007EE901AB8EE678AF7EEFC
S31508011CD0007AB4EE678AF1EE10FA1F460446924678
S31508011CE0EB7940F09A820BB90123EB71DFF858833F
S31508011CF00022012143460092084615F021F80028E2
S31508011D0084F84B0040F3A28398F80130637698F87B
S31508011D100230A37698F80330E37698F804302377EF
S31508011D20D6ED007A98F80530637798F80630A377E8
S31508011D3098F8072098F80030E277F8EE678A237654
S31508011D40F2EE067AF4EE678AF1EE10FAAB7940F014
S31508011D50E3820BB90123AB71DFF8F0820022434617
S31508011D6000920B21012014F0EBFF002884F84A00A9
S31508011D7040F3838398F80130637498F80230A374AA
S31508011D8098F80330E37498F804302375D6ED007A91
S31508011D9098F80530637598F80630A37598F8072002
S31508011DA098F80030E275B8EE679A2374F2EE087A6D
S31508011DB0B4EE679AF1EE10FA6B7940F09C820BB992
S31508011DC001236B71DFF888820022434600920C21B9
S31508011DD0012014F0B5FF002884F8490040F3618317
S31508011DE0D6ED007A98F8073098F8062098F8051085
S31508011DF098F8040098F803E098F802C098F801B03A
S31508011E0098F8008084F809B0F8EE679A84F80AC051
S31508011E1084F80BE020736173A273E37384F8088076
S31508011E20F2EE0A7AF4EE679AF1EE10FA2B7940F09F
S31508011E3050820BB901232B71DFF818820022434621
S31508011E4000920D21012014F07BFF002884F8480038
S31508011E501BDD98F801B098F802E098F8030098F8A5
S31508011E6000C098F8041098F8052098F8063098F8F4
S31508011E70078084F8078084F801B084F800C084F8E4
S31508011E8002E0E07021716271A371D6ED007AB8EEB5
S31508011E9067AAF3EE057AB4EE67AAF1EE10FA2B7A81
S31508011EA040F0FD810BB901232B72DFF8AC810022CA
S31508011EB0434600921521012014F042FF002884F8B8
S31508011EC04C0040F3E98298F8013084F8213098F8FB
S31508011ED0023084F8223098F8033084F8233098F8D1
S31508011EE0043084F82430D6ED007A98F8053084F861
S31508011EF0253098F8063084F8263098F8072098F89F
S31508011F00003084F82720F8EE67AA84F82030F3EE2B
S31508011F10067AF4EE67AAF1EE10FA6B7A40F040827F
S31508011F200BB901236B72DFF8348100224346009214
S31508011F301621012014F004FF002884F84D0040F30F
S31508011F40A68298F8013084F8293098F8023084F886
S31508011F502A3098F8033084F82B3098F8043084F83E
S31508011F602C30D6ED007A98F8053084F82D3098F89B
S31508011F70063084F82E3098F8072098F8003084F84F
S31508011F802F20B8EE67BA84F82830F3EE077AB4EE54
S31508011F9067BAF1EE10FA2B7B40F0D0810BB9012319
S31508011FA02B73DFF8BC8000224346009217210120DB
S31508011FB014F0C6FE002884F8500040F3638298F8AE
S31508011FC0013084F8413098F8023084F8423098F8A4
S31508011FD0033084F8433098F8043084F84430D6ED59
S31508011FE0007A98F8053084F8453098F8063084F870
S31508011FF0463098F8072098F8003084F84720F8EE1C
S3150801200067BA84F84030F3EE087AF4EE67BAF1EE6F
S3150801201010FAEB7A40F0AB810BB90123EB72DFF8CA
S3150801202044800022434600921821012014F088FEBC
S31508012030002884F84F00D6ED007A40F31B8213E09E
S3150801204058C30020B4C90020A8060020B006002005
S3150801205038070020B8060020E0060020F006002018
S31508012060000700201807002098F8013084F8393055
S3150801207098F8023084F83A3098F8033084F83B30FF
S3150801208098F8043084F83C3098F8053084F83D30E7
S3150801209098F8063084F83E3098F8072098F800300A
S315080120A084F83F20F8EE677A84F83830B3EE0A7A76
S315080120B0F4EE477AF1EE10FAAB7A40F0D8800BB914
S315080120C00123AB72C84D00222B4600921A2101202A
S315080120D014F036FE002884F84E0017DD6B78AA78CE
S315080120E084F83130EB7884F8322084F833302A7951
S315080120F06B7984F83420A97984F83530EA792B7814
S3150801210084F8361084F8372084F83030F7EE007AF0
S31508012110B4EE678AF1EE10FA40F0928094F94B30EA
S31508012120207E94F819C094F81AE0E67E257F617F2F
S31508012130A27F07EE103AE37F99F8004007EE904A2E
S31508012140F8EEE77AF7EE006AF4EE667AF1EE10FA3F
S3150801215015D1F8EEC77AF5EE407AF1EE10FA57D1B5
S31508012160189C4FF002084FF0010B89F8008084F89B
S3150801217000B099F8004007EE904AF8EEE77AF0EEDB
S31508012180006AF4EE667AF1EE10FA37D1B8EEC77A3C
S31508012190B7EE008AB4EEC87AF1EE10FA38DBFB71B5
S315080121A0189B87F801C001243870BA7187F802E0D4
S315080121B0FE703D7179711C70159B8C4A1C704FF02D
S315080121C0030C89F800C0BAF800301380149A1380FA
S315080121D01AF0BAFF169BD3ED007A854BF8EE677AAB
S315080121E0C3E90001F4EE487AF1EE10FA00F028810D
S315080121F099F8003007EE903AF8EEE77AF5EE407A6C
S31508012200F1EE10FA04D1189A012389F800301370F7
S3150801221003B0BDEC088BBDE8F08F73B1002380F8DD
S315080122204B30037643768376C37603774377837792
S31508012230C377F0EE488AEB7182E5F0EE488A7FE5CE
S31508012240F2EE067AF4EE678AF1EE10FA40F0D280E1
S3150801225094F94A30207C94F811C094F812E0E67C8F
S31508012260257D617DA27D07EE103AE37D64E7002BAB
S315080122703FF44CAF002384F84E3084F8303084F8AC
S31508012280313084F8323084F8333084F8343084F8C5
S31508012290353084F8363084F83730AB7236E7002BA0
S315080122A000F09680002384F84C3084F8203084F8B6
S315080122B0213084F8223084F8233084F8243084F8D5
S315080122C0253084F8263084F82730F0EE4AAA2B7296
S315080122D01DE6002B00F08280002384F84830237025
S315080122E06370A370E37023716371A371E371B0EE38
S315080122F069AA2B71CDE5002B73D0002384F84930E8
S3150801230023726372A372E37223736373A373E37312
S31508012310F0EE499A6B7183E5002B00F08B80002360
S3150801232084F84A3023746374A374E374237563755C
S31508012330A375E375B0EE689AAB7137E5002B76D0D5
S31508012340002384F8503084F8403084F8413084F80A
S31508012350423084F8433084F8443084F8453084F8B0
S31508012360463084F84730F0EE4BBA2B734BE6002B18
S3150801237063D0002384F84F3084F8383084F8393034
S3150801238084F83A3084F83B3084F83C3084F83D30A0
S3150801239084F83E3084F83F30F0EE6B7AEB7285E6CE
S315080123A0CBB1002384F84D3084F8283084F82930DD
S315080123B084F82A3084F82B3084F82C3084F82D30B0
S315080123C084F82E3084F82F30B0EE6ABA6B72DCE5E9
S315080123D0F0EE4AAA9BE5B0EE6ABAD6E5B0EE69AA6E
S315080123E057E5F0EE499A1BE530070020DAC90020C7
S315080123F0B8C90020F2EE087AB4EE679AF1EE10FA3F
S3150801240029D0F2EE0A7AF4EE679AF1EE10FA4DD176
S3150801241094F94830207894F801C094F802E0E678F7
S3150801242025796179A27907EE103AE37984E6F0EE27
S315080124304BBAE8E5B0EE689AB8E4F0EE6B7A35E6A1
S315080124405D4B19990022C1E90023D1E6D6ED007A40
S31508012450F8EE678A74E494F94930207A94F809C049
S3150801246094F80AE0E67A257B617BA27B07EE103AAF
S31508012470E37B61E6F8EE677A18E6D6ED007AB8EE00
S31508012480679A93E4D6ED007AF8EE67BABBE5D6ED1E
S31508012490007AB8EE67BA78E5D6ED007AF8EE67AA5B
S315080124A035E5D6ED007AF8EE679AB9E4F3EE057AE2
S315080124B0B4EE67AAF1EE10FA1BD0F3EE067AF4EE43
S315080124C067AAF1EE10FA29D194F94D3094F828004B
S315080124D094F829C094F82AE094F82B6094F82C50C3
S315080124E094F82D1094F82E2007EE103A94F82F3010
S315080124F022E694F94C3094F8200094F821C094F817
S3150801250022E094F8236094F8245094F8251094F85E
S31508012510262007EE103A94F827300DE6F3EE077AEF
S31508012520B4EE67BAF1EE10FA14D194F9503094F872
S31508012530400094F841C094F842E094F8436094F856
S31508012540445094F8451094F8462007EE103A94F84A
S315080125504730F1E5F3EE087AF4EE67BAF1EE10FAD0
S3150801256014D194F94F3094F8380094F839C094F896
S315080125703AE094F83B6094F83C5094F83D1094F88E
S315080125803E2007EE103A94F83F30D5E594F94E30DF
S3150801259094F8300094F831C094F832E094F8336036
S315080125A094F8345094F8351094F8362007EE103A1A
S315080125B094F83730C0E500BF0000F03F2DE9F04F31
S315080125C083B00C460E9FDDF8348099460546324B9A
S315080125D0D7E90001164600221AF07AFC0123C7E959
S315080125E0000189F8003023682C4A0C9901331360DD
S315080125F02360D8F8003007EE903AB8EE677AF7EE1E
S31508012600007AB4EE677AF1EE10FA05D1DFF8889010
S315080126104FF00008C1E900893778019338461AF066
S3150801262093FDDFF884801E4A019B1360C8E9000107
S315080126302B602F7196F807E085F805E096F801C03A
S3150801264085F806C096F8028085F8078096F8039003
S3150801265085F8089096F804A085F809A096F805B0BB
S31508012660104C85F80AB0B079E8721946A07123466C
S3150801267008220120277084F805B084F804A084F89C
S31508012680039084F8028084F801C084F807E003B057
S31508012690BDE8F04F14F024B90000F03F68C30020EC
S315080126A0FCBB00202807002040C200204B780BB94C
S315080126B001234B700B7833B100230B700370194655
S315080126C0032016F01DB801230B7003701946032069
S315080126D016F016B8000000002DE9F04F87B0109CDF
S315080126E0DDF844B0DDF848A0002800F0B9829AF870
S315080126F0001011B901218AF800101E46149B1546CF
S315080127001888CDE900561AF02FFD2A463346CDE939
S3150801271002011AF0F7FF002800F06D811F9B0025C2
S315080127202570D3E900890022CF4B404649461BF064
S3150801273011F8002800F0CB829FEDC77B8DED047B55
S31508012740002600272573DBE90423DDE904011AF0D5
S3150801275071FDDBE9022380468946304639461AF07F
S3150801276093FE0022002306460F461AF0D5FF0028DD
S3150801277040F04583304639461AF08AF906460F462F
S31508012780494640461BF02EF83946054430461BF0AB
S3150801279029F81E9B28446070D3E900670022B34BD1
S315080127A0304639461AF0D6FF002840F0C482002286
S315080127B0AF4B304639461AF0C3FF002800F05A835A
S315080127C000220023304639461AF0A6FF4FF00105CC
S315080127D0002800F0918327F00049304649461AF04F
S315080127E057F9B04602460B4606460F464046494645
S315080127F01AF06CFBCDE90401ED01EDB2E572304644
S315080128003946DBE90A231AF015FDDBE90823804678
S315080128108946DDE904011AF037FE0022002306463F
S315080128200F461AF079FF002840F0088330463946EA
S315080128301AF02EF906460F46494640461AF0D2FFC7
S315080128403946054430461AF0CDFF1D9B2844A07031
S31508012850D3E900670022874B304639461AF07AFFDA
S31508012860002800F0A5829FED7E7B8DED047B814FCC
S3150801287000260025A57230463946DBE910231AF0F1
S31508012880D9FCDBE90E2380468946DDE904011AF005
S31508012890FBFD0022002306460F461AF03DFF0028DD
S315080128A040F07F82304639461AF0F2F806460F465E
S315080128B0494640461AF096FF3946054430461AF00D
S315080128C091FF1C9B2844E070D3E900670022694BFD
S315080128D0304639461AF03EFF002800F03B829FED4C
S315080128E0607B8DED047B634F0026002565723046BB
S315080128F03946DBE916231AF09DFCDBE914238046E9
S315080129008946DDE904011AF0BFFD002200230646C7
S315080129100F461AF001FF002840F015823046394665
S315080129201AF0B6F806460F46494640461AF05AFFC7
S315080129303946054430461AF055FF209B2844207134
S31508012940D3E900670022484B304639461AF002FFA0
S31508012950002840F0E8810022474B304639461AF0F4
S31508012960EFFE002800F07E82002200233046394619
S315080129701AF0D2FE4FF00105002800F0C18227F0B7
S315080129800049304649461AF083F8B04602460B46D6
S3150801299006460F46404649461AF098FACDE904011B
S315080129A0ED01EDB2257230463946DBE91C231AF0F2
S315080129B041FCDBE91A2380468946DDE904011AF060
S315080129C063FD0022002306460F461AF0A5FE0028DD
S315080129D040F03B82304639461AF05AF806460F4609
S315080129E0494640461AF0FEFE3946054430461AF075
S315080129F0F9FE28446071DDE90023DDE902011AF0D8
S31508012A00A9FE002800F0448119991C4B0022D1E93E
S31508012A1000011AF08BFE9AF80230002800F04F8167
S31508012A2013B901238AF80230154BDDE90001D3E910
S31508012A3000231AF04DFA149B064618880F461AF019
S31508012A4083FB00220B4B804689461AF041FA32462F
S31508012A503B4617E0AFF30080000000000000144079
S31508012A60000000000000000000001440000024409F
S31508012A70000024C00000F03F000014C000002E40F2
S31508012A80780000201AF022FA00220023CDE902017B
S31508012A901AF038FE002800F0F5811B9B1D78199B5A
S31508012AA0ED01EDB2E573D3E900011AF09BFE0001D1
S31508012AB05FFA80F8139B84F81080D3E900011AF0B5
S31508012AC091FE159B159A28444044187063795370F2
S31508012AD063789370A378D370E3781371237953716C
S31508012AE0237893712378D371179ADBF87C301360B6
S31508012AF0149B18881AF028FB32463B461AF0E6F969
S31508012B000022002306460F461AF0FCFD002840F075
S31508012B100781C14BD3E90089002200234046494673
S31508012B201AF0F0FD002840F0C78142464B46304670
S31508012B303946FDF783FA002300221AF0E3FD4FF028
S31508012B40010300B90346DBB2E3711A99B34B0022BC
S31508012B50D1E900011AF0EAFD002800F0A5809AF8EB
S31508012B60013013B901238AF80130AD4BDDE90001C3
S31508012B70D3E900231AF0ACF9149B064618880F46C8
S31508012B801AF0E2FA0022A74B804689461AF0A0F904
S31508012B9032463B461AF09AF900220023CDE9000194
S31508012BA01AF0B0FD002800F08A811B9B18781A9B41
S31508012BB0C0015FFA80F884F80D80D3E900011AF0A4
S31508012BC011FE0001C5B2139BA573D3E900011AF0E2
S31508012BD009FE169B169A2844404418706379537067
S31508012BE063789370A378D370E3781371237953715B
S31508012BF0237893712378D371189ADBF878301360A8
S31508012C00149B18881AF0A0FA32463B461AF05EF968
S31508012C1000220023804689461AF074FD002840F0F8
S31508012C206881814BD3E90067002200233046394683
S31508012C301AF068FD002840F0598132463B46404665
S31508012C404946FDF7FBF9002300221AF05BFD4FF018
S31508012C50010300B90346DBB2A37107B0BDE8F08FE3
S31508012C609AF80030002BF8D09AF8023013B1E071C7
S31508012C708AF802009AF8013013B100238AF8013064
S31508012C800023E371A3718AF8003007B0BDE8F08F1D
S31508012C909AF80230B3B9DDE90201DDE900231AF039
S31508012CA059FD00287FF451AF9AF80130002BD4D092
S31508012CB00023A3718AF8013007B0BDE8F08F002B15
S31508012CC03FF443AF0023E3718AF80230E3E70022B9
S31508012CD0564B404649461AF033FD00260027002880
S31508012CE000F0BA8029F000473946404619F0D0FE6F
S31508012CF002460B4640463946CDE904231AF0E6F862
S31508012D00002206460F460023404649461AF004FDAE
S31508012D104FF00105002800F0F180ED01EDB211E553
S31508012D200123E37111E79FED3A7B00268DED047BC4
S31508012D303F4F002536E69FED367B00268DED047B59
S31508012D403C4F00255AE53046394619F019FE064624
S31508012D500F46E9E50022384B304639461AF0F0FCB1
S31508012D60002800F0CF8000220023304639461AF0A9
S31508012D70D3FC4FF0010500B9054627F00049304656
S31508012D80494619F085FEB04602460B4606460F46E9
S31508012D90404649461AF09AF8ED01EDB2CDE904012B
S31508012DA0A4E53046394619F0EBFD06460F467FE5A0
S31508012DB00022214B304639461AF0C2FC002800F0A1
S31508012DC0A98000220023304639461AF0A5FC4FF0A7
S31508012DD0010500B9054627F000493046494619F06C
S31508012DE057FEB04602460B4606460F46404649463A
S31508012DF01AF06CF8ED01EDB2CDE904013AE5304679
S31508012E00394619F0BDFD06460F46B9E4AFF3008011
S31508012E1000000000000000006800002000002E40AD
S31508012E20800000200000F03F38000020000014C098
S31508012E3000001440000024400000F0BF3046394627
S31508012E4019F09EFD06460F46F6E43046394619F056
S31508012E5097FD06460F46C3E59FED457B80258DED1B
S31508012E60047B6FE49FED447B00268DED047B444F84
S31508012E70802597E59FED407B00268DED047B414F2C
S31508012E808025BBE4404B93ED007B0022002351ECE7
S31508012E90170B8DED047B1AF035FC002854D0324609
S31508012EA03B46404649461AF011F8002200231AF01B
S31508012EB029FC00287FF434AF0023E37145E6334B40
S31508012EC093ED007B0022002351EC170B8DED027B5D
S31508012ED01AF018FC30B332463B464046494619F0CB
S31508012EE0F5FF002200231AF00DFC10B90023A37187
S31508012EF0B3E60123A371B0E605466CE405460CE783
S31508012F0005463CE59FED1C7B00268DED047B204F95
S31508012F108025EBE49FED187B00268DED047B1C4F85
S31508012F208025A7E4DDE90223DDE90001FDF786F83E
S31508012F30002200231AF0E6FB00287FF436AE149B24
S31508012F4018881AF001F95FE6DDE90423DDE90201D3
S31508012F50FDF774F8002200231AF0D4FB00287FF449
S31508012F609CAD149B18881AF0EFF8C5E5AFF30080FD
S31508012F7000000000000014400000000000000000EE
S31508012F80000014400000244068000020380000209A
S31508012F900000F03F0B791BB10023437483740B7156
S31508012FA04B7843B1CB7813B10023C371CB708B78BF
S31508012FB043B900234B700023C3714374837183742F
S31508012FC00B70704700238B70F3E700BF2DE9F04FB4
S31508012FD0A1B09046359A19929946369A2D9B0B932C
S31508012FE01A922F9B379A16931B92309B389A0C93F9
S31508012FF01C92319B399A0D930E92329B3A9A1793EA
S315080130000F92339B3B9A18932A9DDDF8ACB02C9C02
S315080130102E9E349B10923C9A11923D9A12923E9A98
S3150801302013923F9A1492409A1D92419A1592429F81
S31508013030DDF80CA1002848D022780AB901222270AD
S31508013040CDE91E89D3E900890022354B4046494618
S315080130501AF058FB4FF0010E00283BD0404649466E
S3150801306000222F4B5FFA8EF81AF04CFB00283AD053
S3150801307023791BB100236B74AB742371159B3893A9
S31508013080149B3793139B3693129B3593119B349359
S31508013090109B33930F9B32930E9B31930D9B309369
S315080130A00C9B2F930B9B2D93DDE91E230134404680
S315080130B02C942E96CDF8ACB02A95CDF8E8A0399780
S315080130C021B0BDE8F04FFFF707BB237823B921B03C
S315080130D0BDE8F08F8646C1E72146284621B0BDE8FE
S315080130E0F04FFFF757BF1D9A09921C9A08921B9A2F
S315080130F007921A9A0692199A0592189A0492179A99
S315080131000392231D169A02928DE8480005F11102D1
S315080131100BF18003DDE91E01FDF75CFFAEE700BF99
S315080131200000F03F0B791BB10023437483740B71C4
S315080131304B7843B1CB7813B10023C371CB708B782D
S3150801314043B900234B700023C3714374837183749D
S315080131500B70704700238B70F3E700BF2DE9F04F22
S31508013160A1B09046359A19929946369A2D9B0B939A
S315080131701A922F9B379A16931B92309B389A0C9367
S315080131801C92319B399A0D930E92329B3A9A179358
S315080131900F92339B3B9A18932A9DDDF8ACB02C9C71
S315080131A02E9E349B10923C9A11923D9A12923E9A07
S315080131B013923F9A1492409A1D92419A1592429FF0
S315080131C0DDF80CA1002848D022780AB9012222701C
S315080131D0CDE91E89D3E900890022354B4046494687
S315080131E01AF090FA4FF0010E00283BD040464946A6
S315080131F000222F4B5FFA8EF81AF084FA00283AD08B
S3150801320023791BB100236B74AB742371159B389317
S31508013210149B3793139B3693129B3593119B3493C7
S31508013220109B33930F9B32930E9B31930D9B3093D7
S315080132300C9B2F930B9B2D93DDE91E2301344046EE
S315080132402C942E96CDF8ACB02A95CDF8E8A03997EE
