S02500002E2E2F48414E636F6465725F453430375F5454415F54656D706C6174652E737265636E
S31508004000C4CE0020E1C60108000000000000000040
S315080040100000000000000000000000000000000092
S31508004020000000000000000000000000D194010814
S3150800403000000000000000006D950108BD9501080C
S315080040400000000000000000000000000000000062
S315080040500000000000000000000000000000000052
S3150800406000000000ADA201080000000000000000EA
S315080040700000000000000000000000000000000032
S31508004080000000000000000000000000F988010898
S31508004090B1880108D58801081D89010800000000BB
S315080040A099A2010885A2010871A2010861A2010866
S315080040B04DA2010839A2010825A201080000000046
S315080040C000000000000000000000000000000000E2
S315080040D000000000B1AC0108C9AC0108E1AC010858
S315080040E00000000000000000A9AD01080000000063
S315080040F011A20108FDA10108EDA1010800000000B8
S315080041000000000011AD01080000000000000000DA
S315080041100000000000000000000000000000000091
S3150800412000000000000000000000000015AD0108B6
S3150800413000000000DDA201080000000089890108CE
S315080041404189010865890108AD890108D9AD0108C9
S31508004150000000000000000000000000F9AC0108A3
S315080041600000000000000000000000000000000041
S315080041700000000000000000000000000000000031
S311080041800000000000000000EE11AA5527
S3150800C000000000000000000000000000000044409E
S3150800C0100000000000004640000000000000474005
S3150800C02000000000000048400000000000004940F1
S3150800C0300000000000004A400000000000005740D1
S3150800C04000000000000058400000000000005940B1
S3150800C05000000000008061400000000000C0614050
S3150800C06000000000000062400000000000806240FE
S3150800C07000000000008067400000000000006840E3
S3150800C08000000000008068400000000000006940D1
S3150800C09000000000008069400000000000006A40BF
S3150800C0A00000000000000000000000000000F03F53
S3150800C0B0000000000000F03F000000000000F03F14
S3150800C0C0000000000000F03F000000000000F03F04
S3150800C0D00000000000000000000000000000F03F23
S3150800C0E0000000000000F03F000000000000000013
S3150800C0F0000000000000F03F000000000000F03FD4
S3150800C100000000000000F03F0000000000000000F2
S3150800C110000000000000F03F000000000000F03FB3
S3150800C120000000000000F03F000000000000F03FA3
S3150800C130000000000000F03F000000000000F03F93
S3150800C14000000101010001000101000000010001D9
S3150800C1500000000000007240000000000000464099
S3150800C16000000000000048400000000000004440B5
S3150800C17000000000000069400000000000806940DF
S3150800C1800000000000806A400000000000006A40CD
S3150800C1900000000000004640000000000000484083
S3150800C1A00000000000004A4000000000000059405E
S3150800C1B000000000000058400000000000806240B7
S3150800C1C00000000000006240000000000080684097
S3150800C1D00000000000006840000000000000444025
S3150800C1E00000000000806740000000000000574083
S3150800C1F00000000000806140000000000000F03FE1
S3150800C200000000000000000101000000010000001D
S3150800C2100100000001000000000000000D00000001
S3150800C2200D0000000D0000000D00000000000000D9
S3150800C2300C0000000C0000000C0000000C000000C0
S3150800C240000000000B0000000B0000000B000000BF
S3150800C2500B000000000000000100000001000000C3
S3150800C26001000000010000000000000000000000BE
S3150800C2706464640048414E636F6465725F45343098
S3150800C280375F5454415F54656D706C6174655F73B4
S3150800C2906F66747761726549445F76315F31353010
S3150800C2A03232325F303934363234000041707043EE
S3150800C2B074726C5461736B0048414E636F646572A7
S3150800C2C05F453430375F5454415F54656D706C6117
S3150800C2D074652E6300000000200000000014024070
S3150800C2E008000900200000000014024010000E009B
S3150800C2F0200000000014024020000F00200000006B
S3150800C300001402404000040020000000001402400F
S3150800C310800005002000000000140240000106000D
S3150800C3202000000000140240000207002000000060
S3150800C330001402400004080004000000000802403F
S3150800C34001000A00040000000008024004000C0076
S3150800C350414443636F6E76657273696F6E54617399
S3150800C3606B0000002E2E2F626C6F636B7365742F43
S3150800C3707274772F53544D33322F7372632F686557
S3150800C38061705F342E630000546D724370754C6F94
S3150800C3906164000049444C45000000002E2E2F62BF
S3150800C3A06C6F636B7365742F7274772F53544D33A8
S3150800C3B0322F7372632F7461736B732E63000000E0
S3150800C3C02E2E2F626C6F636B7365742F7274772FC2
S3150800C3D053544D33322F7372632F74696D657273BC
S3150800C3E02E630000546D72205376630043616E45D8
S3150800C3F076656E745461736B0000000043616E5479
S3150800C40072616E736D69745461736B002E2E2F62A0
S3150800C4106C6F636B7365742F7274772F53544D3337
S3150800C420322F7372632F53544D33325F453430378E
S3150800C4302F63616E2E630000006400400000000256
S3150800C44008000000000C024001000000080000007F
S3150800C450000C024002000100091314151600000022
S3150800C46000680040000000040200000000040240CA
S3150800C47020000500020000000004024040000600FB
S3150800C480093F404142000000010102010202020286
S3150800C490020302020402020303030403030503035F
S3150800C4A00603030504040604040704040804040731
S3150800C4B00505080505080605080705080706080806
S3150800C4C00608080708080800457643686E6C3100B8
S3150800C4D0457643686E6C3200457643686E6C330069
S3150800C4E02E2E2F626C6F636B7365742F7274772FA1
S3150800C4F053544D33322F7372632F53544D33325F77
S3150800C500453430372F6D61632E6300002E2E2F625F
S3150800C5106C6F636B7365742F7274772F53544D3336
S3150800C520322F7372632F53544D33325F453430378D
S3150800C5302F706F72742E6300000001400100000026
S3150800C540020100001000000000100240000209006D
S3150800C550100000000010024000080B000004004014
S3150800C5600200000001020000010000000000024075
S3150800C57040000600020000000004024020000500FA
S3150800C5800008004004000000010200000800000046
S3150800C590000C024000100C0008000000000C0240CD
S3150800C5A000200D0000040140020000000203000004
S3150800C5B004000000000802404000060004000000D5
S3150800C5C0000802408000070000000140010000004A
S3150800C5D002011900000000400100000001021C00D1
S3150800C5E0000400400200000001021D00000800408F
S3150800C5F00400000001021E000004014002000000C1
S3150800C60002012C0000400140000001000201180050
S3150800C61000440140000002000201190000480140E0
S3150800C6200000040002011A00001C004080000000FF
S3150800C63001022C00002000400001000001022D002C
S3150800C640040000000008024001000000200000006D
S3150800C65000140240400000002000000000140240C0
S3150800C66080000000200000000014024000010000C5
S3150800C6702000000000140240000200002000000014
S3150800C68000140240000400000200000000040240FA
S3150800C6908000000002000000000402404000000084
S3150800C6A01000000000100240040000001000000006
S3150800C6B000100240100000001000000000100240A8
S3150800C6C0200000001000000000100240400000009A
S3150800C6D040000000001802408000000040000000F2
S3150800C6E00018024000010000400000000018024047
S3150800C6F00010000040000000001802400080000002
S3150800C70001000000000002401000000002000000C6
S3150800C7100004024020000000010000000000024062
S3150800C7204000000001000000000002402000000058
S3150800C73008000000000C024001000000080000008C
S3150800C740000C02400200000008000000000C024035
S3150800C7500400000008000000000C02400800000069
S3150800C76008000000000C024010000000080000004D
S3150800C770000C02402000000008000000000C0240E7
S3150800C7804000000008000000000C02408000000085
S3150800C79008000000000C024000010000080000002C
S3150800C7A0000C02400002000008000000000C0240D5
S3150800C7B00004000008000000000C02400008000009
S3150800C7C008000000000C02400010000008000000ED
S3150800C7D0000C02400020000008000000000C024087
S3150800C7E00040000008000000000C02400080000025
S3150800C7F010000000001002400100000010000000B8
S3150800C8000010024002000000100000000010024064
S3150800C8100800000010000000001002408000000020
S3150800C8201000000000100240000100001000000087
S3150800C8300010024000020000100000000010024034
S3150800C840000400001000000000100240000800006C
S3150800C8501000000000100240001000001000000048
S3150800C86000100240002000001000000000100240E6
S3150800C8700040000010000000001002400080000088
S3150800C8802000000000140240010000002000000003
S3150800C89000140240020000002000000000140240BC
S3150800C8A004000000200000000014024008000000F8
S3150800C8B020000000001402401000000020000000C4
S3150800C8C0001402402000000020000000001402406E
S3150800C8D000080000200000000014024000100000BC
S3150800C8E02000000000140240002000002000000084
S3150800C8F0001402400040000020000000001402401E
S3150800C90000800000400000000018024001000000FE
S3150800C910400000000018024002000000400000002D
S3150800C9200018024004000000400000000018024001
S3150800C9300800000040000000001802401000000037
S3150800C94040000000001802402000000040000000DF
S3150800C9500018024040000000400000000018024095
S3150800C9600002000040000000001802400004000019
S3150800C97040000000001802400008000040000000C7
S3150800C9800018024000200000400000000018024085
S3150800C9900040000001000000000002400100000005
S3150800C9A0040000000008024001000000200000000A
S3150800C9B0001402404000000020000000001402405D
S3150800C9C08000000020000000001402400001000062
S3150800C9D020000000001402400002000020000000B1
S3150800C9E00014024000040000020000000004024097
S3150800C9F08000000002000000000402404000000021
S3150800CA0010000000001002400400000010000000A2
S3150800CA100010024010000000100000000010024044
S3150800CA202000000010000000001002404000000036
S3150800CA30400000000018024080000000400000008E
S3150800CA4000180240000100004000000000180240E3
S3150800CA50001000004000000000180240008000009E
S3150800CA600100000000000240100000000200000063
S3150800CA7000040240200000000100000000000240FF
S3150800CA8040000000010000000000024020000000F5
S3150800CA9008000000000C0240010000000800000029
S3150800CAA0000C02400200000008000000000C0240D2
S3150800CAB00400000008000000000C02400800000006
S3150800CAC008000000000C02401000000008000000EA
S3150800CAD0000C02402000000008000000000C024084
S3150800CAE04000000008000000000C02408000000022
S3150800CAF008000000000C02400001000008000000C9
S3150800CB00000C02400002000008000000000C024071
S3150800CB100004000008000000000C024000080000A5
S3150800CB2008000000000C0240001000000800000089
S3150800CB30000C02400020000008000000000C024023
S3150800CB400040000008000000000C024000800000C1
S3150800CB501000000000100240010000001000000054
S3150800CB600010024002000000100000000010024001
S3150800CB7008000000100000000010024080000000BD
S3150800CB801000000000100240000100001000000024
S3150800CB9000100240000200001000000000100240D1
S3150800CBA00004000010000000001002400008000009
S3150800CBB010000000001002400010000010000000E5
S3150800CBC00010024000200000100000000010024083
S3150800CBD00040000010000000001002400080000025
S3150800CBE020000000001402400100000020000000A0
S3150800CBF00014024002000000200000000014024059
S3150800CC000400000020000000001402400800000094
S3150800CC102000000000140240100000002000000060
S3150800CC20001402402000000020000000001402400A
S3150800CC300008000020000000001402400010000058
S3150800CC402000000000140240002000002000000020
S3150800CC5000140240004000002000000000140240BA
S3150800CC60008000004000000000180240010000009B
S3150800CC7040000000001802400200000040000000CA
S3150800CC80001802400400000040000000001802409E
S3150800CC9008000000400000000018024010000000D4
S3150800CCA0400000000018024020000000400000007C
S3150800CCB00018024040000000400000000018024032
S3150800CCC000020000400000000018024000040000B6
S3150800CCD04000000000180240000800004000000064
S3150800CCE00018024000200000400000000018024022
S3150800CCF00040000004000000000802400020000078
S3150800CD00000001400100000002011B000000004075
S3150800CD100100000001021C0000040040020000009F
S3150800CD2001021D00000800400400000001021E0068
S3150800CD30000401400200000002012E0000400140EC
S3150800CD400000010002011800004401400000020032
S3150800CD5002011900004801400000040002011A00FF
S3150800CD60001C00408000000001022C00002000404A
S3150800CD700001000001022D00100000000010024012
S3150800CD800002000002000200010009001000000075
S3150800CD9000100240000800010400200001000B00FA
S3150800CDA010000000001002400020000208000002E7
S3150800CDB001000D00100000000010024000400003B2
S3150800CDC01000002001000E000100000000000240D3
S3150800CDD02000010002000200010005000100000019
S3150800CDE000000240400002000200020002000600A5
S3150800CDF00200000000040240200002010400200096
S3150800CE000200050008000000000C024000100300A4
S3150800CE100200020002000C0008000000000C02409C
S3150800CE20002003010400200002000D000400000099
S3150800CE300008024040000400020002000300060049
S3150800CE4004000000000802408000040104002000DD
S3150800CE500300070010000000001002402000050033
S3150800CE600200020003000500100000000010024046
S3150800CE704000050104002000030006002000000011
S3150800CE8000140240400006000200020003000600EB
S3150800CE902000000000140240800007000200020083
S3150800CEA003000700200000000014024000010800EB
S3150800CEB002000200090008002000000000140240D9
S3150800CEC000020900020002000900090000100140E2
S3150800CED010000000022500000200000000040240C5
S3150800CEE0400006000200000000040240800007001F
S3150800CEF00700000000440040000002000126000070
S3150800CF0008000000000C0240200005000800000090
S3150800CF10000C0240400006000700000000480040E0
S3150800CF20000004000127000008000000000C024071
S3150800CF300001080008000000000C02400002090079
S3150800CF40070000000014014020000000024700000E
S3150800CF50040000000008024040000600040000002B
S3150800CF6000080240800007000800000056435020D1
S3150800CF70436F6E666967000056435020496E7465B4
S3150800CF80726661636500000053544D6963726F658C
S3150800CF906C656374726F6E696373000053544D3326
S3150800CFA032205669727475616C20436F6D506F72CA
S3150800CFB07420696E204853206D6F64650000000078
S3150800CFC053544D3332205669727475616C20436F21
S3150800CFD06D506F727420696E204653204D6F6465DC
S3150800CFE000000000303030303030303030353042DC
S3150800CFF000000000303030303030303030353043CB
S3150800D00000000000000001400100000002011B00B2
S3150800D010000000400100000001021C00000400405E
S3150800D0200200000001021D00000800400400000084
S3150800D03001021E00000401400200000002012E0049
S3150800D04000400140000001000201180000440140B0
S3150800D0500000020002011900004801400000040017
S3150800D06002011A00001C00408000000001022C008A
S3150800D070002000400001000001022D001000000001
S3150800D0800010024000020000020002000100090030
S3150800D09010000000001002400008000104002000F3
S3150800D0A001000B00100000000010024000200002E2
S3150800D0B00800000201000D001000000000100240E8
S3150800D0C0004000031000002001000E0001000000CF
S3150800D0D000000240200001000200020001000500D5
S3150800D0E001000000000002404000020002000200A9
S3150800D0F002000600020000000004024020000201AF
S3150800D100040020000200050008000000000C024090
S3150800D110001003000200020002000C0008000000D4
S3150800D120000C0240002003010400200002000D004C
S3150800D130040000000008024040000400020002004B
S3150800D14003000600040000000008024080000401F5
S3150800D1500400200003000700100000000010024031
S3150800D1602000050002000200030005001000000070
S3150800D17000100240400005010400200003000600DC
S3150800D18020000000001402404000060002000200D1
S3150800D190030006002000000000140240800007007B
S3150800D1A002000200030007002000000000140240ED
S3150800D1B00001080002000200090008002000000023
S3150800D1C000140240000209000200020009000900DA
S3150800D1D02E2E2F626C6F636B7365742F7274772FA4
S3150800D1E053544D33322F7372632F71756575652EDF
S3150800D1F0630000000404040008D2000810D20008E6
S3150800D20018D2000807070700457643686E6C310098
S3150800D210457643686E6C3200457643686E6C33001B
S3150800D22050505000666D6F6400000000000000005A
S3150800D2300000000000000000000000000000008060
S3090800D2404300000099
S315080100000B78FF2B00D070474B78002BFBD106F0FD
S31508010010DFBD00BF08B5012006F0E6F8034A40F245
S3150801002067610020BDE8084008F028BE0100010804
S31508010030002005F05DBF00BF704700BF2DE9F047FE
S31508010040DDF820E0099E9EF800C004460D4692465A
S315080100501F46BCF1000F02D101238EF8003030880B
S315080100600EF0DEFF22462B46804689460FF0A6FA99
S31508010070E0B10E9A3B6813600D9A7B6813600C9A7F
S31508010080BB7A1370109A3B7A13700B9AFB7A13702A
S315080100900F9A7B7A13700A9A002313605360119A98
S315080100A0137030880EF0BCFF8046894642464B469F
S315080100B0204629460FF08CFA68B10B9B1B78D3B9F9
S315080100C001238AF800300C9B1B787BB901238AF837
S315080100D00130BDE8F087002642464B4620462946B0
S315080100E08AF800600FF074FA0028ECD100238AF828
S315080100F00130BDE8F08700238AF800300C9B1B7895
S31508010100002BF3D1E2E700BF2DE9F04F83B0164685
S315080101101F4682468B460EF09FFC002200230446AA
S315080101200D460FF04BFAD8BB804600220023204625
S3150801013029465FFA88F80FF041FA50B93046394630
S315080101400EF002FC02460B46304639460FF05EFABF
S3150801015090BBB8F1000F5FD15046594600220023E3
S315080101604FF001090FF034FA20B30023002230467C
S3150801017039460FF02DFA4FF00103A0B15FFA89F95C
S31508010180DBB2994507D02046294632463B460EF052
S31508010190FBFD04460D462046294603B0BDE8F08F0F
S315080101A04FF00108C1E703465FFA89F9DBB29945C1
S315080101B0E9D1F0E7C146D8E732463B4650465946AB
S315080101C00FF0BEF821F000490022194B4946804636
S315080101D00EF0DAFD0EF0B8FB02460B4640464946DC
S315080101E00EF0D0FD0B46024623F00043404600922E
S315080101F0019300220F4B49460EF078FF02460B4643
S31508010200DDE900010FF0EEF94FF0010858B15FFA88
S3150801021088F8B8F1000F9FD000240025204629460A
S3150801022003B0BDE8F08F80465FFA88F8F1E700BFB2
S315080102300000E03F0000B03C2DE9F0410999089C17
S3150801024091F800E0DDF82880054616461F46BEF1FE
S31508010250000F01D101230B702B785B00DBB25A0921
S3150801026007EE902AB8EEE77AF7EE007AB4EEE77A67
S31508010270F1EE10FAA372227307DDD8E90001002214
S315080102801B4B0EF081FDC8E900012878C00960738F
S315080102902B781B01DBB24FEA1318637284F80B80C3
S315080102A00EF0BEFE32463B460FF088F950B1404685
S315080102B00EF0B6FEDDE906230FF080F94FF00103D3
S315080102C098B1D8B220726B782370AB786370EB78EB
S315080102D0A3702B79E3706B792371AB796371EB7931
S315080102E0A3710023E371BDE8F0810346E9E700BF86
S315080102F00000F03F2DE9F0410999089C91F800E0CA
S31508010300DDF82880054616461F46BEF1000F01D1C5
S3150801031001230B702B785B00DBB25A0907EE902A92
S31508010320B8EEE77AF7EE007AB4EEE77AF1EE10FA6C
S31508010330A372227307DDD8E9000100221B4B0EF0D8
S3150801034023FDC8E900012878C00960732B781B01D1
S31508010350DBB24FEA1318637284F80B800EF060FE65
S3150801036032463B460FF02AF950B140460EF058FE88
S31508010370DDE906230FF022F94FF0010398B1D8B24F
S3150801038020726B782370AB786370EB78A3702B7946
S31508010390E3706B792371AB796371EB79A3710023F0
S315080103A0E371BDE8F0810346E9E700BF0000F03FCD
S315080103B02DE9F04F83B00C460E9FDDF8348099463F
S315080103C00546324BD7E90001164600220EF0DCFC41
S315080103D00123C7E9000189F8003023682C4A0C99E2
S315080103E0013313602360D8F8003007EE903AB8EE6F
S315080103F0677AF7EE007AB4EE677AF1EE10FA05D16C
S31508010400DFF888904FF00008C1E900893778019331
S3150801041038460EF0F5FDDFF884801E4A019B13600D
S31508010420C8E900012B602F7196F807E085F805E009
S3150801043096F801C085F806C096F8028085F8078007
S3150801044096F8039085F8089096F804A085F809A00F
S3150801045096F805B0104C85F80AB0B079E8721946D5
S31508010460A071234608220020277084F805B084F875
S3150801047004A084F8039084F8028084F801C084F803
S3150801048007E003B0BDE8F04F08F084B90000F03F7B
S3150801049014BF0020F0BC0020D006002040BF002079
S315080104A008B50121002008F079FB0B21002008F08E
S315080104B075FB0C21002008F071FB0D21002008F0C6
S315080104C06DFB1521002008F069FB1621002008F0B4
S315080104D065FB1721002008F061FB1821002008F0B0
S315080104E05DFB19210020BDE8084008F057BB00BF95
S315080104F02DE9F04F2DED088B0D460968E34CE44EC6
S3150801050083B00131216029601699DDF85C9009688C
S31508010510316007EE901AB8EE678AF7EE007AB4EE04
S31508010520678AF1EE10FA1F4604469246EB7940F0C7
S315080105309A820BB90123EB71DFF8588300224346EF
S3150801054000921046012108F055FB002884F84B005B
S3150801055040F3A28398F80130637698F80230A376BF
S3150801056098F80330E37698F804302377D6ED007AC5
S3150801057098F80530637798F80630A37798F8072036
S3150801058098F80030E277F8EE678A2376F2EE067A73
S31508010590F4EE678AF1EE10FAAB7940F0E3820BB913
S315080105A00123AB71DFF8F082002243460092104620
S315080105B00B2108F01FFB002884F84A0040F38383C7
S315080105C098F80130637498F80230A37498F80330E8
S315080105D0E37498F804302375D6ED007A98F8053057
S315080105E0637598F80630A37598F8072098F80030CF
S315080105F0E275B8EE679A2374F2EE087AB4EE679A52
S31508010600F1EE10FA6B7940F09C820BB901236B71FC
S31508010610DFF8888200224346009210460C2108F032
S31508010620E9FA002884F8490040F36183D6ED007A97
S3150801063098F8073098F8062098F8051098F80400F5
S3150801064098F803E098F802C098F801B098F8008085
S3150801065084F809B0F8EE679A84F80AC084F80BE0C2
S3150801066020736173A273E37384F80880F2EE0A7A41
S31508010670F4EE679AF1EE10FA2B7940F050820BB935
S3150801068001232B71DFF81882002243460092104697
S315080106900D2108F0AFFA002884F848001BDD98F808
S315080106A001B098F802E098F8030098F800C098F8A5
S315080106B0041098F8052098F8063098F8078084F809
S315080106C0078084F801B084F800C084F802E0E0707D
S315080106D021716271A371D6ED007AB8EE67AAF3EEBD
S315080106E0057AB4EE67AAF1EE10FA2B7A40F0FD818D
S315080106F00BB901232B72DFF8AC8100224346009225
S315080107001046152108F076FA002884F84C0040F3C3
S31508010710E98298F8013084F8213098F8023084F893
S31508010720223098F8033084F8233098F8043084F896
S315080107302430D6ED007A98F8053084F8253098F8F3
S31508010740063084F8263098F8072098F8003084F89F
S315080107502720F8EE67AA84F82030F3EE067AF4EE3D
S3150801076067AAF1EE10FA6B7A40F040820BB90123C1
S315080107706B72DFF834810022434600921046162137
S3150801078008F038FA002884F84D0040F3A68298F854
S31508010790013084F8293098F8023084F82A3098F81C
S315080107A0033084F82B3098F8043084F82C30D6EDD1
S315080107B0007A98F8053084F82D3098F8063084F8D0
S315080107C02E3098F8072098F8003084F82F20B8EED4
S315080107D067BA84F82830F3EE077AB4EE67BAF1EE11
S315080107E010FA2B7B40F0D0810BB901232B73DFF86C
S315080107F0BC800022434600921046172108F0FAF9F8
S31508010800002884F8500040F3638298F8013084F890
S31508010810413098F8023084F8423098F8033084F869
S31508010820433098F8043084F84430D6ED007A98F8C5
S31508010830053084F8453098F8063084F8463098F83B
S31508010840072098F8003084F84720F8EE67BA84F84C
S315080108504030F3EE087AF4EE67BAF1EE10FAEB7A65
S3150801086040F0AB810BB90123EB72DFF8448000221B
S31508010870434600921046182108F0BCF9002884F86E
S315080108804F00D6ED007A40F31B8213E0A8BC002086
S315080108900CBD002060060020A8060020B80600202E
S315080108A0C806002068060020700600208006002081
S315080108B09006002098F8013084F8393098F802300B
S315080108C084F83A3098F8033084F83B3098F80430C5
S315080108D084F83C3098F8053084F83D3098F80630AD
S315080108E084F83E3098F8072098F8003084F83F20BD
S315080108F0F8EE677A84F83830B3EE097AF4EE477A77
S31508010900F1EE10FAAB7A40F0D8800BB90123AB723D
S31508010910C84D00222B4600921046192108F06AF9A3
S31508010920002884F84E0017DD6B78AA7884F83130F0
S31508010930EB7884F8322084F833302A796B7984F895
S315080109403420A97984F83530EA792B7884F8361079
S3150801095084F8372084F83030F7EE007AB4EE678AE7
S31508010960F1EE10FA40F0928094F94B30207E94F81B
S3150801097019C094F81AE0E67E257F617FA27F07EE0B
S31508010980103AE37F99F8004007EE904AF8EEE77AC5
S31508010990F7EE006AF4EE667AF1EE10FA15D1F8EE82
S315080109A0C77AF5EE407AF1EE10FA57D1189C4FF056
S315080109B002084FF0010B89F8008084F800B099F815
S315080109C0004007EE904AF8EEE77AF0EE006AF4EE98
S315080109D0667AF1EE10FA37D1B8EEC77AB7EE008A21
S315080109E0B4EEC87AF1EE10FA38DBFB71189B87F87A
S315080109F001C001243870BA7187F802E0FE703D71B2
S31508010A0079711C70159B8C4A1C704FF0030C89F880
S31508010A1000C0BAF800301380149A13800EF0F0FA69
S31508010A20169BD3ED007A854BF8EE677AC3E9000188
S31508010A30F4EE487AF1EE10FA00F0288199F80030C0
S31508010A4007EE903AF8EEE77AF5EE407AF1EE10FA0B
S31508010A5004D1189A012389F80030137003B0BDEC4C
S31508010A60088BBDE8F08F73B1002380F84B3003760D
S31508010A7043768376C376037743778377C377F0EE36
S31508010A80488AEB7182E5F0EE488A7FE5F2EE067A4E
S31508010A90F4EE678AF1EE10FA40F0D28094F94A3002
S31508010AA0207C94F811C094F812E0E67C257D617DDE
S31508010AB0A27D07EE103AE37D64E7002B3FF44CAFC5
S31508010AC0002384F84E3084F8303084F8313084F8C5
S31508010AD0323084F8333084F8343084F8353084F889
S31508010AE0363084F83730AB7236E7002B00F0968043
S31508010AF0002384F84C3084F8203084F8213084F8B7
S31508010B00223084F8233084F8243084F8253084F898
S31508010B10263084F82730F0EE4AAA2B721DE6002B00
S31508010B2000F08280002384F8483023706370A37034
S31508010B30E37023716371A371E371B0EE69AA2B7136
S31508010B40CDE5002B73D0002384F8493023726372F4
S31508010B50A372E37223736373A373E373F0EE499A83
S31508010B606B7183E5002B00F08B80002384F84A30F3
S31508010B7023746374A374E37423756375A375E375AA
S31508010B80B0EE689AAB7137E5002B76D0002384F86E
S31508010B90503084F8403084F8413084F8423084F883
S31508010BA0433084F8443084F8453084F8463084F874
S31508010BB04730F0EE4BBA2B734BE6002B63D000237C
S31508010BC084F84F3084F8383084F8393084F83A306C
S31508010BD084F83B3084F83C3084F83D3084F83E3064
S31508010BE084F83F30F0EE6B7AEB7285E6CBB10023E1
S31508010BF084F84D3084F8283084F8293084F82A306E
S31508010C0084F82B3084F82C3084F82D3084F82E3073
S31508010C1084F82F30B0EE6ABA6B72DCE5F0EE4AAAB8
S31508010C209BE5B0EE6ABAD6E5B0EE69AA57E5F0EEED
S31508010C30499A1BE5A006002008BD002030BD00200A
S31508010C40F2EE087AB4EE679AF1EE10FA29D0F2EECE
S31508010C500A7AF4EE679AF1EE10FA4DD194F9483012
S31508010C60207894F801C094F802E0E678257961794C
S31508010C70A27907EE103AE37984E6F0EE4BBAE8E595
S31508010C80B0EE689AB8E4F0EE6B7A35E65D4B1999E1
S31508010C900022C1E90023D1E6D6ED007AF8EE678A8B
S31508010CA074E494F94930207A94F809C094F80AE072
S31508010CB0E67A257B617BA27B07EE103AE37B61E648
S31508010CC0F8EE677A18E6D6ED007AB8EE679A93E4F5
S31508010CD0D6ED007AF8EE67BABBE5D6ED007AB8EE3E
S31508010CE067BA78E5D6ED007AF8EE67AA35E5D6ED66
S31508010CF0007AF8EE679AB9E4F3EE057AB4EE67AAD4
S31508010D00F1EE10FA1BD0F3EE067AF4EE67AAF1EECD
S31508010D1010FA29D194F94D3094F8280094F829C08D
S31508010D2094F82AE094F82B6094F82C5094F82D1036
S31508010D3094F82E2007EE103A94F82F3022E694F90B
S31508010D404C3094F8200094F821C094F822E094F8E5
S31508010D50236094F8245094F8251094F8262007EE79
S31508010D60103A94F827300DE6F3EE077AB4EE67BA2F
S31508010D70F1EE10FA14D194F9503094F8400094F831
S31508010D8041C094F842E094F8436094F8445094F8CA
S31508010D90451094F8462007EE103A94F84730F1E5E5
S31508010DA0F3EE087AF4EE67BAF1EE10FA14D194F973
S31508010DB04F3094F8380094F839C094F83AE094F82A
S31508010DC03B6094F83C5094F83D1094F83E2007EEA9
S31508010DD0103A94F83F30D5E594F94E3094F830003E
S31508010DE094F831C094F832E094F8336094F83450AA
S31508010DF094F8351094F8362007EE103A94F83730FF
S31508010E00C0E500BF0000F03F012108B5084607F01C
S31508010E10C5FE0B21012007F0C1FE0C21012007F0B8
S31508010E20BDFE0D21012007F0B9FE1521012007F0AD
S31508010E30B5FE1621012007F0B1FE1721012007F0A2
S31508010E40ADFE1821012007F0A9FE19210120BDE8F0
S31508010E50084007F0A3BE00BF2DE9F04F2DED088B22
S31508010E600D460968E34CE44E83B0013121602960DF
S31508010E701699DDF85C900968316007EE901AB8EEAC
S31508010E80678AF7EE007AB4EE678AF1EE10FA1F4622
S31508010E9004469246EB7940F09A820BB90123EB712D
S31508010EA0DFF858830022012143460092084607F0DD
S31508010EB0A1FE002884F84B0040F3A28398F801307C
S31508010EC0637698F80230A37698F80330E37698F8B3
S31508010ED004302377D6ED007A98F80530637798F8C9
S31508010EE00630A37798F8072098F80030E277F8EEED
S31508010EF0678A2376F2EE067AF4EE678AF1EE10FA3D
S31508010F00AB7940F0E3820BB90123AB71DFF8F082CC
S31508010F100022434600920B21012007F06BFE0028B0
S31508010F2084F84A0040F3838398F80130637498F88B
S31508010F300230A37498F80330E37498F804302375E3
S31508010F40D6ED007A98F80530637598F80630A375DA
S31508010F5098F8072098F80030E275B8EE679A237476
S31508010F60F2EE087AB4EE679AF1EE10FA6B7940F070
S31508010F709C820BB901236B71DFF8888200224346F4
S31508010F8000920C21012007F035FE002884F849005B
S31508010F9040F36183D6ED007A98F8073098F8062071
S31508010FA098F8051098F8040098F803E098F802C034
S31508010FB098F801B098F8008084F809B0F8EE679AB5
S31508010FC084F80AC084F80BE020736173A273E37393
S31508010FD084F80880F2EE0A7AF4EE679AF1EE10FACE
S31508010FE02B7940F050820BB901232B71DFF8188257
S31508010FF00022434600920D21012007F0FBFD00283F
S3150801100084F848001BDD98F801B098F802E098F8D2
S31508011010030098F800C098F8041098F8052098F885
S31508011020063098F8078084F8078084F801B084F8B8
S3150801103000C084F802E0E07021716271A371D6EDF7
S31508011040007AB8EE67AAF3EE057AB4EE67AAF1EE6E
S3150801105010FA2B7A40F0FD810BB901232B72DFF8C8
S31508011060AC810022434600921521012007F0C2FDFA
S31508011070002884F84C0040F3E98298F8013084F896
S31508011080213098F8023084F8223098F8033084F831
S31508011090233098F8043084F82430D6ED007A98F88D
S315080110A0053084F8253098F8063084F8263098F803
S315080110B0072098F8003084F82720F8EE67AA84F804
S315080110C02030F3EE067AF4EE67AAF1EE10FA6B7A9F
S315080110D040F040820BB901236B72DFF8348100229C
S315080110E0434600921621012007F084FD002884F862
S315080110F04D0040F3A68298F8013084F8293098F813
S31508011100023084F82A3098F8033084F82B3098F89E
S31508011110043084F82C30D6ED007A98F8053084F836
S315080111202D3098F8063084F82E3098F8072098F86C
S31508011130003084F82F20B8EE67BA84F82830F3EE29
S31508011140077AB4EE67BAF1EE10FA2B7B40F0D0813C
S315080111500BB901232B73DFF8BC80002243460092AA
S315080111601721012007F046FD002884F8500040F3B6
S31508011170638298F8013084F8413098F8023084F88F
S31508011180423098F8033084F8433098F8043084F8EC
S315080111904430D6ED007A98F8053084F8453098F849
S315080111A0063084F8463098F8072098F8003084F815
S315080111B04720F8EE67BA84F84030F3EE087AF4EE81
S315080111C067BAF1EE10FAEB7A40F0AB810BB901235D
S315080111D0EB72DFF844800022434600921821012071
S315080111E007F008FD002884F84F00D6ED007A40F391
S315080111F01B8213E03CBD002028BF002048060020C2
S3150801120050060020D806002058060020880600202F
S3150801121098060020B0060020C006002098F8013084
S3150801122084F8393098F8023084F83A3098F803305F
S3150801123084F83B3098F8043084F83C3098F8053047
S3150801124084F83D3098F8063084F83E3098F807203F
S3150801125098F8003084F83F20F8EE677A84F8383039
S31508011260B3EE097AF4EE477AF1EE10FAAB7A40F06A
S31508011270D8800BB90123AB72C84D00222B460092C8
S315080112801921012007F0B6FC002884F84E0017DD65
S315080112906B78AA7884F83130EB7884F8322084F8B0
S315080112A033302A796B7984F83420A97984F8353072
S315080112B0EA792B7884F8361084F8372084F83030A8
S315080112C0F7EE007AB4EE678AF1EE10FA40F09280F2
S315080112D094F94B30207E94F819C094F81AE0E67E0A
S315080112E0257F617FA27F07EE103AE37F99F80040D8
S315080112F007EE904AF8EEE77AF7EE006AF4EE667AB8
S31508011300F1EE10FA15D1F8EEC77AF5EE407AF1EE5C
S3150801131010FA57D1189C4FF002084FF0010B89F8C3
S31508011320008084F800B099F8004007EE904AF8EE7C
S31508011330E77AF0EE006AF4EE667AF1EE10FA37D142
S31508011340B8EEC77AB7EE008AB4EEC87AF1EE10FAAB
S3150801135038DBFB71189B87F801C001243870BA7114
S3150801136087F802E0FE703D7179711C70159B8C4AF5
S315080113701C704FF0030C89F800C0BAF800301380CE
S31508011380149A13800DF03CFE169BD3ED007A854B1B
S31508011390F8EE677AC3E90001F4EE487AF1EE10FA3D
S315080113A000F0288199F8003007EE903AF8EEE77ACE
S315080113B0F5EE407AF1EE10FA04D1189A012389F86C
S315080113C00030137003B0BDEC088BBDE8F08F73B124
S315080113D0002380F84B30037643768376C37603770A
S315080113E043778377C377F0EE488AEB7182E5F0EEAF
S315080113F0488A7FE5F2EE067AF4EE678AF1EE10FA8C
S3150801140040F0D28094F94A30207C94F811C094F8BF
S3150801141012E0E67C257D617DA27D07EE103AE37D2B
S3150801142064E7002B3FF44CAF002384F84E3084F870
S31508011430303084F8313084F8323084F8333084F827
S31508011440343084F8353084F8363084F83730AB7266
S3150801145036E7002B00F09680002384F84C3084F898
S31508011460203084F8213084F8223084F8233084F837
S31508011470243084F8253084F8263084F82730F0EEB5
S315080114804AAA2B721DE6002B00F08280002384F8FD
S31508011490483023706370A370E37023716371A3717D
S315080114A0E371B0EE69AA2B71CDE5002B73D0002349
S315080114B084F8493023726372A372E37223736373E8
S315080114C0A373E373F0EE499A6B7183E5002B00F081
S315080114D08B80002384F84A3023746374A374E374FD
S315080114E023756375A375E375B0EE689AAB7137E535
S315080114F0002B76D0002384F8503084F8403084F8E5
S31508011500413084F8423084F8433084F8443084F812
S31508011510453084F8463084F84730F0EE4BBA2B73E1
S315080115204BE6002B63D0002384F84F3084F838301B
S3150801153084F8393084F83A3084F83B3084F83C3002
S3150801154084F83D3084F83E3084F83F30F0EE6B7A0B
S31508011550EB7285E6CBB1002384F84D3084F8283048
S3150801156084F8293084F82A3084F82B3084F82C3012
S3150801157084F82D3084F82E3084F82F30B0EE6ABA0C
S315080115806B72DCE5F0EE4AAA9BE5B0EE6ABAD6E5DF
S31508011590B0EE69AA57E5F0EE499A1BE578060020F0
S315080115A048BF002030BF0020F2EE087AB4EE679AF1
S315080115B0F1EE10FA29D0F2EE0A7AF4EE679AF1EE14
S315080115C010FA4DD194F94830207894F801C094F86E
S315080115D002E0E67825796179A27907EE103AE3798E
S315080115E084E6F0EE4BBAE8E5B0EE689AB8E4F0EEB8
S315080115F06B7A35E65D4B19990022C1E90023D1E6DC
S31508011600D6ED007AF8EE678A74E494F94930207ABF
S3150801161094F809C094F80AE0E67A257B617BA27BF7
S3150801162007EE103AE37B61E6F8EE677A18E6D6ED3F
S31508011630007AB8EE679A93E4D6ED007AF8EE67BABF
S31508011640BBE5D6ED007AB8EE67BA78E5D6ED007A4D
S31508011650F8EE67AA35E5D6ED007AF8EE679AB9E4A9
S31508011660F3EE057AB4EE67AAF1EE10FA1BD0F3EEA3
S31508011670067AF4EE67AAF1EE10FA29D194F94D30FB
S3150801168094F8280094F829C094F82AE094F82B6075
S3150801169094F82C5094F82D1094F82E2007EE103A51
S315080116A094F82F3022E694F94C3094F8200094F8F7
S315080116B021C094F822E094F8236094F8245094F811
S315080116C0251094F8262007EE103A94F827300DE6EF
S315080116D0F3EE077AB4EE67BAF1EE10FA14D194F97B
S315080116E0503094F8400094F841C094F842E094F8D8
S315080116F0436094F8445094F8451094F8462007EE50
S31508011700103A94F84730F1E5F3EE087AF4EE67BA41
S31508011710F1EE10FA14D194F94F3094F8380094F890
S3150801172039C094F83AE094F83B6094F83C5094F840
S315080117303D1094F83E2007EE103A94F83F30D5E56F
S3150801174094F94E3094F8300094F831C094F832E0A8
S3150801175094F8336094F8345094F8351094F8362098
S3150801176007EE103A94F83730C0E500BF0000F03FA5
S315080117702DE9F04F83B00C460E9FDDF8348099466B
S315080117800546324BD7E90001164600220DF0FCFA50
S315080117900123C7E9000189F8003023682C4A0C990E
S315080117A0013313602360D8F8003007EE903AB8EE9B
S315080117B0677AF7EE007AB4EE677AF1EE10FA05D198
S315080117C0DFF888904FF00008C1E90089377801935E
S315080117D038460DF015FCDFF884801E4A019B13601C
S315080117E0C8E900012B602F7196F807E085F805E036
S315080117F096F801C085F806C096F8028085F8078034
S3150801180096F8039085F8089096F804A085F809A03B
S3150801181096F805B0104C85F80AB0B079E872194601
S31508011820A071234608220120277084F805B084F8A0
S3150801183004A084F8039084F8028084F801C084F82F
S3150801184007E003B0BDE8F04F06F0A4BF0000F03F83
S3150801185048BD002004BB0020D0060020C8BC0020DB
S315080118604B780BB901234B700B7833B100230B70FE
S3150801187003701946032008F09DBE01230B700370FF
S315080118801946032008F096BE2DE9F04F85B00E9D46
S31508011890109C002800F03181217809B901212170B5
S315080118A01F46129B188816460DF0BAFB80468946D4
S315080118B002460B46304639460DF080FE08B1002334
S315080118C02B7042464B46304639460DF081FE0028BC
S315080118D000F025811799AF4B0022D1E900010DF0DF
S315080118E081FEA378002800F02E810BB90123A3708D
S315080118F0A94B3046D3E9002339460DF045FA129B28
S315080119008046188889460DF07BFB0022A34B824648
S315080119108B460DF039FA42464B460DF033FA002252
S315080119200023CDE900010DF049FE002800F01581DC
S31508011930199B93F800A0179B4FEACA1A5FFA8AFA0D
S3150801194085F805A0D3E900010DF0A8FE00015FFAAC
S3150801195080FB119B85F806B0D3E900010DF09EFEC8
S31508011960139B139A5044584418702B7853702B784C
S3150801197093702B78D3702B7813712B7853712B783E
S3150801198093712B78D3710F9B159A5B681360129B21
S3150801199018880DF035FB42464B460DF0F3F9002247
S315080119A00023804689460DF009FE002840F0D280C2
S315080119B07B4BD3E900AB00220023504659460DF074
S315080119C0FDFD002840F0E28052465B464046494606
S315080119D0FEF79AFB002300220DF0F0FD4FF00103FC
S315080119E000B90346DBB2AB7018996A4B0022D1E9FC
S315080119F000010DF0F7FD002800F09C8063780BB913
S31508011A0001236370674B3046D3E9002339460DF04D
S31508011A10BBF9129B064618880F460DF0F1FA00220B
S31508011A205E4B804689460DF0AFF932463B460DF0CE
S31508011A30A9F90022002382468B460DF0BFFD002836
S31508011A4000F0B480199B1878189BC0015FFA80F8DA
S31508011A5085F80380D3E900010DF020FE0001C4B228
S31508011A60119B2C71D3E900010DF018FE149B149AF1
S31508011A702044404418702B7853702B7893702B7838
S31508011A80D3702B7813712B7853712B7893712B782C
S31508011A90D3710F9B169A1B681360129B18880DF059
S31508011AA0AFFA32463B460DF06DF900220023804617
S31508011AB089460DF083FD002840F092803A4BD3E920
S31508011AC0006700220023304639460DF077FD0028CD
S31508011AD040F0838032463B4640464946FEF714FBB2
S31508011AE0002300220DF06AFD4FF0010300B90346F9
S31508011AF0DBB26B7005B0BDE8F08F2378002BF9D007
S31508011B00A3780BB1A870A07063780BB1002363703A
S31508011B100023AB706B70237005B0BDE8F08FA37816
S31508011B20A3B942464B46304639460DF051FD0028C9
S31508011B307FF45AAF6378002BDCD000236B70637097
S31508011B4005B0BDE8F08F002B3FF44EAF0023AB7014
S31508011B50A370E6E70123AB7046E7114B93ED007BD3
S31508011B600022002351EC170B8DED027B0DF026FDAB
S31508011B7000284AD042464B46504659460DF002F9CE
S31508011B80002200230DF01AFD0028E3D10023AB70D3
S31508011B902AE700BF00001C40200000200000F03F9B
S31508011BA0100000202800002018000020204B93ED8B
S31508011BB0007B0022002351EC170B8DED007B0DF005
S31508011BC0FDFC80B132463B46404649460DF0DAF8FF
S31508011BD0002200230DF0F2FC10B900236B7089E78F
S31508011BE001236B7086E7DDE9002350465946FEF767
S31508011BF08BFA002200230DF0E1FC00287FF422AFC6
S31508011C00129B18880DF0FCF94BE7DDE90223DDE9A3
S31508011C100001FEF779FA002200230DF0CFFC002817
S31508011C207FF486AE129B18880DF0EAF9B3E600BF79
S31508011C30180000202DE9F04F85B00E9D109C002854
S31508011C4000F03481217809B9012121701F46129BC0
S31508011C50188816460DF0E4F98046894602460B4671
S31508011C60304639460DF0AAFC20B100232B70159B8E
S31508011C701B786B7042464B46304639460DF0A8FC38
S31508011C80002800F025811899AE4B0022D1E9000100
S31508011C900DF0A8FCA378002800F02E810BB90123CA
S31508011CA0A370A94B3046D3E9002339460DF06CF8E9
S31508011CB0129B8046188889460DF0A2F90022A34B8B
S31508011CC082468B460DF060F842464B460DF05AF8AF
S31508011CD000220023CDE900010DF070FC002800F078
S31508011CE015811A9B93F800A0189B4FEACA1A5FFA46
S31508011CF08AFA85F806A0D3E900010DF0CFFC0001A8
S31508011D005FFA80FB119B85F807B0D3E900010DF056
S31508011D10C5FC139B139A5044584418706B7853703A
S31508011D202B7893702B78D3702B7813712B7853718A
S31508011D302B7893712B78D3710F9B169A5B68136076
S31508011D40129B18880DF05CF942464B460DF01AF8BD
S31508011D5000220023804689460DF030FC002840F019
S31508011D60D2807B4BD3E900AB00220023504659466B
S31508011D700DF024FC002840F0E28052465B464046BE
S31508011D804946FEF7C1F9002300220DF017FC4FF072
S31508011D90010300B90346DBB2EB701999694B0022BE
S31508011DA0D1E900010DF01EFC002800F09C80637843
S31508011DB00BB901236370674B3046D3E900233946D3
S31508011DC00CF0E2FF129B064618880F460DF018F92B
S31508011DD000225E4B804689460CF0D6FF32463B46CA
S31508011DE00CF0D0FF0022002382468B460DF0E6FB5D
S31508011DF0002800F0B3801A9B1878199BC0015FFA76
S31508011E0080F885F80480D3E900010DF047FC00014C
S31508011E10C4B2119B6C71D3E900010DF03FFC149B10
S31508011E20149A2044404418706B7853702B78937039
S31508011E302B78D3702B7813712B7853712B78937178
S31508011E402B78D3710F9B179A1B681360129B1888FE
S31508011E500DF0D6F832463B460CF094FF00220023DB
S31508011E60804689460DF0AAFB002840F091803A4B3E
S31508011E70D3E9006700220023304639460DF09EFB60
S31508011E80002840F0828032463B4640464946FEF7E6
S31508011E903BF9002300220DF091FB4FF0010300B935
S31508011EA00346DBB2AB7005B0BDE8F08F2378002B93
S31508011EB0F9D0A3780BB1E870A07063780BB1002351
S31508011EC063700023EB70AB70237005B0BDE8F08F2B
S31508011ED0A378A3B942464B46304639460DF078FBFE
S31508011EE000287FF45AAF6378002BDCD00023AB704F
S31508011EF0637005B0BDE8F08F002B3FF44EAF0023A9
S31508011F00EB70A370E6E70123EB7046E7104B93ED00
S31508011F10007B0022002351EC170B8DED027B0DF09F
S31508011F204DFB002849D042464B46504659460CF0CF
S31508011F3029FF002200230DF041FB0028E3D10023ED
S31508011F40EB702AE700001C40200000200000F03F4B
S31508011F50100000202800002018000020204B93EDD7
S31508011F60007B0022002351EC170B8DED007B0DF051
S31508011F7025FB80B132463B46404649460CF002FFF6
S31508011F80002200230DF01AFB10B90023AB708AE773
S31508011F900123AB7087E7DDE9002350465946FEF772
S31508011FA0B3F8002200230DF009FB00287FF423AFC4
S31508011FB0129B18880DF024F84CE7DDE90223DDE9C8
S31508011FC00001FEF7A1F8002200230DF0F7FA002818
S31508011FD07FF487AE129B18880DF012F8B4E600BF9D
S31508011FE0180000202DE9F843DDF820800C9C0D9E91
S31508011FF00E9D002800F0BF80307808B901203070A6
S315080120001F469146B378002900F0C4800BB9012315
S31508012010B3703B785B00DBB25A0907EE902AB8EE3B
S31508012020E77AF7EE007AB4EEE77AF1EE10FA23765C
S31508012030A27609DD10996F4BD1E9000100220CF057
S31508012040A3FE109BC3E900017B782372BB786372F8
S31508012050FB78A3723B79E3727B792373BB7963734C
S31508012060FB79A3730023E3733B781B01DBB21809E1
S31508012070E37560760CF0D4FFDDE90A230DF09EFACC
S315080120804FF00103002800F0AF8063743B78DB0949
S31508012090E3767378B9F1000F00F086800BB9012356
S315080120A0737098F800305B00DBB25A0907EE902A84
S315080120B0B8EEE77AF7EE007AB4EEE77AF1EE10FABF
S315080120C0E374627509DD10994A4BD1E900010022D2
S315080120D00CF05AFE109BC3E9000198F801302370F1
S315080120E098F80230637098F80330A37098F80430B2
S315080120F0E37098F80530237198F80630637198F8FB
S315080121000730A3710023E37198F800301B01DBB295
S315080121101809A37420750CF083FFDDE90A230DF075
S315080121204DFA4FF0010300285CD0237498F800306B
S31508012130DB09A375637C002B3FD0E37B2B70237AE5
S315080121406B70637AAB70A37AEB70E37A2B71237B9E
S315080121506B71637BAB71A37BEB71637C002B3FD106
S31508012160237C003318BF012311990B700F9B0122A1
S315080121701A70BDE8F883337853B1B3780BB160743C
S31508012180B070737813B1002323747370002333700E
S31508012190BDE8F883002B3FF47CAF61747378B170A6
S315080121A0B9F1000F7FF47AAF002BC3D084F81090F1
S315080121B086F80190637C002BBFD1E3792B702378D5
S315080121C06B706378AB70A378EB70E3782B71237926
S315080121D06B716379AB71A379EB71637C002BBFD00B
S315080121E00123C1E70346A0E7034663743B78DB098D
S315080121F0E3764EE70000F03F38B521F000430D467F
S3150801220000221946154B04460DF0E2F9C8B1002221
S31508012210134B204629460DF0EFF9A8B90022114BB8
S31508012220204629460DF0F2F948B9204629460C4BB5
S3150801223000220CF0A7FDBDE838400CF0FDBA0024D9
S3150801224000252046294638BD20462946044B00224A
S315080122500CF09AFDBDE838400CF076BB000030431F
S315080122600000E03F0000E0BF38B505460021022026
S31508012270012408F06DF985F89740FEF711F9FEF784
S31508012280C3FD0021084608F063F92046002108F03D
S315080122905FF90021102008F05BF90021042008F0FD
S315080122A057F90021122008F053F90021132008F0EC
S315080122B04FF900210E2008F04BF900210F2008F0F4
S315080122C047F900210320BDE8384008F041B900BFAD
S315080122D02DE9F04F2DED068B9146ADF5017D92F86E
S315080122E0C020DDF878A283460C461D4612B90123A3
S315080122F089F8C03099F89630002B00F06D840023D8
S3150801230089F8963019468BF81630022008F052F9EA
S3150801231099F89730002B00F0838099F8BC3013B9EF
S31508012320012389F8BC30989B1B78002B40F07786EF
S31508012330999B93F8008018F1000818BF4FF001081F
S31508012340D5E900670022324B304639460DF036F999
S3150801235048B900224FF08043304639460DF02EF930
S31508012360002800F0F68699F8A730002B00F0FA86C7
S3150801237099F8BD30002B00F0FE86B8F1000F41F048
S31508012380FC8299F8A7309BB1214B91990022C1E9AA
S315080123900023909AB4F8B030138094F8B33089F8D2
S315080123A0903099F8A7301BB1194B0022C9E90623C9
S315080123B0989B174900269FED147B1E70999B002058
S315080123C01E7089ED1C7BCBE900013346D9E91C67F0
S315080123D089F8973030460F4B394600220DF00CF933
S315080123E04FF0010300B9034689F8A7300022094BCB
S315080123F0304639460DF000F9002801F0F586064BFE
S315080124000022C9E91C2318E00000000000000000B2
S315080124100000F03F00807A400000F0BF00005443FE
S3150801242099F8BC20002A00F0E98399F8BD20002A12
S3150801243041F09B82002389F8BC30909B1FED097AF5
S315080124401B8807EE903AF8EEE77AF4EE477AF1EE52
S3150801245010FA14D1909A0023138099F890603046A7
S315080124600CF0DEFDD4E92A230DF0B2F8002800F0BD
S31508012470C4860136B84BF6B21E7089F8906099F891
S315080124809730002B00F0C88399F8A830002B00F08C
S31508012490958199F8A930002B00F0858199F8AE301D
S315080124A0002B00F02B8199F8B230C3B199F8B330FB
S315080124B093B199F8D33023B100238BF8A83089F862
S315080124C0D33099F8D23023B100238BF89A3089F8A2
S315080124D0D230002389F8B330002389F8B23099F84D
S315080124E0B130C3B199F8CF3093B199F8D13023B14E
S315080124F000238BF8873089F8D13099F8D03023B189
S3150801250000238BF8863089F8D030002389F8CF303C
S31508012510002389F8B13099F8B030C3B199F8CC30B5
S3150801252093B199F8CE3023B100238BF86B3089F833
S31508012530CE3099F8CD3023B100238BF86A3089F86B
S31508012540CD30002389F8CC30002389F8B03099F8CA
S31508012550AF30C3B199F8C93093B199F8CB3023B1EB
S3150801256000238BF84F3089F8CB3099F8CA3023B15C
S3150801257000238BF84E3089F8CA30002389F8C93010
S31508012580002389F8AF3099F8B73043B399F8E330A7
S3150801259033B100238BF8D3308BF8D43089F8E33084
S315080125A099F8E03083B199F8E23023B100238BF82A
S315080125B0CE3089F8E23099F8E13013B1002389F871
S315080125C0E130002389F8E03000238BF8CE308BF810
S315080125D0D3308BF8CD308BF8D43089F8B73099F8E9
S315080125E0B63043B399F8DF3033B100238BF8CA30DC
S315080125F08BF8CB3089F8DF3099F8DC3083B199F85C
S31508012600DE3023B100238BF8C53089F8DE3099F81E
S31508012610DD3013B1002389F8DD30002389F8DC3079
S3150801262000238BF8C5308BF8CA308BF8C4308BF889
S31508012630CB3089F8B63099F8B53043B399F8DB3021
S3150801264033B100238BF8C0308BF8C13089F8DB3001
S3150801265099F8D83083B199F8DA3023B100238BF889
S31508012660BB3089F8DA3099F8D93013B1002389F8E3
S31508012670D930002389F8D83000238BF8BB308BF882
S31508012680C0308BF8BA308BF8C13089F8B53099F873
S31508012690B43043B399F8D73033B100238BF8B63049
S315080126A08BF8B73089F8D73099F8D43083B199F8CF
S315080126B0D63023B100238BF8B13089F8D63099F892
S315080126C0D53013B1002389F8D530002389F8D430E1
S315080126D000238BF8B1308BF8B6308BF8B0308BF815
S315080126E0B73089F8B43000238BF80C308BF80F30EB
S315080126F08BF80D308BF80E3089F8AE3099F8AA3080
S31508012700002B4DD099F8AB30C3B199F8AC3093B1E1
S3150801271099F8C43023B100238BF82F3089F8C430D7
S3150801272099F8C33023B100238BF8213089F8C330D7
S31508012730002389F8AC30002389F8AB3099F8AD301D
S315080127401BB399F8C8304BB100238BF83C308BF892
S315080127503D3089F8C83001E0D8BC002099F8C53069
S3150801276083B199F8C73023B100238BF8373089F83C
S31508012770C73099F8C63013B1002389F8C63000234B
S3150801278089F8C530002389F8AD3000238BF8373036
S315080127908BF836308BF83C308BF83D3089F8AA3007
S315080127A0002389F8A93000238BF808308BF8093003
S315080127B08BF80A308BF80B3089F8A8309BF80A3069
S315080127C0002B40F0B38499F89740003418BF0124D0
S315080127D099F88C30DE0600F1948443F0100389F8E9
S315080127E08C309BF80830002B40F0908499F88C3097
S315080127F01D0700F1338499F88C3043F0080389F8F2
S315080128008C30002C40F02D84DBB299F89720002AF1
S3150801281040F009849BF80B20002A40F004845A07EB
S3150801282005D499F88C3043F0040389F88C3098075D
S315080128305CBF43F0020389F88C309BF80930002B02
S3150801284040F077849AF80030002B00F0518499F80B
S31508012850C23013B9012389F8C23099F89C30002B8C
S3150801286000F09F84002389F89C3000208AF8000034
S3150801287099F89C108BF81810002940F08D840846A9
S3150801288007F098FE99F89830002B00F01A8499F809
S31508012890C13013B9012389F8C13099F89D30002B4D
S315080128A000F01186002389F89D3089F89830194679
S315080128B08BF81730012007F07DFE99F89930002B27
S315080128C000F0F78399F8BE3013B9012389F8BE30B1
S315080128D099F89F30002B00F0E985002389F89F308D
S315080128E089F8993019468BF81430102007F062FEE2
S315080128F099F8BF3013B9012389F8BF3099F89E308A
S31508012900002B00F0D483002389F89E3019468BF8F2
S315080129101530042007F04EFE9F9900230022D1E9C5
S3150801292000010CF04BFE99F8BB30002840F0B88343
S3150801293013B9012389F8BB3099F89330002B00F0BD
S315080129403584002389F893308BF813309F9B002137
S315080129500020C3E900019BF8131001B101211220DF
S3150801296007F028FEA09900230022D1E900010CF006
S3150801297025FE99F8BA30002840F08B8313B9012354
S3150801298089F8BA3099F89230002B00F000840023B8
S3150801299089F892308BF81230A09B00210020C3E9F8
S315080129A000019BF8121001B10121132007F002FE64
S315080129B0A19900230022D1E900010CF0FFFD99F845
S315080129C0B930002840F08D8313B9012389F8B9304D
S315080129D099F89530002B00F0D683002389F89530B5
S315080129E08BF81130A19B00210020C3E900019BF857
S315080129F0111001B101210E2007F0DCFDA299002377
S31508012A000022D1E900010CF0D9FD99F8B830002867
S31508012A1040F0608313B9012389F8B83099F89430E6
S31508012A20002B00F05C85002389F894308BF8103070
S31508012A30A29B00210020C3E900019BF8101001B1F7
S31508012A4001210F2007F0B6FD99F8A030002B00F000
S31508012A50AF8099F8903007EE903AF8EEE77AF5EEFE
S31508012A60407AF1EE10FA40F0A68314230DF1C00A5C
S31508012A70C9F88430C9F88830A0225B4950460CF061
S31508012A8033FEA022594958A80CF02EFEDAE9004572
S31508012A90909BB3F8008040460CF0C2FA22462B46BA
S31508012AA0CDE90E010CF0B2FD002802F07F84CDF8C5
S31508012AB040B0CDF84890C346DDE90E894C4F002653
S31508012AC000224B4B304639460CF05EF90F46064656
S31508012AD00CF0BCFD0AEBC00050E9024542464B46E4
S31508012AE0204629460CF074FD0028E9D10022404B06
S31508012AF0DDF84890304639460CF044F90CF0A6FD4D
S31508012B00D846DDF840B00138C60080AB334453E9F6
S31508012B102801002200230CF051FD0746002840F049
S31508012B207F8340460CF06CFA02460B46204629463E
S31508012B30CDE90E230CF026F9FFF75EFB00222D4B9B
S31508012B4004460D460CF044FD002840F0438524A3B5
S31508012B50D3E900234FF6FE77D9E9084520462946E9
S31508012B600CF04AFD002801F0498338460CF048FA72
S31508012B7006460F4622462B46304639460CF002F9E0
S31508012B800023002204460D460CF040FD4FF00103D8
S31508012B9000B9034689F8A0303046DDE90E233946E7
S31508012BA00CF0F2F80CF07AFD909B1880C9E90845FB
S31508012BB099F88C30D9075CBF43F0010389F88C304A
S31508012BC009F1E4010BF1D700FEF74AFE0DF5017D87
S31508012BD0BDEC068BBDE8F08F0123FFF791BB00BF63
S31508012BE000000000C0FFEF4000C00008A0C00008B8
S31508012BF00000F03F0000F04000005443909B1FED99
S31508012C00027A1B8807EE903AF8EEE77AF4EE477AED
S31508012C10F1EE10FA3FF41EAC99F8A83013B9012366
S31508012C2089F8A830D5E900670022C14B30463946F4
S31508012C300CF0C4FC48B900224FF0804330463946AF
S31508012C400CF0BCFC002800F0DD8499F8A93013B912
S31508012C50012389F8A93099F8903008EE903AF8EEF0
S31508012C60E88A99F8AE30F5EE408AF1EE10FA40F0AE
S31508012C704B8413B9012389F8AE30909B9FEDAD9A29
S31508012C80B3F8008007EE908AB8EEE78AB4EEC98AEF
S31508012C90F1EE10FA80F2D086B0EE489A4746DFED9B
S31508012CA0A69AB4EEE99AF1EE10FAC0F2DE80384639
S31508012CB00CF0B6F9D4E90A230CF08AFC002800F0D6
S31508012CC0D480B4EE699AF1EE10FA40F0CE8099ED0F
S31508012CD0007B8DED107BDDE9106799ED027B3046AF
S31508012CE0394653EC172B8DED0E7B0CF08FFC08B98A
S31508012CF0DDE90E6799ED047B3046394653EC172B0F
S31508012D008DED127B0CF06EFC08B1DDE9126700232C
S31508012D103046394600220CF051FC4FF0010300B948
S31508012D20034699F8912089F8A53009EE102AB8EEDC
S31508012D30C99AF7EE007AB4EE679AF1EE10FADDE970
S31508012D4010014FF0000202F0818500230CF01CF8F7
S31508012D50F0EE007AB4EE679AF1EE10FA06460F46DF
S31508012D604FF00002DDE90E0142F0A487704B0CF02A
S31508012D700BF8CDE9100100200021DDE912230CF042
S31508012D8003F8DDE91023CDE91201304639460CF086
S31508012D903DFC002802F05485CDE90E67DDE91223D2
S31508012DA0DDE90E010CF01EFC18B19DED127B8DEDCF
S31508012DB00E7BDDE90E23304639460BF0E3FF002290
S31508012DC000230CF0FBFB002802F0368519AF00231F
S31508012DD03B700126DDE90E23DDE910010BF0D2FF78
S31508012DE0002200230CF0EAFB10B10123BB551E4457
S31508012DF0DDE90E23DDE912010BF0C4FF00220023F1
S31508012E000CF0DCFB10B10223BB550136012EC9F8C3
S31508012E10806097F900000BDD97F901309842A8BF49
S31508012E201846032E04D197F902309842A8BF1846CE
S31508012E300CF0F6F800223E4B0BF0A6FF919BC3E976
S31508012E400001D5E900230CF0B9FB0022002802F0A5
S31508012E509983374BC9E9062301238AF80030909BE9
S31508012E601F8807EE907AB8EEE79ADFED349AB4EE4A
S31508012E70E99AF1EE10FA13DB38460CF0D1F8D4E9E9
S31508012E800C23CDE90E010CF0A3FB48B12C4A99F8A5
S31508012E90A5301370B4EE699AF1EE10FA02F04F817B
S31508012EA0DFED289AB4EEE99AF1EE10FA82F205817D
S31508012EB0DFED257A99F89A60B4EEE79AF1EE10FA01
S31508012EC0C0F2C68738460CF0ABF8D4E910230CF0EB
S31508012ED07FFB002800F0BC87002E40F0B98799F8DF
S31508012EE0B23043B9012389F8B230909B1F8807EEA7
S31508012EF0907AB8EEE79A929BDFED137A18685968CB
S31508012F00989B1B781093999B1B7812931AAB03C352
S31508012F10939B99ED066B18685968B4EE679A1CABD2
S31508012F20F1EE10FA03C38DED0E6B42F0F8830DE056
S31508012F300000F03F000044430000484300005043AE
S31508012F404CBD002000004C43000020424FF0804356
S31508012F50002251EC160B0CF031FB99F8B33000281E
S31508012F6002F0FD84919A92ED009B13B9012389F829
S31508012F70B330109B09F12807002B42F0058699F812
S31508012F80D33023B1109B8BF8A83089F8D330129B24
S31508012F90002B42F0E98599F8D23023B1129B8BF8C0
S31508012FA09A3089F8D2309BF8A830002B02F0778541
S31508012FB09BF8A73089F878309BF8A03089F87930E2
S31508012FC09BF8A13089F87A309BF8A23089F87B30D2
S31508012FD09BF8A33089F87C309BF8A43089F87D30BA
S31508012FE09BF8A53089F87E309BF8A63089F87F30A2
S31508012FF09BF8A830002B42F0C4849BF89A30002B2A
S3150801300042F0BF8489F8A63001238AF80030909BE4
S315080130101F8807EE907AB8EEE79A00F03BBF4FF0AB
S315080130200108FFF78DB95B0742F10880A19B05935B
S315080130309D9B03939B9B0293999B0193959BCDF82B
S3150801304010A00093939B909A09F1EC010BF1E4000F
S31508013050FDF702FF99F88C30FFF7E9BB002C3FF426
S31508013060D4AB9F9B05939C9B03939A9B0293989B36
S315080130700193949B0093CDF810A0929B909A09F125
S31508013080FC010BF23510FDF733FA99F88C30FFF78E
S31508013090BCBB002B3FF48CAC002389F8BA3087E41B
S315080130A0002B3FF45FAC002389F8BB305AE40123B7
S315080130B02AE499F8BE20002A3FF41AAC89F8BE30F2
S315080130C016E499F8C120002A3FF4F7AB89F8C13014
S315080130D0FFF7F3BB002B3FF4B7AC002389F8B830F0
S315080130E0B2E4002B3FF48AAC002389F8B93085E4B1
S315080130F099F8C220002A3FF4C5AB89F8C230FFF718
S31508013100C1BB9BF80820002A3FF472ABA59B02932A
S31508013110A39B0193A09B0093969A534609F5867142
S315080131200BF5C470FDF744F9FFF760BB0124FFF7FF
S315080131304FBBA69B0293A49B0193A29B0093979ACC
S31508013140534609F1E8010BF1D800FEF711FBFFF729
S3150801315079BB3046394600222B4B0CF02FFA002852
S315080131607FF401A9B8F1000F00F0218299F8BD306A
S31508013170002B40F00284012389F8BD30B8F1000F15
S315080131803FF4FFA8F9E3012389F8953028E40123E0
S3150801319089F89230FFF7FEBB012107F00BFAFFF71A
S315080131A071BB012389F89C30FFF75FBB012389F8BE
S315080131B09330FFF7C9BB0DF5007A002400256AE9AB
S315080131C05045124B124900220020CAE90423114B2B
S315080131D00022CAE9020110490020CDE95A23CDE9A6
S315080131E05C23CDE95E230423CDE95845CAE90601E6
S315080131F0C9F88430C9F888304AE4084B94F8B460B1
S315080132001E70FFF73AB900BF0000084000004640AB
S31508013210000044400000F03F00004740D8BC0020B1
S3150801322040460BF0EDFEB244DAE90023CDE90E0182
S315080132300BF0A8FDFEF7E0FF0022AD4B04460D4654
S315080132400CF0C6F9002840F07C839FEDA77B8DED35
S31508013250107B4FF6FF7AA74BD3E90067DDE910012A
S3150801326032463B460BF08EFDFEF7C6FF0022A04B09
S3150801327004460D460CF0ACF9002801F01987002226
S315080132800023204629460CF0B7F9002802F096805B
S31508013290204629460CF002FA80B20BF0B1FE964B95
S315080132A0D3E9004522462B460CF04AF8FEF7A4FF5F
S315080132B000228F4BCDE912010CF08AF9002801F0A2
S315080132C0F28600220023DDE912010CF095F90028A7
S315080132D002F07080DDE912010CF0E0F980B20130EC
S315080132E0B0F5803F01F0DF860BF08AFE02460B46F9
S315080132F0204629460BF0FAFEFEF77EFF00227C4B9C
S3150801330004460D460CF064F9002801F0C786002230
S315080133100023204629460CF06FF9002802F0708038
S31508013320294620460CF0BAF980B20BF069FE02462E
S315080133300B46304639460BF027FDFEF75DFF0022A6
S315080133406B4B04460D460CF043F9002801F0A286A2
S3150801335000220023204629460CF04EF9002802F0E7
S315080133604C80204629460CF099F91FFA80F8634BE0
S31508013370D3E90067DDE9100132463B460BF002FD51
S31508013380FEF73AFF00225A4B04460D460CF020F987
S31508013390002801F07A8600220023204629460CF0EF
S315080133A02BF9002802F02580204629460CF076F9EB
S315080133B080B20BF025FE524BD3E9004522462B4637
S315080133C00BF0BEFFFEF718FF0022494BCDE91001AD
S315080133D00CF0FEF8002801F0538600220023DDE9EF
S315080133E010010CF009F9002801F0FF87DDE9100149
S315080133F00CF054F980B20130B0F5803F01F04086F7
S315080134000BF0FEFD02460B46204629460BF06EFEE2
S31508013410FEF7F2FE0022364B04460D460CF0D8F8AC
S31508013420002801F0288600220023204629460CF0B0
S31508013430E3F8002801F0D587294620460CF02EF935
S3150801344080B20BF0DDFD02460B46304639460BF0DD
S315080134509BFCFEF7D1FE0022254B04460D460CF0D7
S31508013460B7F8002801F003860022002320462946E2
S315080134700CF0C2F8002801F0B187204629460CF065
S315080134800DF980B2804528BF8046CAEB080343453B
S3150801349001F2E885981E8342C1F0E48580B20746A9
S315080134A00BF0BEFD02460B46FFF756BB012289F813
S315080134B0993089F89F2011468BF81420102007F0BF
S315080134C079F8FFF715BA012189F8983089F89D101E
S315080134D008468BF8171007F06DF8FFF7EEB90123C8
S315080134E089F89430FFF7A2BA00000000E0FFEF4028
S315080134F00000F040200000201000002028000020D5
S315080135001800002000008E43002B40F05D83F0EE8A
S31508013510687AB7EE007AF4EE477AF1EE10FA99F87E
S31508013520AA3040F06F8613B9012389F8AA30909B17
S315080135301FED0C8A1E8807EE906AB8EEE79AB4EE7C
S31508013540C89AF1EE10FAC0F2438730460BF068FDCF
S31508013550D4E900230CF03CF8002800F03987B4EED2
S31508013560489AF1EE10FA41F0A68699F89B30002B9D
S3150801357041F0FE879199D5E90023D1E900010CF0C4
S315080135801DF8002841F0F487012389F89830D9E914
S315080135900E011B4B00220BF0F7FB909B1F8807EED1
S315080135A0907AC9E90E01B8EEE78A01F087BE99F863
S315080135B0BD300022002B40F03A840023DBE90001EC
S315080135C04FF001060BF0FAFF002800F03E84F3B233
S315080135D0FEF7FCBE00220023204629460CF00CF813
S315080135E0002801F0EF86204629460CF057F880B2EC
S315080135F0431E984282F0848300220023FFF7ACBA67
S315080136000000F03F304639460022B44B0BF0D6FF96
S3150801361000287FF41AAB99F8A930002B3FF4CEA8FD
S3150801362099F8AE30002B00F02A8199F8B230BBB177
S3150801363099F8B3308BB199F8D3301BB18BF8A80040
S3150801364089F8D30099F8D23023B100238BF89A3040
S3150801365089F8D230002389F8B330002389F8B230CB
S3150801366099F8B130C3B199F8CF3093B199F8D130FF
S3150801367023B100238BF8873089F8D13099F8D030F7
S3150801368023B100238BF8863089F8D030002389F8D6
S31508013690CF30002389F8B13099F8B030C3B199F821
S315080136A0CC3093B199F8CE3023B100238BF86B3027
S315080136B089F8CE3099F8CD3023B100238BF86A30DA
S315080136C089F8CD30002389F8CC30002389F8B03049
S315080136D099F8AF30C3B199F8C93093B199F8CB309D
S315080136E023B100238BF84F3089F8CB3099F8CA30CB
S315080136F023B100238BF84E3089F8CA30002389F8A4
S31508013700C930002389F8AF3099F8B73043B399F82F
S31508013710E33033B100238BF8D3308BF8D43089F8F2
S31508013720E33099F8E03083B199F8E23023B1002308
S315080137308BF8CE3089F8E23099F8E13013B10023DD
S3150801374089F8E130002389F8E03000238BF8CE3080
S315080137508BF8D3308BF8CD308BF8D43089F8B73065
S3150801376099F8B63043B399F8DF3033B100238BF8B3
S31508013770CA308BF8CB3089F8DF3099F8DC3083B161
S3150801378099F8DE3023B100238BF8C53089F8DE308D
S3150801379099F8DD3013B1002389F8DD30002389F863
S315080137A0DC3000238BF8C5308BF8CA308BF8C4306F
S315080137B08BF8CB3089F8B63099F8B53043B399F818
S315080137C0DB3033B100238BF8C0308BF8C13089F870
S315080137D0DB3099F8D83083B199F8DA3023B1002370
S315080137E08BF8BB3089F8DA3099F8D93013B1002350
S315080137F089F8D930002389F8D83000238BF8BB30F3
S315080138008BF8C0308BF8BA308BF8C13089F8B530EF
S3150801381099F8B43043B399F8D73033B100238BF80C
S31508013820B6308BF8B73089F8D73099F8D43083B1E8
S3150801383099F8D63023B100238BF8B13089F8D63000
S3150801384099F8D53013B1002389F8D530002389F8C2
S31508013850D43000238BF8B1308BF8B6308BF8B03002
S315080138608BF8B73089F8B43000238BF80C308BF815
S315080138700F308BF80D308BF80E3089F8AE3099F889
S31508013880AA30002B4ED099F8AB30C3B199F8AC30B9
S3150801389093B199F8C43023B100238BF82F3089F8F6
S315080138A0C43099F8C33023B100238BF8213089F845
S315080138B0C330002389F8AC30002389F8AB3099F876
S315080138C0AD3023B399F8C83053B100238BF83C3097
S315080138D08BF83D3089F8C83002E000BF0000084087
S315080138E099F8C53083B199F8C73023B100238BF80D
S315080138F0373089F8C73099F8C63013B1002389F8EB
S31508013900C630002389F8C530002389F8AD30002375
S315080139108BF837308BF836308BF83C308BF83D30E6
S3150801392089F8AA3000238BF808308BF809308BF810
S315080139300A308BF80B3089F8A9309BF80A30FEF764
S315080139403FBF00220023204629460BF055FE0028DA
S3150801395001F03D85294620460BF0A0FE80B282463D
S315080139600BF04EFBCDE9100175E400200021CBE9EF
S31508013970000189F8BD30FEF75DBD012389F89A304B
S31508013980989B1B7807EE903AF8EEE77AB7EE007A3D
S31508013990F4EE477AF1EE10FA41F0CB83929B7F4918
S315080139A01E787F4F7300DBB25A098BF8D630104662
S315080139B00A700BF025FBD7E900230BF097FB0022D1
S315080139C000230BF0E1F90022764B0BF0DDF90BF041
S315080139D065FE754B909982B21A803301DBB2F609FE
S315080139E00A801809714A89F890608BF8D530704BAE
S315080139F010701E700BF004FB919BC3E9000199F846
S31508013A00A730002B01F08F836A4B91990022C1E9F7
S31508013A100023909AB4F8B030138094F8B33089F83B
S31508013A209030B8F1000F3EF4BCAC00224FF0804351
S31508013A30C9E90623FEF7BCBC40460BF0F1FAD4E906
S31508013A4008230BF0C5FD00283FF426A9B4EE498AE0
S31508013A50F1EE10FA7FF420A9D5E900670022554B4B
S31508013A60304639460BF0AAFD002841F0648599F8DD
S31508013A70A330002B01F09185129030463946002279
S31508013A804FF080430BF09AFD002802F04181002394
S31508013A90109399F8A230002B41F06685454BD9E978
S31508013AA0120100220BF070F9C9E9120101231493DE
S31508013AB099F89A60002E41F06B85919B93ED007BF6
S31508013AC00022384B51EC170B8DED0E7B0BF076FD72
S31508013AD0002801F03E870022324BD5E900010BF0A0
S31508013AE06DFD002801F0BE85374617963346129AB2
S31508013AF0002A41F0A985109A002A41F0B886149A3D
S31508013B00002A41F0B486002B41F0B186179B002BA1
S31508013B1041F0AD86FBB2D9E91601274A89F89830F2
S31508013B20C2E90001109BC9E91601002B01F0C58500
S31508013B30204B0022D9E918010BF026F91F4BC3E9DE
S31508013B400001149BC9E91801002B01F0AF85194B37
S31508013B500022D9E91A010BF017F9194BC3E900013B
S31508013B60C9E91A017EB99199D5E90023D1E900017C
S31508013B700BF024FD38B9D9E9140100220D4B0BF0DD
S31508013B8003F9C9E9140101238AF80030909B1F88BB
S31508013B9007EE907AB8EEE79AFFF781B819BF0020C9
S31508013BA010000020000008404EBD002010BF002074
S31508013BB0E8BC00200000F03FC0BC002058BD002032
S31508013BC000BD00200000304299F8B230C3B199F81F
S31508013BD0B33093B199F8D33023B100238BF8A830C9
S31508013BE089F8D33099F8D23023B100238BF89A306B
S31508013BF089F8D230002389F8B330002389F8B23026
S31508013C0099F8B130C3B199F8CF3093B199F8D13059
S31508013C1023B100238BF8873089F8D13099F8D03051
S31508013C2023B100238BF8863089F8D030002389F830
S31508013C30CF30002389F8B13099F8B030C3B199F87B
S31508013C40CC3093B199F8CE3023B100238BF86B3081
S31508013C5089F8CE3099F8CD3023B100238BF86A3034
S31508013C6089F8CD30002389F8CC30002389F8B030A3
S31508013C7099F8AF30C3B199F8C93093B199F8CB30F7
S31508013C8023B100238BF84F3089F8CB3099F8CA3025
S31508013C9023B100238BF84E3089F8CA30002389F8FE
S31508013CA0C930002389F8AF3099F8B73043B399F88A
S31508013CB0E33033B100238BF8D3308BF8D43089F84D
S31508013CC0E33099F8E03083B199F8E23023B1002363
S31508013CD08BF8CE3089F8E23099F8E13013B1002338
S31508013CE089F8E130002389F8E03000238BF8CE30DB
S31508013CF08BF8D3308BF8CD308BF8D43089F8B730C0
S31508013D0099F8B63043B399F8DF3033B100238BF80D
S31508013D10CA308BF8CB3089F8DF3099F8DC3083B1BB
S31508013D2099F8DE3023B100238BF8C53089F8DE30E7
S31508013D3099F8DD3013B1002389F8DD30002389F8BD
S31508013D40DC3000238BF8C5308BF8CA308BF8C430C9
S31508013D508BF8CB3089F8B63099F8B53043B399F872
S31508013D60DB3033B100238BF8C0308BF8C13089F8CA
S31508013D70DB3099F8D83083B199F8DA3023B10023CA
S31508013D808BF8BB3089F8DA3099F8D93013B10023AA
S31508013D9089F8D930002389F8D83000238BF8BB304D
S31508013DA08BF8C0308BF8BA308BF8C13089F8B5304A
S31508013DB099F8B43043B399F8D73033B100238BF867
S31508013DC0B6308BF8B73089F8D73099F8D43083B143
S31508013DD099F8D63023B100238BF8B13089F8D6305B
S31508013DE099F8D53013B1002389F8D530002389F81D
S31508013DF0D43000238BF8B1308BF8B6308BF8B0305D
S31508013E008BF8B73089F8B43000238BF80C308BF86F
S31508013E100F308BF80D308BF80E3099F8902089F811
S31508013E20AE3007EE902AF8EEE77AFFF772BB002369
S31508013E30CBE9002389F8BD80DBE900014FF00106D3
S31508013E400BF0BCFB00287FF4C2AB4646FFF7BFBBAD
S31508013E5099F8B230F3B199F8B33093B199F8D330F0
S31508013E6023B100238BF8A83089F8D33099F8D230DA
S31508013E7023B100238BF89A3089F8D230002389F8C8
S31508013E80B330002389F8B230909B1F8807EE907AE9
S31508013E90B8EEE79A5FEDB59AB4EEE99AF1EE10FA43
S31508013EA04EDB38460BF0BCF8D4E912230BF090FB35
S31508013EB0002845D0002E43D1B4EE699AF1EE10FAE6
S31508013EC008D1012389F89930909B1B8809EE103A8D
S31508013ED0B8EEC99ADFEDBC7AB4EE679AF1EE10FA3C
S31508013EE02ED100224FF08043D9E906010BF066FB7B
S31508013EF030B399F8A6301BB3D9E908670023002225
S31508013F00304639460BF082FB4FF0010300B90346F0
S31508013F1089F8A03000220023304639460BF076FB9B
S31508013F2048B9AA4B0022304639460AF02DFF0BF054
S31508013F30B5FB909B1880012389F89A308AF80030DE
S31508013F409FEDA39AB4EEC98AF1EE10FA7BDB4046DF
S31508013F500BF066F8D4E914230BF03AFB002872D06B
S31508013F60909B1B8807EE903AF8EEE77AF4EE497AC9
S31508013F70F1EE10FA67D195ED007B57EC176B00222D
S31508013F80944B17EE100A39468DED107B0BF016FB94
S31508013F90002841F01083919B93ED007B00228D4B05
S31508013FA051EC170B8DED127B0BF008FB002841F045
S31508013FB0A88499ED0C7B304600224FF080433946A0
S31508013FC099F89A608DED0E7B0BF0F8FA002801F04E
S31508013FD0F8829FED797B8DED107BDDE912010022D8
S31508013FE07D4B0BF0EBFA10B1002E01F0178399ED1A
S31508013FF0127B8DED147BDDE91023DDE90E010BF053
S31508014000E7FA002801F036849DED0E7B8DED127BD3
S31508014010DDE91423DDE912010BF0DAFA18B99DED91
S31508014020147B8DED127B002E01F00083919BD3E961
S3150801403000010BF033FB694BC0B21870012389F8F4
S3150801404091008AF800309FED669AB4EEC98AF1EEBE
S3150801405010FA54DB40460AF0E3FFD4E916230BF0C5
S31508014060B7FA00284BD0909B1B8807EE903AF8EEDA
S31508014070E77AF4EE497AF1EE10FA40D199F8A630CA
S31508014080002B3CD00022534BD5E900010BF096FAE0
S31508014090002834D199F8793009EE103AB8EEC99A60
S315080140A0F0EE087AB4EE679AF1EE10FAD9E904014E
S315080140B04FF0000201F0198500230AF065FEF7EEBC
S315080140C0007AB4EE679AF1EE10FAC9E904014FF0E5
S315080140D00002D9E9000141F0FF853E4B0AF054FE82
S315080140E0D9E90223C9E90001002000210AF04CFEA2
S315080140F00123C9E902018AF8003089F8A330DFED06
S31508014100397AB4EEE78AF1EE10FAC0F253834046E3
S315080141100AF086FFD4E918230BF05AFA002800F0B2
